{
	"contracts/crowdfunding.sol": {
		"CrowdFunding": {
			"abi": [
				{
					"inputs": [
						{
							"internalType": "uint256",
							"name": "_target",
							"type": "uint256"
						},
						{
							"internalType": "uint256",
							"name": "_deadline",
							"type": "uint256"
						}
					],
					"stateMutability": "nonpayable",
					"type": "constructor"
				},
				{
					"inputs": [
						{
							"internalType": "address",
							"name": "",
							"type": "address"
						}
					],
					"name": "contributers",
					"outputs": [
						{
							"internalType": "uint256",
							"name": "",
							"type": "uint256"
						}
					],
					"stateMutability": "view",
					"type": "function"
				},
				{
					"inputs": [],
					"name": "contribution",
					"outputs": [],
					"stateMutability": "payable",
					"type": "function"
				},
				{
					"inputs": [
						{
							"internalType": "string",
							"name": "_description",
							"type": "string"
						},
						{
							"internalType": "address payable",
							"name": "_recipient",
							"type": "address"
						},
						{
							"internalType": "uint256",
							"name": "_value",
							"type": "uint256"
						}
					],
					"name": "createRequests",
					"outputs": [],
					"stateMutability": "nonpayable",
					"type": "function"
				},
				{
					"inputs": [],
					"name": "deadline",
					"outputs": [
						{
							"internalType": "uint256",
							"name": "",
							"type": "uint256"
						}
					],
					"stateMutability": "view",
					"type": "function"
				},
				{
					"inputs": [],
					"name": "getContractBalance",
					"outputs": [
						{
							"internalType": "uint256",
							"name": "",
							"type": "uint256"
						}
					],
					"stateMutability": "view",
					"type": "function"
				},
				{
					"inputs": [
						{
							"internalType": "uint256",
							"name": "_requestNo",
							"type": "uint256"
						}
					],
					"name": "makePayment",
					"outputs": [],
					"stateMutability": "nonpayable",
					"type": "function"
				},
				{
					"inputs": [],
					"name": "manager",
					"outputs": [
						{
							"internalType": "address",
							"name": "",
							"type": "address"
						}
					],
					"stateMutability": "view",
					"type": "function"
				},
				{
					"inputs": [],
					"name": "minimumContribution",
					"outputs": [
						{
							"internalType": "uint256",
							"name": "",
							"type": "uint256"
						}
					],
					"stateMutability": "view",
					"type": "function"
				},
				{
					"inputs": [],
					"name": "noOfContributers",
					"outputs": [
						{
							"internalType": "uint256",
							"name": "",
							"type": "uint256"
						}
					],
					"stateMutability": "view",
					"type": "function"
				},
				{
					"inputs": [],
					"name": "numRequests",
					"outputs": [
						{
							"internalType": "uint256",
							"name": "",
							"type": "uint256"
						}
					],
					"stateMutability": "view",
					"type": "function"
				},
				{
					"inputs": [],
					"name": "raisedAmount",
					"outputs": [
						{
							"internalType": "uint256",
							"name": "",
							"type": "uint256"
						}
					],
					"stateMutability": "view",
					"type": "function"
				},
				{
					"inputs": [],
					"name": "refund",
					"outputs": [],
					"stateMutability": "nonpayable",
					"type": "function"
				},
				{
					"inputs": [
						{
							"internalType": "uint256",
							"name": "",
							"type": "uint256"
						}
					],
					"name": "requests",
					"outputs": [
						{
							"internalType": "string",
							"name": "description",
							"type": "string"
						},
						{
							"internalType": "address payable",
							"name": "recipient",
							"type": "address"
						},
						{
							"internalType": "uint256",
							"name": "value",
							"type": "uint256"
						},
						{
							"internalType": "bool",
							"name": "completed",
							"type": "bool"
						},
						{
							"internalType": "uint256",
							"name": "noOfVoters",
							"type": "uint256"
						}
					],
					"stateMutability": "view",
					"type": "function"
				},
				{
					"inputs": [],
					"name": "target",
					"outputs": [
						{
							"internalType": "uint256",
							"name": "",
							"type": "uint256"
						}
					],
					"stateMutability": "view",
					"type": "function"
				},
				{
					"inputs": [
						{
							"internalType": "uint256",
							"name": "_requestNo",
							"type": "uint256"
						}
					],
					"name": "voteRequest",
					"outputs": [],
					"stateMutability": "nonpayable",
					"type": "function"
				}
			],
			"devdoc": {
				"kind": "dev",
				"methods": {},
				"version": 1
			},
			"evm": {
				"assembly": "    /* \"contracts/crowdfunding.sol\":107:3048  contract CrowdFunding{... */\n  mstore(0x40, 0x80)\n    /* \"contracts/crowdfunding.sol\":658:852  constructor(uint _target, uint _deadline ){... */\n  callvalue\n  dup1\n  iszero\n  tag_1\n  jumpi\n  0x00\n  dup1\n  revert\ntag_1:\n  pop\n  mload(0x40)\n  sub(codesize, bytecodeSize)\n  dup1\n  bytecodeSize\n  dup4\n  codecopy\n  dup2\n  dup2\n  add\n  0x40\n  mstore\n  dup2\n  add\n  swap1\n  tag_2\n  swap2\n  swap1\n  tag_3\n  jump\t// in\ntag_2:\n    /* \"contracts/crowdfunding.sol\":720:727  _target */\n  dup2\n    /* \"contracts/crowdfunding.sol\":711:717  target */\n  0x06\n    /* \"contracts/crowdfunding.sol\":711:727  target = _target */\n  dup2\n  swap1\n  sstore\n  pop\n    /* \"contracts/crowdfunding.sol\":765:774  _deadline */\n  dup1\n    /* \"contracts/crowdfunding.sol\":749:764  block.timestamp */\n  timestamp\n    /* \"contracts/crowdfunding.sol\":749:774  block.timestamp+_deadline */\n  tag_6\n  swap2\n  swap1\n  tag_7\n  jump\t// in\ntag_6:\n    /* \"contracts/crowdfunding.sol\":738:746  deadline */\n  0x05\n    /* \"contracts/crowdfunding.sol\":738:774  deadline = block.timestamp+_deadline */\n  dup2\n  swap1\n  sstore\n  pop\n    /* \"contracts/crowdfunding.sol\":805:811  10 wei */\n  0x0a\n    /* \"contracts/crowdfunding.sol\":785:804  minimumContribution */\n  0x04\n    /* \"contracts/crowdfunding.sol\":785:811  minimumContribution=10 wei */\n  dup2\n  swap1\n  sstore\n  pop\n    /* \"contracts/crowdfunding.sol\":832:842  msg.sender */\n  caller\n    /* \"contracts/crowdfunding.sol\":822:829  manager */\n  0x03\n  0x00\n    /* \"contracts/crowdfunding.sol\":822:842  manager = msg.sender */\n  0x0100\n  exp\n  dup2\n  sload\n  dup2\n  0xffffffffffffffffffffffffffffffffffffffff\n  mul\n  not\n  and\n  swap1\n  dup4\n  0xffffffffffffffffffffffffffffffffffffffff\n  and\n  mul\n  or\n  swap1\n  sstore\n  pop\n    /* \"contracts/crowdfunding.sol\":658:852  constructor(uint _target, uint _deadline ){... */\n  pop\n  pop\n    /* \"contracts/crowdfunding.sol\":107:3048  contract CrowdFunding{... */\n  jump(tag_8)\n    /* \"#utility.yul\":88:205   */\ntag_10:\n    /* \"#utility.yul\":197:198   */\n  0x00\n    /* \"#utility.yul\":194:195   */\n  dup1\n    /* \"#utility.yul\":187:199   */\n  revert\n    /* \"#utility.yul\":334:411   */\ntag_12:\n    /* \"#utility.yul\":371:378   */\n  0x00\n    /* \"#utility.yul\":400:405   */\n  dup2\n    /* \"#utility.yul\":389:405   */\n  swap1\n  pop\n    /* \"#utility.yul\":334:411   */\n  swap2\n  swap1\n  pop\n  jump\t// out\n    /* \"#utility.yul\":417:539   */\ntag_13:\n    /* \"#utility.yul\":490:514   */\n  tag_22\n    /* \"#utility.yul\":508:513   */\n  dup2\n    /* \"#utility.yul\":490:514   */\n  tag_12\n  jump\t// in\ntag_22:\n    /* \"#utility.yul\":483:488   */\n  dup2\n    /* \"#utility.yul\":480:515   */\n  eq\n    /* \"#utility.yul\":470:533   */\n  tag_23\n  jumpi\n    /* \"#utility.yul\":529:530   */\n  0x00\n    /* \"#utility.yul\":526:527   */\n  dup1\n    /* \"#utility.yul\":519:531   */\n  revert\n    /* \"#utility.yul\":470:533   */\ntag_23:\n    /* \"#utility.yul\":417:539   */\n  pop\n  jump\t// out\n    /* \"#utility.yul\":545:688   */\ntag_14:\n    /* \"#utility.yul\":602:607   */\n  0x00\n    /* \"#utility.yul\":633:639   */\n  dup2\n    /* \"#utility.yul\":627:640   */\n  mload\n    /* \"#utility.yul\":618:640   */\n  swap1\n  pop\n    /* \"#utility.yul\":649:682   */\n  tag_25\n    /* \"#utility.yul\":676:681   */\n  dup2\n    /* \"#utility.yul\":649:682   */\n  tag_13\n  jump\t// in\ntag_25:\n    /* \"#utility.yul\":545:688   */\n  swap3\n  swap2\n  pop\n  pop\n  jump\t// out\n    /* \"#utility.yul\":694:1201   */\ntag_3:\n    /* \"#utility.yul\":773:779   */\n  0x00\n    /* \"#utility.yul\":781:787   */\n  dup1\n    /* \"#utility.yul\":830:832   */\n  0x40\n    /* \"#utility.yul\":818:827   */\n  dup4\n    /* \"#utility.yul\":809:816   */\n  dup6\n    /* \"#utility.yul\":805:828   */\n  sub\n    /* \"#utility.yul\":801:833   */\n  slt\n    /* \"#utility.yul\":798:917   */\n  iszero\n  tag_27\n  jumpi\n    /* \"#utility.yul\":836:915   */\n  tag_28\n  tag_10\n  jump\t// in\ntag_28:\n    /* \"#utility.yul\":798:917   */\ntag_27:\n    /* \"#utility.yul\":956:957   */\n  0x00\n    /* \"#utility.yul\":981:1045   */\n  tag_29\n    /* \"#utility.yul\":1037:1044   */\n  dup6\n    /* \"#utility.yul\":1028:1034   */\n  dup3\n    /* \"#utility.yul\":1017:1026   */\n  dup7\n    /* \"#utility.yul\":1013:1035   */\n  add\n    /* \"#utility.yul\":981:1045   */\n  tag_14\n  jump\t// in\ntag_29:\n    /* \"#utility.yul\":971:1045   */\n  swap3\n  pop\n    /* \"#utility.yul\":927:1055   */\n  pop\n    /* \"#utility.yul\":1094:1096   */\n  0x20\n    /* \"#utility.yul\":1120:1184   */\n  tag_30\n    /* \"#utility.yul\":1176:1183   */\n  dup6\n    /* \"#utility.yul\":1167:1173   */\n  dup3\n    /* \"#utility.yul\":1156:1165   */\n  dup7\n    /* \"#utility.yul\":1152:1174   */\n  add\n    /* \"#utility.yul\":1120:1184   */\n  tag_14\n  jump\t// in\ntag_30:\n    /* \"#utility.yul\":1110:1184   */\n  swap2\n  pop\n    /* \"#utility.yul\":1065:1194   */\n  pop\n    /* \"#utility.yul\":694:1201   */\n  swap3\n  pop\n  swap3\n  swap1\n  pop\n  jump\t// out\n    /* \"#utility.yul\":1207:1387   */\ntag_15:\n    /* \"#utility.yul\":1255:1332   */\n  0x4e487b7100000000000000000000000000000000000000000000000000000000\n    /* \"#utility.yul\":1252:1253   */\n  0x00\n    /* \"#utility.yul\":1245:1333   */\n  mstore\n    /* \"#utility.yul\":1352:1356   */\n  0x11\n    /* \"#utility.yul\":1349:1350   */\n  0x04\n    /* \"#utility.yul\":1342:1357   */\n  mstore\n    /* \"#utility.yul\":1376:1380   */\n  0x24\n    /* \"#utility.yul\":1373:1374   */\n  0x00\n    /* \"#utility.yul\":1366:1381   */\n  revert\n    /* \"#utility.yul\":1393:1584   */\ntag_7:\n    /* \"#utility.yul\":1433:1436   */\n  0x00\n    /* \"#utility.yul\":1452:1472   */\n  tag_33\n    /* \"#utility.yul\":1470:1471   */\n  dup3\n    /* \"#utility.yul\":1452:1472   */\n  tag_12\n  jump\t// in\ntag_33:\n    /* \"#utility.yul\":1447:1472   */\n  swap2\n  pop\n    /* \"#utility.yul\":1486:1506   */\n  tag_34\n    /* \"#utility.yul\":1504:1505   */\n  dup4\n    /* \"#utility.yul\":1486:1506   */\n  tag_12\n  jump\t// in\ntag_34:\n    /* \"#utility.yul\":1481:1506   */\n  swap3\n  pop\n    /* \"#utility.yul\":1529:1530   */\n  dup3\n    /* \"#utility.yul\":1526:1527   */\n  dup3\n    /* \"#utility.yul\":1522:1531   */\n  add\n    /* \"#utility.yul\":1515:1531   */\n  swap1\n  pop\n    /* \"#utility.yul\":1550:1553   */\n  dup1\n    /* \"#utility.yul\":1547:1548   */\n  dup3\n    /* \"#utility.yul\":1544:1554   */\n  gt\n    /* \"#utility.yul\":1541:1577   */\n  iszero\n  tag_35\n  jumpi\n    /* \"#utility.yul\":1557:1575   */\n  tag_36\n  tag_15\n  jump\t// in\ntag_36:\n    /* \"#utility.yul\":1541:1577   */\ntag_35:\n    /* \"#utility.yul\":1393:1584   */\n  swap3\n  swap2\n  pop\n  pop\n  jump\t// out\n    /* \"contracts/crowdfunding.sol\":107:3048  contract CrowdFunding{... */\ntag_8:\n  dataSize(sub_0)\n  dup1\n  dataOffset(sub_0)\n  0x00\n  codecopy\n  0x00\n  return\nstop\n\nsub_0: assembly {\n        /* \"contracts/crowdfunding.sol\":107:3048  contract CrowdFunding{... */\n      mstore(0x40, 0x80)\n      jumpi(tag_1, lt(calldatasize, 0x04))\n      shr(0xe0, calldataload(0x00))\n      dup1\n      0x5114cb52\n      gt\n      tag_17\n      jumpi\n      dup1\n      0x937e09b1\n      gt\n      tag_18\n      jumpi\n      dup1\n      0x937e09b1\n      eq\n      tag_13\n      jumpi\n      dup1\n      0x9fb42b1f\n      eq\n      tag_14\n      jumpi\n      dup1\n      0xc59ee1dc\n      eq\n      tag_15\n      jumpi\n      dup1\n      0xd4b83992\n      eq\n      tag_16\n      jumpi\n      jump(tag_1)\n    tag_18:\n      dup1\n      0x5114cb52\n      eq\n      tag_9\n      jumpi\n      dup1\n      0x590e1ae3\n      eq\n      tag_10\n      jumpi\n      dup1\n      0x6f9fb98a\n      eq\n      tag_11\n      jumpi\n      dup1\n      0x81d12c58\n      eq\n      tag_12\n      jumpi\n      jump(tag_1)\n    tag_17:\n      dup1\n      0x3eb7647b\n      gt\n      tag_19\n      jumpi\n      dup1\n      0x3eb7647b\n      eq\n      tag_5\n      jumpi\n      dup1\n      0x481c6a75\n      eq\n      tag_6\n      jumpi\n      dup1\n      0x4cb6f4a5\n      eq\n      tag_7\n      jumpi\n      dup1\n      0x50520b1f\n      eq\n      tag_8\n      jumpi\n      jump(tag_1)\n    tag_19:\n      dup1\n      0x24274ee9\n      eq\n      tag_2\n      jumpi\n      dup1\n      0x29dcb0cf\n      eq\n      tag_3\n      jumpi\n      dup1\n      0x34b66460\n      eq\n      tag_4\n      jumpi\n    tag_1:\n      0x00\n      dup1\n      revert\n        /* \"contracts/crowdfunding.sol\":621:649  uint public noOfContributers */\n    tag_2:\n      callvalue\n      dup1\n      iszero\n      tag_20\n      jumpi\n      0x00\n      dup1\n      revert\n    tag_20:\n      pop\n      tag_21\n      tag_22\n      jump\t// in\n    tag_21:\n      mload(0x40)\n      tag_23\n      swap2\n      swap1\n      tag_24\n      jump\t// in\n    tag_23:\n      mload(0x40)\n      dup1\n      swap2\n      sub\n      swap1\n      return\n        /* \"contracts/crowdfunding.sol\":538:558  uint public deadline */\n    tag_3:\n      callvalue\n      dup1\n      iszero\n      tag_25\n      jumpi\n      0x00\n      dup1\n      revert\n    tag_25:\n      pop\n      tag_26\n      tag_27\n      jump\t// in\n    tag_26:\n      mload(0x40)\n      tag_28\n      swap2\n      swap1\n      tag_24\n      jump\t// in\n    tag_28:\n      mload(0x40)\n      dup1\n      swap2\n      sub\n      swap1\n      return\n        /* \"contracts/crowdfunding.sol\":345:387  mapping(address=>uint) public contributers */\n    tag_4:\n      callvalue\n      dup1\n      iszero\n      tag_29\n      jumpi\n      0x00\n      dup1\n      revert\n    tag_29:\n      pop\n      tag_30\n      0x04\n      dup1\n      calldatasize\n      sub\n      dup2\n      add\n      swap1\n      tag_31\n      swap2\n      swap1\n      tag_32\n      jump\t// in\n    tag_31:\n      tag_33\n      jump\t// in\n    tag_30:\n      mload(0x40)\n      tag_34\n      swap2\n      swap1\n      tag_24\n      jump\t// in\n    tag_34:\n      mload(0x40)\n      dup1\n      swap2\n      sub\n      swap1\n      return\n        /* \"contracts/crowdfunding.sol\":970:1383  function createRequests(string calldata _description, address payable _recipient, uint _value ) public onlyManager{ ... */\n    tag_5:\n      callvalue\n      dup1\n      iszero\n      tag_35\n      jumpi\n      0x00\n      dup1\n      revert\n    tag_35:\n      pop\n      tag_36\n      0x04\n      dup1\n      calldatasize\n      sub\n      dup2\n      add\n      swap1\n      tag_37\n      swap2\n      swap1\n      tag_38\n      jump\t// in\n    tag_37:\n      tag_39\n      jump\t// in\n    tag_36:\n      stop\n        /* \"contracts/crowdfunding.sol\":471:493  address public manager */\n    tag_6:\n      callvalue\n      dup1\n      iszero\n      tag_40\n      jumpi\n      0x00\n      dup1\n      revert\n    tag_40:\n      pop\n      tag_41\n      tag_42\n      jump\t// in\n    tag_41:\n      mload(0x40)\n      tag_43\n      swap2\n      swap1\n      tag_44\n      jump\t// in\n    tag_43:\n      mload(0x40)\n      dup1\n      swap2\n      sub\n      swap1\n      return\n        /* \"contracts/crowdfunding.sol\":2210:2560  function voteRequest(uint _requestNo) public{... */\n    tag_7:\n      callvalue\n      dup1\n      iszero\n      tag_45\n      jumpi\n      0x00\n      dup1\n      revert\n    tag_45:\n      pop\n      tag_46\n      0x04\n      dup1\n      calldatasize\n      sub\n      dup2\n      add\n      swap1\n      tag_47\n      swap2\n      swap1\n      tag_48\n      jump\t// in\n    tag_47:\n      tag_49\n      jump\t// in\n    tag_46:\n      stop\n        /* \"contracts/crowdfunding.sol\":1391:1775  function contribution() public payable{... */\n    tag_8:\n      tag_50\n      tag_51\n      jump\t// in\n    tag_50:\n      stop\n        /* \"contracts/crowdfunding.sol\":2568:3045  function makePayment(uint _requestNo) public onlyManager{... */\n    tag_9:\n      callvalue\n      dup1\n      iszero\n      tag_52\n      jumpi\n      0x00\n      dup1\n      revert\n    tag_52:\n      pop\n      tag_53\n      0x04\n      dup1\n      calldatasize\n      sub\n      dup2\n      add\n      swap1\n      tag_54\n      swap2\n      swap1\n      tag_48\n      jump\t// in\n    tag_54:\n      tag_55\n      jump\t// in\n    tag_53:\n      stop\n        /* \"contracts/crowdfunding.sol\":1894:2202  function refund() public{... */\n    tag_10:\n      callvalue\n      dup1\n      iszero\n      tag_56\n      jumpi\n      0x00\n      dup1\n      revert\n    tag_56:\n      pop\n      tag_57\n      tag_58\n      jump\t// in\n    tag_57:\n      stop\n        /* \"contracts/crowdfunding.sol\":1783:1886  function getContractBalance() public view returns (uint){... */\n    tag_11:\n      callvalue\n      dup1\n      iszero\n      tag_59\n      jumpi\n      0x00\n      dup1\n      revert\n    tag_59:\n      pop\n      tag_60\n      tag_61\n      jump\t// in\n    tag_60:\n      mload(0x40)\n      tag_62\n      swap2\n      swap1\n      tag_24\n      jump\t// in\n    tag_62:\n      mload(0x40)\n      dup1\n      swap2\n      sub\n      swap1\n      return\n        /* \"contracts/crowdfunding.sol\":394:434  mapping (uint=> Request) public requests */\n    tag_12:\n      callvalue\n      dup1\n      iszero\n      tag_63\n      jumpi\n      0x00\n      dup1\n      revert\n    tag_63:\n      pop\n      tag_64\n      0x04\n      dup1\n      calldatasize\n      sub\n      dup2\n      add\n      swap1\n      tag_65\n      swap2\n      swap1\n      tag_48\n      jump\t// in\n    tag_65:\n      tag_66\n      jump\t// in\n    tag_64:\n      mload(0x40)\n      tag_67\n      swap6\n      swap5\n      swap4\n      swap3\n      swap2\n      swap1\n      tag_68\n      jump\t// in\n    tag_67:\n      mload(0x40)\n      dup1\n      swap2\n      sub\n      swap1\n      return\n        /* \"contracts/crowdfunding.sol\":500:531  uint public minimumContribution */\n    tag_13:\n      callvalue\n      dup1\n      iszero\n      tag_69\n      jumpi\n      0x00\n      dup1\n      revert\n    tag_69:\n      pop\n      tag_70\n      tag_71\n      jump\t// in\n    tag_70:\n      mload(0x40)\n      tag_72\n      swap2\n      swap1\n      tag_24\n      jump\t// in\n    tag_72:\n      mload(0x40)\n      dup1\n      swap2\n      sub\n      swap1\n      return\n        /* \"contracts/crowdfunding.sol\":441:464  uint public numRequests */\n    tag_14:\n      callvalue\n      dup1\n      iszero\n      tag_73\n      jumpi\n      0x00\n      dup1\n      revert\n    tag_73:\n      pop\n      tag_74\n      tag_75\n      jump\t// in\n    tag_74:\n      mload(0x40)\n      tag_76\n      swap2\n      swap1\n      tag_24\n      jump\t// in\n    tag_76:\n      mload(0x40)\n      dup1\n      swap2\n      sub\n      swap1\n      return\n        /* \"contracts/crowdfunding.sol\":590:614  uint public raisedAmount */\n    tag_15:\n      callvalue\n      dup1\n      iszero\n      tag_77\n      jumpi\n      0x00\n      dup1\n      revert\n    tag_77:\n      pop\n      tag_78\n      tag_79\n      jump\t// in\n    tag_78:\n      mload(0x40)\n      tag_80\n      swap2\n      swap1\n      tag_24\n      jump\t// in\n    tag_80:\n      mload(0x40)\n      dup1\n      swap2\n      sub\n      swap1\n      return\n        /* \"contracts/crowdfunding.sol\":565:583  uint public target */\n    tag_16:\n      callvalue\n      dup1\n      iszero\n      tag_81\n      jumpi\n      0x00\n      dup1\n      revert\n    tag_81:\n      pop\n      tag_82\n      tag_83\n      jump\t// in\n    tag_82:\n      mload(0x40)\n      tag_84\n      swap2\n      swap1\n      tag_24\n      jump\t// in\n    tag_84:\n      mload(0x40)\n      dup1\n      swap2\n      sub\n      swap1\n      return\n        /* \"contracts/crowdfunding.sol\":621:649  uint public noOfContributers */\n    tag_22:\n      sload(0x08)\n      dup2\n      jump\t// out\n        /* \"contracts/crowdfunding.sol\":538:558  uint public deadline */\n    tag_27:\n      sload(0x05)\n      dup2\n      jump\t// out\n        /* \"contracts/crowdfunding.sol\":345:387  mapping(address=>uint) public contributers */\n    tag_33:\n      mstore(0x20, 0x00)\n      dup1\n      0x00\n      mstore\n      keccak256(0x00, 0x40)\n      0x00\n      swap2\n      pop\n      swap1\n      pop\n      sload\n      dup2\n      jump\t// out\n        /* \"contracts/crowdfunding.sol\":970:1383  function createRequests(string calldata _description, address payable _recipient, uint _value ) public onlyManager{ ... */\n    tag_39:\n        /* \"contracts/crowdfunding.sol\":913:920  manager */\n      0x03\n      0x00\n      swap1\n      sload\n      swap1\n      0x0100\n      exp\n      swap1\n      div\n      0xffffffffffffffffffffffffffffffffffffffff\n      and\n        /* \"contracts/crowdfunding.sol\":901:920  msg.sender==manager */\n      0xffffffffffffffffffffffffffffffffffffffff\n      and\n        /* \"contracts/crowdfunding.sol\":901:911  msg.sender */\n      caller\n        /* \"contracts/crowdfunding.sol\":901:920  msg.sender==manager */\n      0xffffffffffffffffffffffffffffffffffffffff\n      and\n      eq\n        /* \"contracts/crowdfunding.sol\":893:944  require(msg.sender==manager, \"you are not manager\") */\n      tag_86\n      jumpi\n      mload(0x40)\n      0x08c379a000000000000000000000000000000000000000000000000000000000\n      dup2\n      mstore\n      0x04\n      add\n      tag_87\n      swap1\n      tag_88\n      jump\t// in\n    tag_87:\n      mload(0x40)\n      dup1\n      swap2\n      sub\n      swap1\n      revert\n    tag_86:\n        /* \"contracts/crowdfunding.sol\":1096:1122  Request storage newRequest */\n      0x00\n        /* \"contracts/crowdfunding.sol\":1125:1133  requests */\n      0x01\n        /* \"contracts/crowdfunding.sol\":1125:1146  requests[numRequests] */\n      0x00\n        /* \"contracts/crowdfunding.sol\":1134:1145  numRequests */\n      sload(0x02)\n        /* \"contracts/crowdfunding.sol\":1125:1146  requests[numRequests] */\n      dup2\n      mstore\n      0x20\n      add\n      swap1\n      dup2\n      mstore\n      0x20\n      add\n      0x00\n      keccak256\n        /* \"contracts/crowdfunding.sol\":1096:1146  Request storage newRequest = requests[numRequests] */\n      swap1\n      pop\n        /* \"contracts/crowdfunding.sol\":1157:1168  numRequests */\n      0x02\n      0x00\n        /* \"contracts/crowdfunding.sol\":1157:1170  numRequests++ */\n      dup2\n      sload\n      dup1\n      swap3\n      swap2\n      swap1\n      tag_90\n      swap1\n      tag_91\n      jump\t// in\n    tag_90:\n      swap2\n      swap1\n      pop\n      sstore\n      pop\n        /* \"contracts/crowdfunding.sol\":1206:1218  _description */\n      dup5\n      dup5\n        /* \"contracts/crowdfunding.sol\":1181:1191  newRequest */\n      dup3\n        /* \"contracts/crowdfunding.sol\":1181:1203  newRequest.description */\n      0x00\n      add\n        /* \"contracts/crowdfunding.sol\":1181:1218  newRequest.description = _description */\n      swap2\n      dup3\n      tag_92\n      swap3\n      swap2\n      swap1\n      tag_93\n      jump\t// in\n    tag_92:\n      pop\n        /* \"contracts/crowdfunding.sol\":1252:1262  _recipient */\n      dup3\n        /* \"contracts/crowdfunding.sol\":1229:1239  newRequest */\n      dup2\n        /* \"contracts/crowdfunding.sol\":1229:1249  newRequest.recipient */\n      0x01\n      add\n      0x00\n        /* \"contracts/crowdfunding.sol\":1229:1262  newRequest.recipient = _recipient */\n      0x0100\n      exp\n      dup2\n      sload\n      dup2\n      0xffffffffffffffffffffffffffffffffffffffff\n      mul\n      not\n      and\n      swap1\n      dup4\n      0xffffffffffffffffffffffffffffffffffffffff\n      and\n      mul\n      or\n      swap1\n      sstore\n      pop\n        /* \"contracts/crowdfunding.sol\":1292:1298  _value */\n      dup2\n        /* \"contracts/crowdfunding.sol\":1273:1283  newRequest */\n      dup2\n        /* \"contracts/crowdfunding.sol\":1273:1289  newRequest.value */\n      0x02\n      add\n        /* \"contracts/crowdfunding.sol\":1273:1298  newRequest.value = _value */\n      dup2\n      swap1\n      sstore\n      pop\n        /* \"contracts/crowdfunding.sol\":1332:1337  false */\n      0x00\n        /* \"contracts/crowdfunding.sol\":1309:1319  newRequest */\n      dup2\n        /* \"contracts/crowdfunding.sol\":1309:1329  newRequest.completed */\n      0x03\n      add\n      0x00\n        /* \"contracts/crowdfunding.sol\":1309:1337  newRequest.completed = false */\n      0x0100\n      exp\n      dup2\n      sload\n      dup2\n      0xff\n      mul\n      not\n      and\n      swap1\n      dup4\n      iszero\n      iszero\n      mul\n      or\n      swap1\n      sstore\n      pop\n        /* \"contracts/crowdfunding.sol\":1372:1373  0 */\n      0x00\n        /* \"contracts/crowdfunding.sol\":1348:1358  newRequest */\n      dup2\n        /* \"contracts/crowdfunding.sol\":1348:1369  newRequest.noOfVoters */\n      0x04\n      add\n        /* \"contracts/crowdfunding.sol\":1348:1373  newRequest.noOfVoters = 0 */\n      dup2\n      swap1\n      sstore\n      pop\n        /* \"contracts/crowdfunding.sol\":1084:1383  { ... */\n      pop\n        /* \"contracts/crowdfunding.sol\":970:1383  function createRequests(string calldata _description, address payable _recipient, uint _value ) public onlyManager{ ... */\n      pop\n      pop\n      pop\n      pop\n      jump\t// out\n        /* \"contracts/crowdfunding.sol\":471:493  address public manager */\n    tag_42:\n      0x03\n      0x00\n      swap1\n      sload\n      swap1\n      0x0100\n      exp\n      swap1\n      div\n      0xffffffffffffffffffffffffffffffffffffffff\n      and\n      dup2\n      jump\t// out\n        /* \"contracts/crowdfunding.sol\":2210:2560  function voteRequest(uint _requestNo) public{... */\n    tag_49:\n        /* \"contracts/crowdfunding.sol\":2298:2299  0 */\n      0x00\n        /* \"contracts/crowdfunding.sol\":2273:2285  contributers */\n      dup1\n        /* \"contracts/crowdfunding.sol\":2273:2297  contributers[msg.sender] */\n      0x00\n        /* \"contracts/crowdfunding.sol\":2286:2296  msg.sender */\n      caller\n        /* \"contracts/crowdfunding.sol\":2273:2297  contributers[msg.sender] */\n      0xffffffffffffffffffffffffffffffffffffffff\n      and\n      0xffffffffffffffffffffffffffffffffffffffff\n      and\n      dup2\n      mstore\n      0x20\n      add\n      swap1\n      dup2\n      mstore\n      0x20\n      add\n      0x00\n      keccak256\n      sload\n        /* \"contracts/crowdfunding.sol\":2273:2299  contributers[msg.sender]>0 */\n      gt\n        /* \"contracts/crowdfunding.sol\":2265:2328  require(contributers[msg.sender]>0,\"You are not a contributer\") */\n      tag_95\n      jumpi\n      mload(0x40)\n      0x08c379a000000000000000000000000000000000000000000000000000000000\n      dup2\n      mstore\n      0x04\n      add\n      tag_96\n      swap1\n      tag_97\n      jump\t// in\n    tag_96:\n      mload(0x40)\n      dup1\n      swap2\n      sub\n      swap1\n      revert\n    tag_95:\n        /* \"contracts/crowdfunding.sol\":2339:2366  Request storage thisRequest */\n      0x00\n        /* \"contracts/crowdfunding.sol\":2369:2377  requests */\n      0x01\n        /* \"contracts/crowdfunding.sol\":2369:2389  requests[_requestNo] */\n      0x00\n        /* \"contracts/crowdfunding.sol\":2378:2388  _requestNo */\n      dup4\n        /* \"contracts/crowdfunding.sol\":2369:2389  requests[_requestNo] */\n      dup2\n      mstore\n      0x20\n      add\n      swap1\n      dup2\n      mstore\n      0x20\n      add\n      0x00\n      keccak256\n        /* \"contracts/crowdfunding.sol\":2339:2389  Request storage thisRequest = requests[_requestNo] */\n      swap1\n      pop\n        /* \"contracts/crowdfunding.sol\":2440:2445  false */\n      0x00\n        /* \"contracts/crowdfunding.sol\":2408:2445  thisRequest.voters[msg.sender]==false */\n      iszero\n      iszero\n        /* \"contracts/crowdfunding.sol\":2408:2419  thisRequest */\n      dup2\n        /* \"contracts/crowdfunding.sol\":2408:2426  thisRequest.voters */\n      0x05\n      add\n        /* \"contracts/crowdfunding.sol\":2408:2438  thisRequest.voters[msg.sender] */\n      0x00\n        /* \"contracts/crowdfunding.sol\":2427:2437  msg.sender */\n      caller\n        /* \"contracts/crowdfunding.sol\":2408:2438  thisRequest.voters[msg.sender] */\n      0xffffffffffffffffffffffffffffffffffffffff\n      and\n      0xffffffffffffffffffffffffffffffffffffffff\n      and\n      dup2\n      mstore\n      0x20\n      add\n      swap1\n      dup2\n      mstore\n      0x20\n      add\n      0x00\n      keccak256\n      0x00\n      swap1\n      sload\n      swap1\n      0x0100\n      exp\n      swap1\n      div\n      0xff\n      and\n        /* \"contracts/crowdfunding.sol\":2408:2445  thisRequest.voters[msg.sender]==false */\n      iszero\n      iszero\n      eq\n        /* \"contracts/crowdfunding.sol\":2400:2471  require(thisRequest.voters[msg.sender]==false,\"You have already voted\") */\n      tag_98\n      jumpi\n      mload(0x40)\n      0x08c379a000000000000000000000000000000000000000000000000000000000\n      dup2\n      mstore\n      0x04\n      add\n      tag_99\n      swap1\n      tag_100\n      jump\t// in\n    tag_99:\n      mload(0x40)\n      dup1\n      swap2\n      sub\n      swap1\n      revert\n    tag_98:\n        /* \"contracts/crowdfunding.sol\":2513:2517  true */\n      0x01\n        /* \"contracts/crowdfunding.sol\":2482:2493  thisRequest */\n      dup2\n        /* \"contracts/crowdfunding.sol\":2482:2500  thisRequest.voters */\n      0x05\n      add\n        /* \"contracts/crowdfunding.sol\":2482:2512  thisRequest.voters[msg.sender] */\n      0x00\n        /* \"contracts/crowdfunding.sol\":2501:2511  msg.sender */\n      caller\n        /* \"contracts/crowdfunding.sol\":2482:2512  thisRequest.voters[msg.sender] */\n      0xffffffffffffffffffffffffffffffffffffffff\n      and\n      0xffffffffffffffffffffffffffffffffffffffff\n      and\n      dup2\n      mstore\n      0x20\n      add\n      swap1\n      dup2\n      mstore\n      0x20\n      add\n      0x00\n      keccak256\n      0x00\n        /* \"contracts/crowdfunding.sol\":2482:2517  thisRequest.voters[msg.sender]=true */\n      0x0100\n      exp\n      dup2\n      sload\n      dup2\n      0xff\n      mul\n      not\n      and\n      swap1\n      dup4\n      iszero\n      iszero\n      mul\n      or\n      swap1\n      sstore\n      pop\n        /* \"contracts/crowdfunding.sol\":2528:2539  thisRequest */\n      dup1\n        /* \"contracts/crowdfunding.sol\":2528:2550  thisRequest.noOfVoters */\n      0x04\n      add\n      0x00\n        /* \"contracts/crowdfunding.sol\":2528:2552  thisRequest.noOfVoters++ */\n      dup2\n      sload\n      dup1\n      swap3\n      swap2\n      swap1\n      tag_101\n      swap1\n      tag_91\n      jump\t// in\n    tag_101:\n      swap2\n      swap1\n      pop\n      sstore\n      pop\n        /* \"contracts/crowdfunding.sol\":2254:2560  {... */\n      pop\n        /* \"contracts/crowdfunding.sol\":2210:2560  function voteRequest(uint _requestNo) public{... */\n      pop\n      jump\t// out\n        /* \"contracts/crowdfunding.sol\":1391:1775  function contribution() public payable{... */\n    tag_51:\n        /* \"contracts/crowdfunding.sol\":1464:1472  deadline */\n      sload(0x05)\n        /* \"contracts/crowdfunding.sol\":1448:1463  block.timestamp */\n      timestamp\n        /* \"contracts/crowdfunding.sol\":1448:1472  block.timestamp<deadline */\n      lt\n        /* \"contracts/crowdfunding.sol\":1440:1496  require(block.timestamp<deadline, \"Deadline has passed\") */\n      tag_103\n      jumpi\n      mload(0x40)\n      0x08c379a000000000000000000000000000000000000000000000000000000000\n      dup2\n      mstore\n      0x04\n      add\n      tag_104\n      swap1\n      tag_105\n      jump\t// in\n    tag_104:\n      mload(0x40)\n      dup1\n      swap2\n      sub\n      swap1\n      revert\n    tag_103:\n        /* \"contracts/crowdfunding.sol\":1526:1545  minimumContribution */\n      sload(0x04)\n        /* \"contracts/crowdfunding.sol\":1515:1524  msg.value */\n      callvalue\n        /* \"contracts/crowdfunding.sol\":1515:1545  msg.value>=minimumContribution */\n      lt\n      iszero\n        /* \"contracts/crowdfunding.sol\":1507:1597  require(msg.value>=minimumContribution,\"payment should be more than minimum contribution\") */\n      tag_106\n      jumpi\n      mload(0x40)\n      0x08c379a000000000000000000000000000000000000000000000000000000000\n      dup2\n      mstore\n      0x04\n      add\n      tag_107\n      swap1\n      tag_108\n      jump\t// in\n    tag_107:\n      mload(0x40)\n      dup1\n      swap2\n      sub\n      swap1\n      revert\n    tag_106:\n        /* \"contracts/crowdfunding.sol\":1639:1640  0 */\n      0x00\n        /* \"contracts/crowdfunding.sol\":1613:1625  contributers */\n      dup1\n        /* \"contracts/crowdfunding.sol\":1613:1637  contributers[msg.sender] */\n      0x00\n        /* \"contracts/crowdfunding.sol\":1626:1636  msg.sender */\n      caller\n        /* \"contracts/crowdfunding.sol\":1613:1637  contributers[msg.sender] */\n      0xffffffffffffffffffffffffffffffffffffffff\n      and\n      0xffffffffffffffffffffffffffffffffffffffff\n      and\n      dup2\n      mstore\n      0x20\n      add\n      swap1\n      dup2\n      mstore\n      0x20\n      add\n      0x00\n      keccak256\n      sload\n        /* \"contracts/crowdfunding.sol\":1613:1640  contributers[msg.sender]==0 */\n      sub\n        /* \"contracts/crowdfunding.sol\":1610:1686  if(contributers[msg.sender]==0){... */\n      tag_109\n      jumpi\n        /* \"contracts/crowdfunding.sol\":1656:1672  noOfContributers */\n      0x08\n      0x00\n        /* \"contracts/crowdfunding.sol\":1656:1674  noOfContributers++ */\n      dup2\n      sload\n      dup1\n      swap3\n      swap2\n      swap1\n      tag_110\n      swap1\n      tag_91\n      jump\t// in\n    tag_110:\n      swap2\n      swap1\n      pop\n      sstore\n      pop\n        /* \"contracts/crowdfunding.sol\":1610:1686  if(contributers[msg.sender]==0){... */\n    tag_109:\n        /* \"contracts/crowdfunding.sol\":1722:1731  msg.value */\n      callvalue\n        /* \"contracts/crowdfunding.sol\":1696:1708  contributers */\n      0x00\n        /* \"contracts/crowdfunding.sol\":1696:1720  contributers[msg.sender] */\n      dup1\n        /* \"contracts/crowdfunding.sol\":1709:1719  msg.sender */\n      caller\n        /* \"contracts/crowdfunding.sol\":1696:1720  contributers[msg.sender] */\n      0xffffffffffffffffffffffffffffffffffffffff\n      and\n      0xffffffffffffffffffffffffffffffffffffffff\n      and\n      dup2\n      mstore\n      0x20\n      add\n      swap1\n      dup2\n      mstore\n      0x20\n      add\n      0x00\n      keccak256\n      0x00\n        /* \"contracts/crowdfunding.sol\":1696:1731  contributers[msg.sender]+=msg.value */\n      dup3\n      dup3\n      sload\n      tag_111\n      swap2\n      swap1\n      tag_112\n      jump\t// in\n    tag_111:\n      swap3\n      pop\n      pop\n      dup2\n      swap1\n      sstore\n      pop\n        /* \"contracts/crowdfunding.sol\":1756:1765  msg.value */\n      callvalue\n        /* \"contracts/crowdfunding.sol\":1742:1754  raisedAmount */\n      0x07\n      0x00\n        /* \"contracts/crowdfunding.sol\":1742:1765  raisedAmount+=msg.value */\n      dup3\n      dup3\n      sload\n      tag_113\n      swap2\n      swap1\n      tag_112\n      jump\t// in\n    tag_113:\n      swap3\n      pop\n      pop\n      dup2\n      swap1\n      sstore\n      pop\n        /* \"contracts/crowdfunding.sol\":1391:1775  function contribution() public payable{... */\n      jump\t// out\n        /* \"contracts/crowdfunding.sol\":2568:3045  function makePayment(uint _requestNo) public onlyManager{... */\n    tag_55:\n        /* \"contracts/crowdfunding.sol\":913:920  manager */\n      0x03\n      0x00\n      swap1\n      sload\n      swap1\n      0x0100\n      exp\n      swap1\n      div\n      0xffffffffffffffffffffffffffffffffffffffff\n      and\n        /* \"contracts/crowdfunding.sol\":901:920  msg.sender==manager */\n      0xffffffffffffffffffffffffffffffffffffffff\n      and\n        /* \"contracts/crowdfunding.sol\":901:911  msg.sender */\n      caller\n        /* \"contracts/crowdfunding.sol\":901:920  msg.sender==manager */\n      0xffffffffffffffffffffffffffffffffffffffff\n      and\n      eq\n        /* \"contracts/crowdfunding.sol\":893:944  require(msg.sender==manager, \"you are not manager\") */\n      tag_115\n      jumpi\n      mload(0x40)\n      0x08c379a000000000000000000000000000000000000000000000000000000000\n      dup2\n      mstore\n      0x04\n      add\n      tag_116\n      swap1\n      tag_88\n      jump\t// in\n    tag_116:\n      mload(0x40)\n      dup1\n      swap2\n      sub\n      swap1\n      revert\n    tag_115:\n        /* \"contracts/crowdfunding.sol\":2659:2665  target */\n      sload(0x06)\n        /* \"contracts/crowdfunding.sol\":2643:2655  raisedAmount */\n      sload(0x07)\n        /* \"contracts/crowdfunding.sol\":2643:2665  raisedAmount >= target */\n      lt\n      iszero\n        /* \"contracts/crowdfunding.sol\":2635:2691  require(raisedAmount >= target, \"target is not reached\") */\n      tag_118\n      jumpi\n      mload(0x40)\n      0x08c379a000000000000000000000000000000000000000000000000000000000\n      dup2\n      mstore\n      0x04\n      add\n      tag_119\n      swap1\n      tag_120\n      jump\t// in\n    tag_119:\n      mload(0x40)\n      dup1\n      swap2\n      sub\n      swap1\n      revert\n    tag_118:\n        /* \"contracts/crowdfunding.sol\":2702:2729  Request storage thisRequest */\n      0x00\n        /* \"contracts/crowdfunding.sol\":2732:2740  requests */\n      0x01\n        /* \"contracts/crowdfunding.sol\":2732:2752  requests[_requestNo] */\n      0x00\n        /* \"contracts/crowdfunding.sol\":2741:2751  _requestNo */\n      dup4\n        /* \"contracts/crowdfunding.sol\":2732:2752  requests[_requestNo] */\n      dup2\n      mstore\n      0x20\n      add\n      swap1\n      dup2\n      mstore\n      0x20\n      add\n      0x00\n      keccak256\n        /* \"contracts/crowdfunding.sol\":2702:2752  Request storage thisRequest = requests[_requestNo] */\n      swap1\n      pop\n        /* \"contracts/crowdfunding.sol\":2796:2801  false */\n      0x00\n        /* \"contracts/crowdfunding.sol\":2771:2801  thisRequest.completed == false */\n      iszero\n      iszero\n        /* \"contracts/crowdfunding.sol\":2771:2782  thisRequest */\n      dup2\n        /* \"contracts/crowdfunding.sol\":2771:2792  thisRequest.completed */\n      0x03\n      add\n      0x00\n      swap1\n      sload\n      swap1\n      0x0100\n      exp\n      swap1\n      div\n      0xff\n      and\n        /* \"contracts/crowdfunding.sol\":2771:2801  thisRequest.completed == false */\n      iszero\n      iszero\n      eq\n        /* \"contracts/crowdfunding.sol\":2763:2836  require(thisRequest.completed == false, \"the request has been completed\") */\n      tag_121\n      jumpi\n      mload(0x40)\n      0x08c379a000000000000000000000000000000000000000000000000000000000\n      dup2\n      mstore\n      0x04\n      add\n      tag_122\n      swap1\n      tag_123\n      jump\t// in\n    tag_122:\n      mload(0x40)\n      dup1\n      swap2\n      sub\n      swap1\n      revert\n    tag_121:\n        /* \"contracts/crowdfunding.sol\":2895:2896  2 */\n      0x02\n        /* \"contracts/crowdfunding.sol\":2878:2894  noOfContributers */\n      sload(0x08)\n        /* \"contracts/crowdfunding.sol\":2878:2896  noOfContributers/2 */\n      tag_124\n      swap2\n      swap1\n      tag_125\n      jump\t// in\n    tag_124:\n        /* \"contracts/crowdfunding.sol\":2855:2866  thisRequest */\n      dup2\n        /* \"contracts/crowdfunding.sol\":2855:2877  thisRequest.noOfVoters */\n      0x04\n      add\n      sload\n        /* \"contracts/crowdfunding.sol\":2855:2896  thisRequest.noOfVoters>noOfContributers/2 */\n      gt\n        /* \"contracts/crowdfunding.sol\":2847:2938  require(thisRequest.noOfVoters>noOfContributers/2, \"majority does not support the request\") */\n      tag_126\n      jumpi\n      mload(0x40)\n      0x08c379a000000000000000000000000000000000000000000000000000000000\n      dup2\n      mstore\n      0x04\n      add\n      tag_127\n      swap1\n      tag_128\n      jump\t// in\n    tag_127:\n      mload(0x40)\n      dup1\n      swap2\n      sub\n      swap1\n      revert\n    tag_126:\n        /* \"contracts/crowdfunding.sol\":2949:2960  thisRequest */\n      dup1\n        /* \"contracts/crowdfunding.sol\":2949:2970  thisRequest.recipient */\n      0x01\n      add\n      0x00\n      swap1\n      sload\n      swap1\n      0x0100\n      exp\n      swap1\n      div\n      0xffffffffffffffffffffffffffffffffffffffff\n      and\n        /* \"contracts/crowdfunding.sol\":2949:2979  thisRequest.recipient.transfer */\n      0xffffffffffffffffffffffffffffffffffffffff\n      and\n        /* \"contracts/crowdfunding.sol\":2949:2998  thisRequest.recipient.transfer(thisRequest.value) */\n      0x08fc\n        /* \"contracts/crowdfunding.sol\":2980:2991  thisRequest */\n      dup3\n        /* \"contracts/crowdfunding.sol\":2980:2997  thisRequest.value */\n      0x02\n      add\n      sload\n        /* \"contracts/crowdfunding.sol\":2949:2998  thisRequest.recipient.transfer(thisRequest.value) */\n      swap1\n      dup2\n      iszero\n      mul\n      swap1\n      mload(0x40)\n      0x00\n      mload(0x40)\n      dup1\n      dup4\n      sub\n      dup2\n      dup6\n      dup9\n      dup9\n      call\n      swap4\n      pop\n      pop\n      pop\n      pop\n      iszero\n      dup1\n      iszero\n      tag_130\n      jumpi\n      returndatasize\n      0x00\n      dup1\n      returndatacopy\n      revert(0x00, returndatasize)\n    tag_130:\n      pop\n        /* \"contracts/crowdfunding.sol\":3033:3037  true */\n      0x01\n        /* \"contracts/crowdfunding.sol\":3009:3020  thisRequest */\n      dup2\n        /* \"contracts/crowdfunding.sol\":3009:3030  thisRequest.completed */\n      0x03\n      add\n      0x00\n        /* \"contracts/crowdfunding.sol\":3009:3037  thisRequest.completed = true */\n      0x0100\n      exp\n      dup2\n      sload\n      dup2\n      0xff\n      mul\n      not\n      and\n      swap1\n      dup4\n      iszero\n      iszero\n      mul\n      or\n      swap1\n      sstore\n      pop\n        /* \"contracts/crowdfunding.sol\":2624:3045  {... */\n      pop\n        /* \"contracts/crowdfunding.sol\":2568:3045  function makePayment(uint _requestNo) public onlyManager{... */\n      pop\n      jump\t// out\n        /* \"contracts/crowdfunding.sol\":1894:2202  function refund() public{... */\n    tag_58:\n        /* \"contracts/crowdfunding.sol\":1953:1961  deadline */\n      sload(0x05)\n        /* \"contracts/crowdfunding.sol\":1937:1952  block.timestamp */\n      timestamp\n        /* \"contracts/crowdfunding.sol\":1937:1961  block.timestamp>deadline */\n      gt\n        /* \"contracts/crowdfunding.sol\":1937:1984  block.timestamp>deadline && raisedAmount<target */\n      dup1\n      iszero\n      tag_132\n      jumpi\n      pop\n        /* \"contracts/crowdfunding.sol\":1978:1984  target */\n      sload(0x06)\n        /* \"contracts/crowdfunding.sol\":1965:1977  raisedAmount */\n      sload(0x07)\n        /* \"contracts/crowdfunding.sol\":1965:1984  raisedAmount<target */\n      lt\n        /* \"contracts/crowdfunding.sol\":1937:1984  block.timestamp>deadline && raisedAmount<target */\n    tag_132:\n        /* \"contracts/crowdfunding.sol\":1929:2019  require(block.timestamp>deadline && raisedAmount<target, \"You are not elgible for refund\") */\n      tag_133\n      jumpi\n      mload(0x40)\n      0x08c379a000000000000000000000000000000000000000000000000000000000\n      dup2\n      mstore\n      0x04\n      add\n      tag_134\n      swap1\n      tag_135\n      jump\t// in\n    tag_134:\n      mload(0x40)\n      dup1\n      swap2\n      sub\n      swap1\n      revert\n    tag_133:\n        /* \"contracts/crowdfunding.sol\":2063:2064  0 */\n      0x00\n        /* \"contracts/crowdfunding.sol\":2038:2050  contributers */\n      dup1\n        /* \"contracts/crowdfunding.sol\":2038:2062  contributers[msg.sender] */\n      0x00\n        /* \"contracts/crowdfunding.sol\":2051:2061  msg.sender */\n      caller\n        /* \"contracts/crowdfunding.sol\":2038:2062  contributers[msg.sender] */\n      0xffffffffffffffffffffffffffffffffffffffff\n      and\n      0xffffffffffffffffffffffffffffffffffffffff\n      and\n      dup2\n      mstore\n      0x20\n      add\n      swap1\n      dup2\n      mstore\n      0x20\n      add\n      0x00\n      keccak256\n      sload\n        /* \"contracts/crowdfunding.sol\":2038:2064  contributers[msg.sender]>0 */\n      gt\n        /* \"contracts/crowdfunding.sol\":2030:2092  require(contributers[msg.sender]>0, \"You are not contributor\") */\n      tag_136\n      jumpi\n      mload(0x40)\n      0x08c379a000000000000000000000000000000000000000000000000000000000\n      dup2\n      mstore\n      0x04\n      add\n      tag_137\n      swap1\n      tag_138\n      jump\t// in\n    tag_137:\n      mload(0x40)\n      dup1\n      swap2\n      sub\n      swap1\n      revert\n    tag_136:\n        /* \"contracts/crowdfunding.sol\":2111:2121  msg.sender */\n      caller\n        /* \"contracts/crowdfunding.sol\":2103:2131  payable(msg.sender).transfer */\n      0xffffffffffffffffffffffffffffffffffffffff\n      and\n        /* \"contracts/crowdfunding.sol\":2103:2157  payable(msg.sender).transfer(contributers[msg.sender]) */\n      0x08fc\n        /* \"contracts/crowdfunding.sol\":2132:2144  contributers */\n      0x00\n        /* \"contracts/crowdfunding.sol\":2132:2156  contributers[msg.sender] */\n      dup1\n        /* \"contracts/crowdfunding.sol\":2145:2155  msg.sender */\n      caller\n        /* \"contracts/crowdfunding.sol\":2132:2156  contributers[msg.sender] */\n      0xffffffffffffffffffffffffffffffffffffffff\n      and\n      0xffffffffffffffffffffffffffffffffffffffff\n      and\n      dup2\n      mstore\n      0x20\n      add\n      swap1\n      dup2\n      mstore\n      0x20\n      add\n      0x00\n      keccak256\n      sload\n        /* \"contracts/crowdfunding.sol\":2103:2157  payable(msg.sender).transfer(contributers[msg.sender]) */\n      swap1\n      dup2\n      iszero\n      mul\n      swap1\n      mload(0x40)\n      0x00\n      mload(0x40)\n      dup1\n      dup4\n      sub\n      dup2\n      dup6\n      dup9\n      dup9\n      call\n      swap4\n      pop\n      pop\n      pop\n      pop\n      iszero\n      dup1\n      iszero\n      tag_140\n      jumpi\n      returndatasize\n      0x00\n      dup1\n      returndatacopy\n      revert(0x00, returndatasize)\n    tag_140:\n      pop\n        /* \"contracts/crowdfunding.sol\":2193:2194  0 */\n      0x00\n        /* \"contracts/crowdfunding.sol\":2168:2180  contributers */\n      dup1\n        /* \"contracts/crowdfunding.sol\":2168:2192  contributers[msg.sender] */\n      0x00\n        /* \"contracts/crowdfunding.sol\":2181:2191  msg.sender */\n      caller\n        /* \"contracts/crowdfunding.sol\":2168:2192  contributers[msg.sender] */\n      0xffffffffffffffffffffffffffffffffffffffff\n      and\n      0xffffffffffffffffffffffffffffffffffffffff\n      and\n      dup2\n      mstore\n      0x20\n      add\n      swap1\n      dup2\n      mstore\n      0x20\n      add\n      0x00\n      keccak256\n        /* \"contracts/crowdfunding.sol\":2168:2194  contributers[msg.sender]=0 */\n      dup2\n      swap1\n      sstore\n      pop\n        /* \"contracts/crowdfunding.sol\":1894:2202  function refund() public{... */\n      jump\t// out\n        /* \"contracts/crowdfunding.sol\":1783:1886  function getContractBalance() public view returns (uint){... */\n    tag_61:\n        /* \"contracts/crowdfunding.sol\":1834:1838  uint */\n      0x00\n        /* \"contracts/crowdfunding.sol\":1857:1878  address(this).balance */\n      selfbalance\n        /* \"contracts/crowdfunding.sol\":1850:1878  return address(this).balance */\n      swap1\n      pop\n        /* \"contracts/crowdfunding.sol\":1783:1886  function getContractBalance() public view returns (uint){... */\n      swap1\n      jump\t// out\n        /* \"contracts/crowdfunding.sol\":394:434  mapping (uint=> Request) public requests */\n    tag_66:\n      mstore(0x20, 0x01)\n      dup1\n      0x00\n      mstore\n      keccak256(0x00, 0x40)\n      0x00\n      swap2\n      pop\n      swap1\n      pop\n      dup1\n      0x00\n      add\n      dup1\n      sload\n      tag_142\n      swap1\n      tag_143\n      jump\t// in\n    tag_142:\n      dup1\n      0x1f\n      add\n      0x20\n      dup1\n      swap2\n      div\n      mul\n      0x20\n      add\n      mload(0x40)\n      swap1\n      dup2\n      add\n      0x40\n      mstore\n      dup1\n      swap3\n      swap2\n      swap1\n      dup2\n      dup2\n      mstore\n      0x20\n      add\n      dup3\n      dup1\n      sload\n      tag_144\n      swap1\n      tag_143\n      jump\t// in\n    tag_144:\n      dup1\n      iszero\n      tag_145\n      jumpi\n      dup1\n      0x1f\n      lt\n      tag_146\n      jumpi\n      0x0100\n      dup1\n      dup4\n      sload\n      div\n      mul\n      dup4\n      mstore\n      swap2\n      0x20\n      add\n      swap2\n      jump(tag_145)\n    tag_146:\n      dup3\n      add\n      swap2\n      swap1\n      0x00\n      mstore\n      keccak256(0x00, 0x20)\n      swap1\n    tag_147:\n      dup2\n      sload\n      dup2\n      mstore\n      swap1\n      0x01\n      add\n      swap1\n      0x20\n      add\n      dup1\n      dup4\n      gt\n      tag_147\n      jumpi\n      dup3\n      swap1\n      sub\n      0x1f\n      and\n      dup3\n      add\n      swap2\n    tag_145:\n      pop\n      pop\n      pop\n      pop\n      pop\n      swap1\n      dup1\n      0x01\n      add\n      0x00\n      swap1\n      sload\n      swap1\n      0x0100\n      exp\n      swap1\n      div\n      0xffffffffffffffffffffffffffffffffffffffff\n      and\n      swap1\n      dup1\n      0x02\n      add\n      sload\n      swap1\n      dup1\n      0x03\n      add\n      0x00\n      swap1\n      sload\n      swap1\n      0x0100\n      exp\n      swap1\n      div\n      0xff\n      and\n      swap1\n      dup1\n      0x04\n      add\n      sload\n      swap1\n      pop\n      dup6\n      jump\t// out\n        /* \"contracts/crowdfunding.sol\":500:531  uint public minimumContribution */\n    tag_71:\n      sload(0x04)\n      dup2\n      jump\t// out\n        /* \"contracts/crowdfunding.sol\":441:464  uint public numRequests */\n    tag_75:\n      sload(0x02)\n      dup2\n      jump\t// out\n        /* \"contracts/crowdfunding.sol\":590:614  uint public raisedAmount */\n    tag_79:\n      sload(0x07)\n      dup2\n      jump\t// out\n        /* \"contracts/crowdfunding.sol\":565:583  uint public target */\n    tag_83:\n      sload(0x06)\n      dup2\n      jump\t// out\n        /* \"#utility.yul\":7:84   */\n    tag_148:\n        /* \"#utility.yul\":44:51   */\n      0x00\n        /* \"#utility.yul\":73:78   */\n      dup2\n        /* \"#utility.yul\":62:78   */\n      swap1\n      pop\n        /* \"#utility.yul\":7:84   */\n      swap2\n      swap1\n      pop\n      jump\t// out\n        /* \"#utility.yul\":90:208   */\n    tag_149:\n        /* \"#utility.yul\":177:201   */\n      tag_218\n        /* \"#utility.yul\":195:200   */\n      dup2\n        /* \"#utility.yul\":177:201   */\n      tag_148\n      jump\t// in\n    tag_218:\n        /* \"#utility.yul\":172:175   */\n      dup3\n        /* \"#utility.yul\":165:202   */\n      mstore\n        /* \"#utility.yul\":90:208   */\n      pop\n      pop\n      jump\t// out\n        /* \"#utility.yul\":214:436   */\n    tag_24:\n        /* \"#utility.yul\":307:311   */\n      0x00\n        /* \"#utility.yul\":345:347   */\n      0x20\n        /* \"#utility.yul\":334:343   */\n      dup3\n        /* \"#utility.yul\":330:348   */\n      add\n        /* \"#utility.yul\":322:348   */\n      swap1\n      pop\n        /* \"#utility.yul\":358:429   */\n      tag_220\n        /* \"#utility.yul\":426:427   */\n      0x00\n        /* \"#utility.yul\":415:424   */\n      dup4\n        /* \"#utility.yul\":411:428   */\n      add\n        /* \"#utility.yul\":402:408   */\n      dup5\n        /* \"#utility.yul\":358:429   */\n      tag_149\n      jump\t// in\n    tag_220:\n        /* \"#utility.yul\":214:436   */\n      swap3\n      swap2\n      pop\n      pop\n      jump\t// out\n        /* \"#utility.yul\":523:640   */\n    tag_151:\n        /* \"#utility.yul\":632:633   */\n      0x00\n        /* \"#utility.yul\":629:630   */\n      dup1\n        /* \"#utility.yul\":622:634   */\n      revert\n        /* \"#utility.yul\":646:763   */\n    tag_152:\n        /* \"#utility.yul\":755:756   */\n      0x00\n        /* \"#utility.yul\":752:753   */\n      dup1\n        /* \"#utility.yul\":745:757   */\n      revert\n        /* \"#utility.yul\":769:895   */\n    tag_153:\n        /* \"#utility.yul\":806:813   */\n      0x00\n        /* \"#utility.yul\":846:888   */\n      0xffffffffffffffffffffffffffffffffffffffff\n        /* \"#utility.yul\":839:844   */\n      dup3\n        /* \"#utility.yul\":835:889   */\n      and\n        /* \"#utility.yul\":824:889   */\n      swap1\n      pop\n        /* \"#utility.yul\":769:895   */\n      swap2\n      swap1\n      pop\n      jump\t// out\n        /* \"#utility.yul\":901:997   */\n    tag_154:\n        /* \"#utility.yul\":938:945   */\n      0x00\n        /* \"#utility.yul\":967:991   */\n      tag_226\n        /* \"#utility.yul\":985:990   */\n      dup3\n        /* \"#utility.yul\":967:991   */\n      tag_153\n      jump\t// in\n    tag_226:\n        /* \"#utility.yul\":956:991   */\n      swap1\n      pop\n        /* \"#utility.yul\":901:997   */\n      swap2\n      swap1\n      pop\n      jump\t// out\n        /* \"#utility.yul\":1003:1125   */\n    tag_155:\n        /* \"#utility.yul\":1076:1100   */\n      tag_228\n        /* \"#utility.yul\":1094:1099   */\n      dup2\n        /* \"#utility.yul\":1076:1100   */\n      tag_154\n      jump\t// in\n    tag_228:\n        /* \"#utility.yul\":1069:1074   */\n      dup2\n        /* \"#utility.yul\":1066:1101   */\n      eq\n        /* \"#utility.yul\":1056:1119   */\n      tag_229\n      jumpi\n        /* \"#utility.yul\":1115:1116   */\n      0x00\n        /* \"#utility.yul\":1112:1113   */\n      dup1\n        /* \"#utility.yul\":1105:1117   */\n      revert\n        /* \"#utility.yul\":1056:1119   */\n    tag_229:\n        /* \"#utility.yul\":1003:1125   */\n      pop\n      jump\t// out\n        /* \"#utility.yul\":1131:1270   */\n    tag_156:\n        /* \"#utility.yul\":1177:1182   */\n      0x00\n        /* \"#utility.yul\":1215:1221   */\n      dup2\n        /* \"#utility.yul\":1202:1222   */\n      calldataload\n        /* \"#utility.yul\":1193:1222   */\n      swap1\n      pop\n        /* \"#utility.yul\":1231:1264   */\n      tag_231\n        /* \"#utility.yul\":1258:1263   */\n      dup2\n        /* \"#utility.yul\":1231:1264   */\n      tag_155\n      jump\t// in\n    tag_231:\n        /* \"#utility.yul\":1131:1270   */\n      swap3\n      swap2\n      pop\n      pop\n      jump\t// out\n        /* \"#utility.yul\":1276:1605   */\n    tag_32:\n        /* \"#utility.yul\":1335:1341   */\n      0x00\n        /* \"#utility.yul\":1384:1386   */\n      0x20\n        /* \"#utility.yul\":1372:1381   */\n      dup3\n        /* \"#utility.yul\":1363:1370   */\n      dup5\n        /* \"#utility.yul\":1359:1382   */\n      sub\n        /* \"#utility.yul\":1355:1387   */\n      slt\n        /* \"#utility.yul\":1352:1471   */\n      iszero\n      tag_233\n      jumpi\n        /* \"#utility.yul\":1390:1469   */\n      tag_234\n      tag_151\n      jump\t// in\n    tag_234:\n        /* \"#utility.yul\":1352:1471   */\n    tag_233:\n        /* \"#utility.yul\":1510:1511   */\n      0x00\n        /* \"#utility.yul\":1535:1588   */\n      tag_235\n        /* \"#utility.yul\":1580:1587   */\n      dup5\n        /* \"#utility.yul\":1571:1577   */\n      dup3\n        /* \"#utility.yul\":1560:1569   */\n      dup6\n        /* \"#utility.yul\":1556:1578   */\n      add\n        /* \"#utility.yul\":1535:1588   */\n      tag_156\n      jump\t// in\n    tag_235:\n        /* \"#utility.yul\":1525:1588   */\n      swap2\n      pop\n        /* \"#utility.yul\":1481:1598   */\n      pop\n        /* \"#utility.yul\":1276:1605   */\n      swap3\n      swap2\n      pop\n      pop\n      jump\t// out\n        /* \"#utility.yul\":1611:1728   */\n    tag_157:\n        /* \"#utility.yul\":1720:1721   */\n      0x00\n        /* \"#utility.yul\":1717:1718   */\n      dup1\n        /* \"#utility.yul\":1710:1722   */\n      revert\n        /* \"#utility.yul\":1734:1851   */\n    tag_158:\n        /* \"#utility.yul\":1843:1844   */\n      0x00\n        /* \"#utility.yul\":1840:1841   */\n      dup1\n        /* \"#utility.yul\":1833:1845   */\n      revert\n        /* \"#utility.yul\":1857:1974   */\n    tag_159:\n        /* \"#utility.yul\":1966:1967   */\n      0x00\n        /* \"#utility.yul\":1963:1964   */\n      dup1\n        /* \"#utility.yul\":1956:1968   */\n      revert\n        /* \"#utility.yul\":1994:2547   */\n    tag_160:\n        /* \"#utility.yul\":2052:2060   */\n      0x00\n        /* \"#utility.yul\":2062:2068   */\n      dup1\n        /* \"#utility.yul\":2112:2115   */\n      dup4\n        /* \"#utility.yul\":2105:2109   */\n      0x1f\n        /* \"#utility.yul\":2097:2103   */\n      dup5\n        /* \"#utility.yul\":2093:2110   */\n      add\n        /* \"#utility.yul\":2089:2116   */\n      slt\n        /* \"#utility.yul\":2079:2201   */\n      tag_240\n      jumpi\n        /* \"#utility.yul\":2120:2199   */\n      tag_241\n      tag_157\n      jump\t// in\n    tag_241:\n        /* \"#utility.yul\":2079:2201   */\n    tag_240:\n        /* \"#utility.yul\":2233:2239   */\n      dup3\n        /* \"#utility.yul\":2220:2240   */\n      calldataload\n        /* \"#utility.yul\":2210:2240   */\n      swap1\n      pop\n        /* \"#utility.yul\":2263:2281   */\n      0xffffffffffffffff\n        /* \"#utility.yul\":2255:2261   */\n      dup2\n        /* \"#utility.yul\":2252:2282   */\n      gt\n        /* \"#utility.yul\":2249:2366   */\n      iszero\n      tag_242\n      jumpi\n        /* \"#utility.yul\":2285:2364   */\n      tag_243\n      tag_158\n      jump\t// in\n    tag_243:\n        /* \"#utility.yul\":2249:2366   */\n    tag_242:\n        /* \"#utility.yul\":2399:2403   */\n      0x20\n        /* \"#utility.yul\":2391:2397   */\n      dup4\n        /* \"#utility.yul\":2387:2404   */\n      add\n        /* \"#utility.yul\":2375:2404   */\n      swap2\n      pop\n        /* \"#utility.yul\":2453:2456   */\n      dup4\n        /* \"#utility.yul\":2445:2449   */\n      0x01\n        /* \"#utility.yul\":2437:2443   */\n      dup3\n        /* \"#utility.yul\":2433:2450   */\n      mul\n        /* \"#utility.yul\":2423:2431   */\n      dup4\n        /* \"#utility.yul\":2419:2451   */\n      add\n        /* \"#utility.yul\":2416:2457   */\n      gt\n        /* \"#utility.yul\":2413:2541   */\n      iszero\n      tag_244\n      jumpi\n        /* \"#utility.yul\":2460:2539   */\n      tag_245\n      tag_159\n      jump\t// in\n    tag_245:\n        /* \"#utility.yul\":2413:2541   */\n    tag_244:\n        /* \"#utility.yul\":1994:2547   */\n      swap3\n      pop\n      swap3\n      swap1\n      pop\n      jump\t// out\n        /* \"#utility.yul\":2553:2657   */\n    tag_161:\n        /* \"#utility.yul\":2598:2605   */\n      0x00\n        /* \"#utility.yul\":2627:2651   */\n      tag_247\n        /* \"#utility.yul\":2645:2650   */\n      dup3\n        /* \"#utility.yul\":2627:2651   */\n      tag_153\n      jump\t// in\n    tag_247:\n        /* \"#utility.yul\":2616:2651   */\n      swap1\n      pop\n        /* \"#utility.yul\":2553:2657   */\n      swap2\n      swap1\n      pop\n      jump\t// out\n        /* \"#utility.yul\":2663:2801   */\n    tag_162:\n        /* \"#utility.yul\":2744:2776   */\n      tag_249\n        /* \"#utility.yul\":2770:2775   */\n      dup2\n        /* \"#utility.yul\":2744:2776   */\n      tag_161\n      jump\t// in\n    tag_249:\n        /* \"#utility.yul\":2737:2742   */\n      dup2\n        /* \"#utility.yul\":2734:2777   */\n      eq\n        /* \"#utility.yul\":2724:2795   */\n      tag_250\n      jumpi\n        /* \"#utility.yul\":2791:2792   */\n      0x00\n        /* \"#utility.yul\":2788:2789   */\n      dup1\n        /* \"#utility.yul\":2781:2793   */\n      revert\n        /* \"#utility.yul\":2724:2795   */\n    tag_250:\n        /* \"#utility.yul\":2663:2801   */\n      pop\n      jump\t// out\n        /* \"#utility.yul\":2807:2962   */\n    tag_163:\n        /* \"#utility.yul\":2861:2866   */\n      0x00\n        /* \"#utility.yul\":2899:2905   */\n      dup2\n        /* \"#utility.yul\":2886:2906   */\n      calldataload\n        /* \"#utility.yul\":2877:2906   */\n      swap1\n      pop\n        /* \"#utility.yul\":2915:2956   */\n      tag_252\n        /* \"#utility.yul\":2950:2955   */\n      dup2\n        /* \"#utility.yul\":2915:2956   */\n      tag_162\n      jump\t// in\n    tag_252:\n        /* \"#utility.yul\":2807:2962   */\n      swap3\n      swap2\n      pop\n      pop\n      jump\t// out\n        /* \"#utility.yul\":2968:3090   */\n    tag_164:\n        /* \"#utility.yul\":3041:3065   */\n      tag_254\n        /* \"#utility.yul\":3059:3064   */\n      dup2\n        /* \"#utility.yul\":3041:3065   */\n      tag_148\n      jump\t// in\n    tag_254:\n        /* \"#utility.yul\":3034:3039   */\n      dup2\n        /* \"#utility.yul\":3031:3066   */\n      eq\n        /* \"#utility.yul\":3021:3084   */\n      tag_255\n      jumpi\n        /* \"#utility.yul\":3080:3081   */\n      0x00\n        /* \"#utility.yul\":3077:3078   */\n      dup1\n        /* \"#utility.yul\":3070:3082   */\n      revert\n        /* \"#utility.yul\":3021:3084   */\n    tag_255:\n        /* \"#utility.yul\":2968:3090   */\n      pop\n      jump\t// out\n        /* \"#utility.yul\":3096:3235   */\n    tag_165:\n        /* \"#utility.yul\":3142:3147   */\n      0x00\n        /* \"#utility.yul\":3180:3186   */\n      dup2\n        /* \"#utility.yul\":3167:3187   */\n      calldataload\n        /* \"#utility.yul\":3158:3187   */\n      swap1\n      pop\n        /* \"#utility.yul\":3196:3229   */\n      tag_257\n        /* \"#utility.yul\":3223:3228   */\n      dup2\n        /* \"#utility.yul\":3196:3229   */\n      tag_164\n      jump\t// in\n    tag_257:\n        /* \"#utility.yul\":3096:3235   */\n      swap3\n      swap2\n      pop\n      pop\n      jump\t// out\n        /* \"#utility.yul\":3241:4076   */\n    tag_38:\n        /* \"#utility.yul\":3338:3344   */\n      0x00\n        /* \"#utility.yul\":3346:3352   */\n      dup1\n        /* \"#utility.yul\":3354:3360   */\n      0x00\n        /* \"#utility.yul\":3362:3368   */\n      dup1\n        /* \"#utility.yul\":3411:3413   */\n      0x60\n        /* \"#utility.yul\":3399:3408   */\n      dup6\n        /* \"#utility.yul\":3390:3397   */\n      dup8\n        /* \"#utility.yul\":3386:3409   */\n      sub\n        /* \"#utility.yul\":3382:3414   */\n      slt\n        /* \"#utility.yul\":3379:3498   */\n      iszero\n      tag_259\n      jumpi\n        /* \"#utility.yul\":3417:3496   */\n      tag_260\n      tag_151\n      jump\t// in\n    tag_260:\n        /* \"#utility.yul\":3379:3498   */\n    tag_259:\n        /* \"#utility.yul\":3565:3566   */\n      0x00\n        /* \"#utility.yul\":3554:3563   */\n      dup6\n        /* \"#utility.yul\":3550:3567   */\n      add\n        /* \"#utility.yul\":3537:3568   */\n      calldataload\n        /* \"#utility.yul\":3595:3613   */\n      0xffffffffffffffff\n        /* \"#utility.yul\":3587:3593   */\n      dup2\n        /* \"#utility.yul\":3584:3614   */\n      gt\n        /* \"#utility.yul\":3581:3698   */\n      iszero\n      tag_261\n      jumpi\n        /* \"#utility.yul\":3617:3696   */\n      tag_262\n      tag_152\n      jump\t// in\n    tag_262:\n        /* \"#utility.yul\":3581:3698   */\n    tag_261:\n        /* \"#utility.yul\":3730:3795   */\n      tag_263\n        /* \"#utility.yul\":3787:3794   */\n      dup8\n        /* \"#utility.yul\":3778:3784   */\n      dup3\n        /* \"#utility.yul\":3767:3776   */\n      dup9\n        /* \"#utility.yul\":3763:3785   */\n      add\n        /* \"#utility.yul\":3730:3795   */\n      tag_160\n      jump\t// in\n    tag_263:\n        /* \"#utility.yul\":3712:3795   */\n      swap5\n      pop\n      swap5\n      pop\n        /* \"#utility.yul\":3508:3805   */\n      pop\n        /* \"#utility.yul\":3844:3846   */\n      0x20\n        /* \"#utility.yul\":3870:3931   */\n      tag_264\n        /* \"#utility.yul\":3923:3930   */\n      dup8\n        /* \"#utility.yul\":3914:3920   */\n      dup3\n        /* \"#utility.yul\":3903:3912   */\n      dup9\n        /* \"#utility.yul\":3899:3921   */\n      add\n        /* \"#utility.yul\":3870:3931   */\n      tag_163\n      jump\t// in\n    tag_264:\n        /* \"#utility.yul\":3860:3931   */\n      swap3\n      pop\n        /* \"#utility.yul\":3815:3941   */\n      pop\n        /* \"#utility.yul\":3980:3982   */\n      0x40\n        /* \"#utility.yul\":4006:4059   */\n      tag_265\n        /* \"#utility.yul\":4051:4058   */\n      dup8\n        /* \"#utility.yul\":4042:4048   */\n      dup3\n        /* \"#utility.yul\":4031:4040   */\n      dup9\n        /* \"#utility.yul\":4027:4049   */\n      add\n        /* \"#utility.yul\":4006:4059   */\n      tag_165\n      jump\t// in\n    tag_265:\n        /* \"#utility.yul\":3996:4059   */\n      swap2\n      pop\n        /* \"#utility.yul\":3951:4069   */\n      pop\n        /* \"#utility.yul\":3241:4076   */\n      swap3\n      swap6\n      swap2\n      swap5\n      pop\n      swap3\n      pop\n      jump\t// out\n        /* \"#utility.yul\":4082:4200   */\n    tag_166:\n        /* \"#utility.yul\":4169:4193   */\n      tag_267\n        /* \"#utility.yul\":4187:4192   */\n      dup2\n        /* \"#utility.yul\":4169:4193   */\n      tag_154\n      jump\t// in\n    tag_267:\n        /* \"#utility.yul\":4164:4167   */\n      dup3\n        /* \"#utility.yul\":4157:4194   */\n      mstore\n        /* \"#utility.yul\":4082:4200   */\n      pop\n      pop\n      jump\t// out\n        /* \"#utility.yul\":4206:4428   */\n    tag_44:\n        /* \"#utility.yul\":4299:4303   */\n      0x00\n        /* \"#utility.yul\":4337:4339   */\n      0x20\n        /* \"#utility.yul\":4326:4335   */\n      dup3\n        /* \"#utility.yul\":4322:4340   */\n      add\n        /* \"#utility.yul\":4314:4340   */\n      swap1\n      pop\n        /* \"#utility.yul\":4350:4421   */\n      tag_269\n        /* \"#utility.yul\":4418:4419   */\n      0x00\n        /* \"#utility.yul\":4407:4416   */\n      dup4\n        /* \"#utility.yul\":4403:4420   */\n      add\n        /* \"#utility.yul\":4394:4400   */\n      dup5\n        /* \"#utility.yul\":4350:4421   */\n      tag_166\n      jump\t// in\n    tag_269:\n        /* \"#utility.yul\":4206:4428   */\n      swap3\n      swap2\n      pop\n      pop\n      jump\t// out\n        /* \"#utility.yul\":4434:4763   */\n    tag_48:\n        /* \"#utility.yul\":4493:4499   */\n      0x00\n        /* \"#utility.yul\":4542:4544   */\n      0x20\n        /* \"#utility.yul\":4530:4539   */\n      dup3\n        /* \"#utility.yul\":4521:4528   */\n      dup5\n        /* \"#utility.yul\":4517:4540   */\n      sub\n        /* \"#utility.yul\":4513:4545   */\n      slt\n        /* \"#utility.yul\":4510:4629   */\n      iszero\n      tag_271\n      jumpi\n        /* \"#utility.yul\":4548:4627   */\n      tag_272\n      tag_151\n      jump\t// in\n    tag_272:\n        /* \"#utility.yul\":4510:4629   */\n    tag_271:\n        /* \"#utility.yul\":4668:4669   */\n      0x00\n        /* \"#utility.yul\":4693:4746   */\n      tag_273\n        /* \"#utility.yul\":4738:4745   */\n      dup5\n        /* \"#utility.yul\":4729:4735   */\n      dup3\n        /* \"#utility.yul\":4718:4727   */\n      dup6\n        /* \"#utility.yul\":4714:4736   */\n      add\n        /* \"#utility.yul\":4693:4746   */\n      tag_165\n      jump\t// in\n    tag_273:\n        /* \"#utility.yul\":4683:4746   */\n      swap2\n      pop\n        /* \"#utility.yul\":4639:4756   */\n      pop\n        /* \"#utility.yul\":4434:4763   */\n      swap3\n      swap2\n      pop\n      pop\n      jump\t// out\n        /* \"#utility.yul\":4769:4868   */\n    tag_167:\n        /* \"#utility.yul\":4821:4827   */\n      0x00\n        /* \"#utility.yul\":4855:4860   */\n      dup2\n        /* \"#utility.yul\":4849:4861   */\n      mload\n        /* \"#utility.yul\":4839:4861   */\n      swap1\n      pop\n        /* \"#utility.yul\":4769:4868   */\n      swap2\n      swap1\n      pop\n      jump\t// out\n        /* \"#utility.yul\":4874:5043   */\n    tag_168:\n        /* \"#utility.yul\":4958:4969   */\n      0x00\n        /* \"#utility.yul\":4992:4998   */\n      dup3\n        /* \"#utility.yul\":4987:4990   */\n      dup3\n        /* \"#utility.yul\":4980:4999   */\n      mstore\n        /* \"#utility.yul\":5032:5036   */\n      0x20\n        /* \"#utility.yul\":5027:5030   */\n      dup3\n        /* \"#utility.yul\":5023:5037   */\n      add\n        /* \"#utility.yul\":5008:5037   */\n      swap1\n      pop\n        /* \"#utility.yul\":4874:5043   */\n      swap3\n      swap2\n      pop\n      pop\n      jump\t// out\n        /* \"#utility.yul\":5049:5188   */\n    tag_169:\n        /* \"#utility.yul\":5138:5144   */\n      dup3\n        /* \"#utility.yul\":5133:5136   */\n      dup2\n        /* \"#utility.yul\":5128:5131   */\n      dup4\n        /* \"#utility.yul\":5122:5145   */\n      mcopy\n        /* \"#utility.yul\":5179:5180   */\n      0x00\n        /* \"#utility.yul\":5170:5176   */\n      dup4\n        /* \"#utility.yul\":5165:5168   */\n      dup4\n        /* \"#utility.yul\":5161:5177   */\n      add\n        /* \"#utility.yul\":5154:5181   */\n      mstore\n        /* \"#utility.yul\":5049:5188   */\n      pop\n      pop\n      pop\n      jump\t// out\n        /* \"#utility.yul\":5194:5296   */\n    tag_170:\n        /* \"#utility.yul\":5235:5241   */\n      0x00\n        /* \"#utility.yul\":5286:5288   */\n      0x1f\n        /* \"#utility.yul\":5282:5289   */\n      not\n        /* \"#utility.yul\":5277:5279   */\n      0x1f\n        /* \"#utility.yul\":5270:5275   */\n      dup4\n        /* \"#utility.yul\":5266:5280   */\n      add\n        /* \"#utility.yul\":5262:5290   */\n      and\n        /* \"#utility.yul\":5252:5290   */\n      swap1\n      pop\n        /* \"#utility.yul\":5194:5296   */\n      swap2\n      swap1\n      pop\n      jump\t// out\n        /* \"#utility.yul\":5302:5679   */\n    tag_171:\n        /* \"#utility.yul\":5390:5393   */\n      0x00\n        /* \"#utility.yul\":5418:5457   */\n      tag_279\n        /* \"#utility.yul\":5451:5456   */\n      dup3\n        /* \"#utility.yul\":5418:5457   */\n      tag_167\n      jump\t// in\n    tag_279:\n        /* \"#utility.yul\":5473:5544   */\n      tag_280\n        /* \"#utility.yul\":5537:5543   */\n      dup2\n        /* \"#utility.yul\":5532:5535   */\n      dup6\n        /* \"#utility.yul\":5473:5544   */\n      tag_168\n      jump\t// in\n    tag_280:\n        /* \"#utility.yul\":5466:5544   */\n      swap4\n      pop\n        /* \"#utility.yul\":5553:5618   */\n      tag_281\n        /* \"#utility.yul\":5611:5617   */\n      dup2\n        /* \"#utility.yul\":5606:5609   */\n      dup6\n        /* \"#utility.yul\":5599:5603   */\n      0x20\n        /* \"#utility.yul\":5592:5597   */\n      dup7\n        /* \"#utility.yul\":5588:5604   */\n      add\n        /* \"#utility.yul\":5553:5618   */\n      tag_169\n      jump\t// in\n    tag_281:\n        /* \"#utility.yul\":5643:5672   */\n      tag_282\n        /* \"#utility.yul\":5665:5671   */\n      dup2\n        /* \"#utility.yul\":5643:5672   */\n      tag_170\n      jump\t// in\n    tag_282:\n        /* \"#utility.yul\":5638:5641   */\n      dup5\n        /* \"#utility.yul\":5634:5673   */\n      add\n        /* \"#utility.yul\":5627:5673   */\n      swap2\n      pop\n        /* \"#utility.yul\":5394:5679   */\n      pop\n        /* \"#utility.yul\":5302:5679   */\n      swap3\n      swap2\n      pop\n      pop\n      jump\t// out\n        /* \"#utility.yul\":5685:5827   */\n    tag_172:\n        /* \"#utility.yul\":5788:5820   */\n      tag_284\n        /* \"#utility.yul\":5814:5819   */\n      dup2\n        /* \"#utility.yul\":5788:5820   */\n      tag_161\n      jump\t// in\n    tag_284:\n        /* \"#utility.yul\":5783:5786   */\n      dup3\n        /* \"#utility.yul\":5776:5821   */\n      mstore\n        /* \"#utility.yul\":5685:5827   */\n      pop\n      pop\n      jump\t// out\n        /* \"#utility.yul\":5833:5923   */\n    tag_173:\n        /* \"#utility.yul\":5867:5874   */\n      0x00\n        /* \"#utility.yul\":5910:5915   */\n      dup2\n        /* \"#utility.yul\":5903:5916   */\n      iszero\n        /* \"#utility.yul\":5896:5917   */\n      iszero\n        /* \"#utility.yul\":5885:5917   */\n      swap1\n      pop\n        /* \"#utility.yul\":5833:5923   */\n      swap2\n      swap1\n      pop\n      jump\t// out\n        /* \"#utility.yul\":5929:6038   */\n    tag_174:\n        /* \"#utility.yul\":6010:6031   */\n      tag_287\n        /* \"#utility.yul\":6025:6030   */\n      dup2\n        /* \"#utility.yul\":6010:6031   */\n      tag_173\n      jump\t// in\n    tag_287:\n        /* \"#utility.yul\":6005:6008   */\n      dup3\n        /* \"#utility.yul\":5998:6032   */\n      mstore\n        /* \"#utility.yul\":5929:6038   */\n      pop\n      pop\n      jump\t// out\n        /* \"#utility.yul\":6044:6819   */\n    tag_68:\n        /* \"#utility.yul\":6279:6283   */\n      0x00\n        /* \"#utility.yul\":6317:6320   */\n      0xa0\n        /* \"#utility.yul\":6306:6315   */\n      dup3\n        /* \"#utility.yul\":6302:6321   */\n      add\n        /* \"#utility.yul\":6294:6321   */\n      swap1\n      pop\n        /* \"#utility.yul\":6367:6376   */\n      dup2\n        /* \"#utility.yul\":6361:6365   */\n      dup2\n        /* \"#utility.yul\":6357:6377   */\n      sub\n        /* \"#utility.yul\":6353:6354   */\n      0x00\n        /* \"#utility.yul\":6342:6351   */\n      dup4\n        /* \"#utility.yul\":6338:6355   */\n      add\n        /* \"#utility.yul\":6331:6378   */\n      mstore\n        /* \"#utility.yul\":6395:6473   */\n      tag_289\n        /* \"#utility.yul\":6468:6472   */\n      dup2\n        /* \"#utility.yul\":6459:6465   */\n      dup9\n        /* \"#utility.yul\":6395:6473   */\n      tag_171\n      jump\t// in\n    tag_289:\n        /* \"#utility.yul\":6387:6473   */\n      swap1\n      pop\n        /* \"#utility.yul\":6483:6571   */\n      tag_290\n        /* \"#utility.yul\":6567:6569   */\n      0x20\n        /* \"#utility.yul\":6556:6565   */\n      dup4\n        /* \"#utility.yul\":6552:6570   */\n      add\n        /* \"#utility.yul\":6543:6549   */\n      dup8\n        /* \"#utility.yul\":6483:6571   */\n      tag_172\n      jump\t// in\n    tag_290:\n        /* \"#utility.yul\":6581:6653   */\n      tag_291\n        /* \"#utility.yul\":6649:6651   */\n      0x40\n        /* \"#utility.yul\":6638:6647   */\n      dup4\n        /* \"#utility.yul\":6634:6652   */\n      add\n        /* \"#utility.yul\":6625:6631   */\n      dup7\n        /* \"#utility.yul\":6581:6653   */\n      tag_149\n      jump\t// in\n    tag_291:\n        /* \"#utility.yul\":6663:6729   */\n      tag_292\n        /* \"#utility.yul\":6725:6727   */\n      0x60\n        /* \"#utility.yul\":6714:6723   */\n      dup4\n        /* \"#utility.yul\":6710:6728   */\n      add\n        /* \"#utility.yul\":6701:6707   */\n      dup6\n        /* \"#utility.yul\":6663:6729   */\n      tag_174\n      jump\t// in\n    tag_292:\n        /* \"#utility.yul\":6739:6812   */\n      tag_293\n        /* \"#utility.yul\":6807:6810   */\n      0x80\n        /* \"#utility.yul\":6796:6805   */\n      dup4\n        /* \"#utility.yul\":6792:6811   */\n      add\n        /* \"#utility.yul\":6783:6789   */\n      dup5\n        /* \"#utility.yul\":6739:6812   */\n      tag_149\n      jump\t// in\n    tag_293:\n        /* \"#utility.yul\":6044:6819   */\n      swap7\n      swap6\n      pop\n      pop\n      pop\n      pop\n      pop\n      pop\n      jump\t// out\n        /* \"#utility.yul\":6825:6994   */\n    tag_175:\n        /* \"#utility.yul\":6965:6986   */\n      0x796f7520617265206e6f74206d616e6167657200000000000000000000000000\n        /* \"#utility.yul\":6961:6962   */\n      0x00\n        /* \"#utility.yul\":6953:6959   */\n      dup3\n        /* \"#utility.yul\":6949:6963   */\n      add\n        /* \"#utility.yul\":6942:6987   */\n      mstore\n        /* \"#utility.yul\":6825:6994   */\n      pop\n      jump\t// out\n        /* \"#utility.yul\":7000:7366   */\n    tag_176:\n        /* \"#utility.yul\":7142:7145   */\n      0x00\n        /* \"#utility.yul\":7163:7230   */\n      tag_296\n        /* \"#utility.yul\":7227:7229   */\n      0x13\n        /* \"#utility.yul\":7222:7225   */\n      dup4\n        /* \"#utility.yul\":7163:7230   */\n      tag_168\n      jump\t// in\n    tag_296:\n        /* \"#utility.yul\":7156:7230   */\n      swap2\n      pop\n        /* \"#utility.yul\":7239:7332   */\n      tag_297\n        /* \"#utility.yul\":7328:7331   */\n      dup3\n        /* \"#utility.yul\":7239:7332   */\n      tag_175\n      jump\t// in\n    tag_297:\n        /* \"#utility.yul\":7357:7359   */\n      0x20\n        /* \"#utility.yul\":7352:7355   */\n      dup3\n        /* \"#utility.yul\":7348:7360   */\n      add\n        /* \"#utility.yul\":7341:7360   */\n      swap1\n      pop\n        /* \"#utility.yul\":7000:7366   */\n      swap2\n      swap1\n      pop\n      jump\t// out\n        /* \"#utility.yul\":7372:7791   */\n    tag_88:\n        /* \"#utility.yul\":7538:7542   */\n      0x00\n        /* \"#utility.yul\":7576:7578   */\n      0x20\n        /* \"#utility.yul\":7565:7574   */\n      dup3\n        /* \"#utility.yul\":7561:7579   */\n      add\n        /* \"#utility.yul\":7553:7579   */\n      swap1\n      pop\n        /* \"#utility.yul\":7625:7634   */\n      dup2\n        /* \"#utility.yul\":7619:7623   */\n      dup2\n        /* \"#utility.yul\":7615:7635   */\n      sub\n        /* \"#utility.yul\":7611:7612   */\n      0x00\n        /* \"#utility.yul\":7600:7609   */\n      dup4\n        /* \"#utility.yul\":7596:7613   */\n      add\n        /* \"#utility.yul\":7589:7636   */\n      mstore\n        /* \"#utility.yul\":7653:7784   */\n      tag_299\n        /* \"#utility.yul\":7779:7783   */\n      dup2\n        /* \"#utility.yul\":7653:7784   */\n      tag_176\n      jump\t// in\n    tag_299:\n        /* \"#utility.yul\":7645:7784   */\n      swap1\n      pop\n        /* \"#utility.yul\":7372:7791   */\n      swap2\n      swap1\n      pop\n      jump\t// out\n        /* \"#utility.yul\":7797:7977   */\n    tag_177:\n        /* \"#utility.yul\":7845:7922   */\n      0x4e487b7100000000000000000000000000000000000000000000000000000000\n        /* \"#utility.yul\":7842:7843   */\n      0x00\n        /* \"#utility.yul\":7835:7923   */\n      mstore\n        /* \"#utility.yul\":7942:7946   */\n      0x11\n        /* \"#utility.yul\":7939:7940   */\n      0x04\n        /* \"#utility.yul\":7932:7947   */\n      mstore\n        /* \"#utility.yul\":7966:7970   */\n      0x24\n        /* \"#utility.yul\":7963:7964   */\n      0x00\n        /* \"#utility.yul\":7956:7971   */\n      revert\n        /* \"#utility.yul\":7983:8216   */\n    tag_91:\n        /* \"#utility.yul\":8022:8025   */\n      0x00\n        /* \"#utility.yul\":8045:8069   */\n      tag_302\n        /* \"#utility.yul\":8063:8068   */\n      dup3\n        /* \"#utility.yul\":8045:8069   */\n      tag_148\n      jump\t// in\n    tag_302:\n        /* \"#utility.yul\":8036:8069   */\n      swap2\n      pop\n        /* \"#utility.yul\":8091:8157   */\n      0xffffffffffffffffffffffffffffffffffffffffffffffffffffffffffffffff\n        /* \"#utility.yul\":8084:8089   */\n      dup3\n        /* \"#utility.yul\":8081:8158   */\n      sub\n        /* \"#utility.yul\":8078:8181   */\n      tag_303\n      jumpi\n        /* \"#utility.yul\":8161:8179   */\n      tag_304\n      tag_177\n      jump\t// in\n    tag_304:\n        /* \"#utility.yul\":8078:8181   */\n    tag_303:\n        /* \"#utility.yul\":8208:8209   */\n      0x01\n        /* \"#utility.yul\":8201:8206   */\n      dup3\n        /* \"#utility.yul\":8197:8210   */\n      add\n        /* \"#utility.yul\":8190:8210   */\n      swap1\n      pop\n        /* \"#utility.yul\":7983:8216   */\n      swap2\n      swap1\n      pop\n      jump\t// out\n        /* \"#utility.yul\":8222:8319   */\n    tag_178:\n        /* \"#utility.yul\":8281:8287   */\n      0x00\n        /* \"#utility.yul\":8309:8312   */\n      dup3\n        /* \"#utility.yul\":8299:8312   */\n      swap1\n      pop\n        /* \"#utility.yul\":8222:8319   */\n      swap3\n      swap2\n      pop\n      pop\n      jump\t// out\n        /* \"#utility.yul\":8325:8505   */\n    tag_179:\n        /* \"#utility.yul\":8373:8450   */\n      0x4e487b7100000000000000000000000000000000000000000000000000000000\n        /* \"#utility.yul\":8370:8371   */\n      0x00\n        /* \"#utility.yul\":8363:8451   */\n      mstore\n        /* \"#utility.yul\":8470:8474   */\n      0x41\n        /* \"#utility.yul\":8467:8468   */\n      0x04\n        /* \"#utility.yul\":8460:8475   */\n      mstore\n        /* \"#utility.yul\":8494:8498   */\n      0x24\n        /* \"#utility.yul\":8491:8492   */\n      0x00\n        /* \"#utility.yul\":8484:8499   */\n      revert\n        /* \"#utility.yul\":8511:8691   */\n    tag_180:\n        /* \"#utility.yul\":8559:8636   */\n      0x4e487b7100000000000000000000000000000000000000000000000000000000\n        /* \"#utility.yul\":8556:8557   */\n      0x00\n        /* \"#utility.yul\":8549:8637   */\n      mstore\n        /* \"#utility.yul\":8656:8660   */\n      0x22\n        /* \"#utility.yul\":8653:8654   */\n      0x04\n        /* \"#utility.yul\":8646:8661   */\n      mstore\n        /* \"#utility.yul\":8680:8684   */\n      0x24\n        /* \"#utility.yul\":8677:8678   */\n      0x00\n        /* \"#utility.yul\":8670:8685   */\n      revert\n        /* \"#utility.yul\":8697:9017   */\n    tag_143:\n        /* \"#utility.yul\":8741:8747   */\n      0x00\n        /* \"#utility.yul\":8778:8779   */\n      0x02\n        /* \"#utility.yul\":8772:8776   */\n      dup3\n        /* \"#utility.yul\":8768:8780   */\n      div\n        /* \"#utility.yul\":8758:8780   */\n      swap1\n      pop\n        /* \"#utility.yul\":8825:8826   */\n      0x01\n        /* \"#utility.yul\":8819:8823   */\n      dup3\n        /* \"#utility.yul\":8815:8827   */\n      and\n        /* \"#utility.yul\":8846:8864   */\n      dup1\n        /* \"#utility.yul\":8836:8917   */\n      tag_309\n      jumpi\n        /* \"#utility.yul\":8902:8906   */\n      0x7f\n        /* \"#utility.yul\":8894:8900   */\n      dup3\n        /* \"#utility.yul\":8890:8907   */\n      and\n        /* \"#utility.yul\":8880:8907   */\n      swap2\n      pop\n        /* \"#utility.yul\":8836:8917   */\n    tag_309:\n        /* \"#utility.yul\":8964:8966   */\n      0x20\n        /* \"#utility.yul\":8956:8962   */\n      dup3\n        /* \"#utility.yul\":8953:8967   */\n      lt\n        /* \"#utility.yul\":8933:8951   */\n      dup2\n        /* \"#utility.yul\":8930:8968   */\n      sub\n        /* \"#utility.yul\":8927:9011   */\n      tag_310\n      jumpi\n        /* \"#utility.yul\":8983:9001   */\n      tag_311\n      tag_180\n      jump\t// in\n    tag_311:\n        /* \"#utility.yul\":8927:9011   */\n    tag_310:\n        /* \"#utility.yul\":8748:9017   */\n      pop\n        /* \"#utility.yul\":8697:9017   */\n      swap2\n      swap1\n      pop\n      jump\t// out\n        /* \"#utility.yul\":9023:9164   */\n    tag_181:\n        /* \"#utility.yul\":9072:9076   */\n      0x00\n        /* \"#utility.yul\":9095:9098   */\n      dup2\n        /* \"#utility.yul\":9087:9098   */\n      swap1\n      pop\n        /* \"#utility.yul\":9118:9121   */\n      dup2\n        /* \"#utility.yul\":9115:9116   */\n      0x00\n        /* \"#utility.yul\":9108:9122   */\n      mstore\n        /* \"#utility.yul\":9152:9156   */\n      0x20\n        /* \"#utility.yul\":9149:9150   */\n      0x00\n        /* \"#utility.yul\":9139:9157   */\n      keccak256\n        /* \"#utility.yul\":9131:9157   */\n      swap1\n      pop\n        /* \"#utility.yul\":9023:9164   */\n      swap2\n      swap1\n      pop\n      jump\t// out\n        /* \"#utility.yul\":9170:9263   */\n    tag_182:\n        /* \"#utility.yul\":9207:9213   */\n      0x00\n        /* \"#utility.yul\":9254:9256   */\n      0x20\n        /* \"#utility.yul\":9249:9251   */\n      0x1f\n        /* \"#utility.yul\":9242:9247   */\n      dup4\n        /* \"#utility.yul\":9238:9252   */\n      add\n        /* \"#utility.yul\":9234:9257   */\n      div\n        /* \"#utility.yul\":9224:9257   */\n      swap1\n      pop\n        /* \"#utility.yul\":9170:9263   */\n      swap2\n      swap1\n      pop\n      jump\t// out\n        /* \"#utility.yul\":9269:9376   */\n    tag_183:\n        /* \"#utility.yul\":9313:9321   */\n      0x00\n        /* \"#utility.yul\":9363:9368   */\n      dup3\n        /* \"#utility.yul\":9357:9361   */\n      dup3\n        /* \"#utility.yul\":9353:9369   */\n      shl\n        /* \"#utility.yul\":9332:9369   */\n      swap1\n      pop\n        /* \"#utility.yul\":9269:9376   */\n      swap3\n      swap2\n      pop\n      pop\n      jump\t// out\n        /* \"#utility.yul\":9382:9775   */\n    tag_184:\n        /* \"#utility.yul\":9451:9457   */\n      0x00\n        /* \"#utility.yul\":9501:9502   */\n      0x08\n        /* \"#utility.yul\":9489:9499   */\n      dup4\n        /* \"#utility.yul\":9485:9503   */\n      mul\n        /* \"#utility.yul\":9524:9621   */\n      tag_316\n        /* \"#utility.yul\":9554:9620   */\n      0xffffffffffffffffffffffffffffffffffffffffffffffffffffffffffffffff\n        /* \"#utility.yul\":9543:9552   */\n      dup3\n        /* \"#utility.yul\":9524:9621   */\n      tag_183\n      jump\t// in\n    tag_316:\n        /* \"#utility.yul\":9642:9681   */\n      tag_317\n        /* \"#utility.yul\":9672:9680   */\n      dup7\n        /* \"#utility.yul\":9661:9670   */\n      dup4\n        /* \"#utility.yul\":9642:9681   */\n      tag_183\n      jump\t// in\n    tag_317:\n        /* \"#utility.yul\":9630:9681   */\n      swap6\n      pop\n        /* \"#utility.yul\":9714:9718   */\n      dup1\n        /* \"#utility.yul\":9710:9719   */\n      not\n        /* \"#utility.yul\":9703:9708   */\n      dup5\n        /* \"#utility.yul\":9699:9720   */\n      and\n        /* \"#utility.yul\":9690:9720   */\n      swap4\n      pop\n        /* \"#utility.yul\":9763:9767   */\n      dup1\n        /* \"#utility.yul\":9753:9761   */\n      dup7\n        /* \"#utility.yul\":9749:9768   */\n      and\n        /* \"#utility.yul\":9742:9747   */\n      dup5\n        /* \"#utility.yul\":9739:9769   */\n      or\n        /* \"#utility.yul\":9729:9769   */\n      swap3\n      pop\n        /* \"#utility.yul\":9458:9775   */\n      pop\n      pop\n        /* \"#utility.yul\":9382:9775   */\n      swap4\n      swap3\n      pop\n      pop\n      pop\n      jump\t// out\n        /* \"#utility.yul\":9781:9841   */\n    tag_185:\n        /* \"#utility.yul\":9809:9812   */\n      0x00\n        /* \"#utility.yul\":9830:9835   */\n      dup2\n        /* \"#utility.yul\":9823:9835   */\n      swap1\n      pop\n        /* \"#utility.yul\":9781:9841   */\n      swap2\n      swap1\n      pop\n      jump\t// out\n        /* \"#utility.yul\":9847:9989   */\n    tag_186:\n        /* \"#utility.yul\":9897:9906   */\n      0x00\n        /* \"#utility.yul\":9930:9983   */\n      tag_320\n        /* \"#utility.yul\":9948:9982   */\n      tag_321\n        /* \"#utility.yul\":9957:9981   */\n      tag_322\n        /* \"#utility.yul\":9975:9980   */\n      dup5\n        /* \"#utility.yul\":9957:9981   */\n      tag_148\n      jump\t// in\n    tag_322:\n        /* \"#utility.yul\":9948:9982   */\n      tag_185\n      jump\t// in\n    tag_321:\n        /* \"#utility.yul\":9930:9983   */\n      tag_148\n      jump\t// in\n    tag_320:\n        /* \"#utility.yul\":9917:9983   */\n      swap1\n      pop\n        /* \"#utility.yul\":9847:9989   */\n      swap2\n      swap1\n      pop\n      jump\t// out\n        /* \"#utility.yul\":9995:10070   */\n    tag_187:\n        /* \"#utility.yul\":10038:10041   */\n      0x00\n        /* \"#utility.yul\":10059:10064   */\n      dup2\n        /* \"#utility.yul\":10052:10064   */\n      swap1\n      pop\n        /* \"#utility.yul\":9995:10070   */\n      swap2\n      swap1\n      pop\n      jump\t// out\n        /* \"#utility.yul\":10076:10345   */\n    tag_188:\n        /* \"#utility.yul\":10186:10225   */\n      tag_325\n        /* \"#utility.yul\":10217:10224   */\n      dup4\n        /* \"#utility.yul\":10186:10225   */\n      tag_186\n      jump\t// in\n    tag_325:\n        /* \"#utility.yul\":10247:10338   */\n      tag_326\n        /* \"#utility.yul\":10296:10337   */\n      tag_327\n        /* \"#utility.yul\":10320:10336   */\n      dup3\n        /* \"#utility.yul\":10296:10337   */\n      tag_187\n      jump\t// in\n    tag_327:\n        /* \"#utility.yul\":10288:10294   */\n      dup5\n        /* \"#utility.yul\":10281:10285   */\n      dup5\n        /* \"#utility.yul\":10275:10286   */\n      sload\n        /* \"#utility.yul\":10247:10338   */\n      tag_184\n      jump\t// in\n    tag_326:\n        /* \"#utility.yul\":10241:10245   */\n      dup3\n        /* \"#utility.yul\":10234:10339   */\n      sstore\n        /* \"#utility.yul\":10152:10345   */\n      pop\n        /* \"#utility.yul\":10076:10345   */\n      pop\n      pop\n      pop\n      jump\t// out\n        /* \"#utility.yul\":10351:10424   */\n    tag_189:\n        /* \"#utility.yul\":10396:10399   */\n      0x00\n        /* \"#utility.yul\":10351:10424   */\n      swap1\n      jump\t// out\n        /* \"#utility.yul\":10430:10619   */\n    tag_190:\n        /* \"#utility.yul\":10507:10539   */\n      tag_330\n      tag_189\n      jump\t// in\n    tag_330:\n        /* \"#utility.yul\":10548:10613   */\n      tag_331\n        /* \"#utility.yul\":10606:10612   */\n      dup2\n        /* \"#utility.yul\":10598:10604   */\n      dup5\n        /* \"#utility.yul\":10592:10596   */\n      dup5\n        /* \"#utility.yul\":10548:10613   */\n      tag_188\n      jump\t// in\n    tag_331:\n        /* \"#utility.yul\":10483:10619   */\n      pop\n        /* \"#utility.yul\":10430:10619   */\n      pop\n      pop\n      jump\t// out\n        /* \"#utility.yul\":10625:10811   */\n    tag_191:\n        /* \"#utility.yul\":10685:10805   */\n    tag_333:\n        /* \"#utility.yul\":10702:10705   */\n      dup2\n        /* \"#utility.yul\":10695:10700   */\n      dup2\n        /* \"#utility.yul\":10692:10706   */\n      lt\n        /* \"#utility.yul\":10685:10805   */\n      iszero\n      tag_335\n      jumpi\n        /* \"#utility.yul\":10756:10795   */\n      tag_336\n        /* \"#utility.yul\":10793:10794   */\n      0x00\n        /* \"#utility.yul\":10786:10791   */\n      dup3\n        /* \"#utility.yul\":10756:10795   */\n      tag_190\n      jump\t// in\n    tag_336:\n        /* \"#utility.yul\":10729:10730   */\n      0x01\n        /* \"#utility.yul\":10722:10727   */\n      dup2\n        /* \"#utility.yul\":10718:10731   */\n      add\n        /* \"#utility.yul\":10709:10731   */\n      swap1\n      pop\n        /* \"#utility.yul\":10685:10805   */\n      jump(tag_333)\n    tag_335:\n        /* \"#utility.yul\":10625:10811   */\n      pop\n      pop\n      jump\t// out\n        /* \"#utility.yul\":10817:11360   */\n    tag_192:\n        /* \"#utility.yul\":10918:10920   */\n      0x1f\n        /* \"#utility.yul\":10913:10916   */\n      dup3\n        /* \"#utility.yul\":10910:10921   */\n      gt\n        /* \"#utility.yul\":10907:11353   */\n      iszero\n      tag_338\n      jumpi\n        /* \"#utility.yul\":10952:10990   */\n      tag_339\n        /* \"#utility.yul\":10984:10989   */\n      dup2\n        /* \"#utility.yul\":10952:10990   */\n      tag_181\n      jump\t// in\n    tag_339:\n        /* \"#utility.yul\":11036:11065   */\n      tag_340\n        /* \"#utility.yul\":11054:11064   */\n      dup5\n        /* \"#utility.yul\":11036:11065   */\n      tag_182\n      jump\t// in\n    tag_340:\n        /* \"#utility.yul\":11026:11034   */\n      dup2\n        /* \"#utility.yul\":11022:11066   */\n      add\n        /* \"#utility.yul\":11219:11221   */\n      0x20\n        /* \"#utility.yul\":11207:11217   */\n      dup6\n        /* \"#utility.yul\":11204:11222   */\n      lt\n        /* \"#utility.yul\":11201:11250   */\n      iszero\n      tag_341\n      jumpi\n        /* \"#utility.yul\":11240:11248   */\n      dup2\n        /* \"#utility.yul\":11225:11248   */\n      swap1\n      pop\n        /* \"#utility.yul\":11201:11250   */\n    tag_341:\n        /* \"#utility.yul\":11263:11343   */\n      tag_342\n        /* \"#utility.yul\":11319:11341   */\n      tag_343\n        /* \"#utility.yul\":11337:11340   */\n      dup6\n        /* \"#utility.yul\":11319:11341   */\n      tag_182\n      jump\t// in\n    tag_343:\n        /* \"#utility.yul\":11309:11317   */\n      dup4\n        /* \"#utility.yul\":11305:11342   */\n      add\n        /* \"#utility.yul\":11292:11303   */\n      dup3\n        /* \"#utility.yul\":11263:11343   */\n      tag_191\n      jump\t// in\n    tag_342:\n        /* \"#utility.yul\":10922:11353   */\n      pop\n      pop\n        /* \"#utility.yul\":10907:11353   */\n    tag_338:\n        /* \"#utility.yul\":10817:11360   */\n      pop\n      pop\n      pop\n      jump\t// out\n        /* \"#utility.yul\":11366:11483   */\n    tag_193:\n        /* \"#utility.yul\":11420:11428   */\n      0x00\n        /* \"#utility.yul\":11470:11475   */\n      dup3\n        /* \"#utility.yul\":11464:11468   */\n      dup3\n        /* \"#utility.yul\":11460:11476   */\n      shr\n        /* \"#utility.yul\":11439:11476   */\n      swap1\n      pop\n        /* \"#utility.yul\":11366:11483   */\n      swap3\n      swap2\n      pop\n      pop\n      jump\t// out\n        /* \"#utility.yul\":11489:11658   */\n    tag_194:\n        /* \"#utility.yul\":11533:11539   */\n      0x00\n        /* \"#utility.yul\":11566:11617   */\n      tag_346\n        /* \"#utility.yul\":11614:11615   */\n      0x00\n        /* \"#utility.yul\":11610:11616   */\n      not\n        /* \"#utility.yul\":11602:11607   */\n      dup5\n        /* \"#utility.yul\":11599:11600   */\n      0x08\n        /* \"#utility.yul\":11595:11608   */\n      mul\n        /* \"#utility.yul\":11566:11617   */\n      tag_193\n      jump\t// in\n    tag_346:\n        /* \"#utility.yul\":11562:11618   */\n      not\n        /* \"#utility.yul\":11647:11651   */\n      dup1\n        /* \"#utility.yul\":11641:11645   */\n      dup4\n        /* \"#utility.yul\":11637:11652   */\n      and\n        /* \"#utility.yul\":11627:11652   */\n      swap2\n      pop\n        /* \"#utility.yul\":11540:11658   */\n      pop\n        /* \"#utility.yul\":11489:11658   */\n      swap3\n      swap2\n      pop\n      pop\n      jump\t// out\n        /* \"#utility.yul\":11663:11958   */\n    tag_195:\n        /* \"#utility.yul\":11739:11743   */\n      0x00\n        /* \"#utility.yul\":11885:11914   */\n      tag_348\n        /* \"#utility.yul\":11910:11913   */\n      dup4\n        /* \"#utility.yul\":11904:11908   */\n      dup4\n        /* \"#utility.yul\":11885:11914   */\n      tag_194\n      jump\t// in\n    tag_348:\n        /* \"#utility.yul\":11877:11914   */\n      swap2\n      pop\n        /* \"#utility.yul\":11947:11950   */\n      dup3\n        /* \"#utility.yul\":11944:11945   */\n      0x02\n        /* \"#utility.yul\":11940:11951   */\n      mul\n        /* \"#utility.yul\":11934:11938   */\n      dup3\n        /* \"#utility.yul\":11931:11952   */\n      or\n        /* \"#utility.yul\":11923:11952   */\n      swap1\n      pop\n        /* \"#utility.yul\":11663:11958   */\n      swap3\n      swap2\n      pop\n      pop\n      jump\t// out\n        /* \"#utility.yul\":11963:13366   */\n    tag_93:\n        /* \"#utility.yul\":12087:12131   */\n      tag_350\n        /* \"#utility.yul\":12127:12130   */\n      dup4\n        /* \"#utility.yul\":12122:12125   */\n      dup4\n        /* \"#utility.yul\":12087:12131   */\n      tag_178\n      jump\t// in\n    tag_350:\n        /* \"#utility.yul\":12196:12214   */\n      0xffffffffffffffff\n        /* \"#utility.yul\":12188:12194   */\n      dup2\n        /* \"#utility.yul\":12185:12215   */\n      gt\n        /* \"#utility.yul\":12182:12238   */\n      iszero\n      tag_351\n      jumpi\n        /* \"#utility.yul\":12218:12236   */\n      tag_352\n      tag_179\n      jump\t// in\n    tag_352:\n        /* \"#utility.yul\":12182:12238   */\n    tag_351:\n        /* \"#utility.yul\":12262:12300   */\n      tag_353\n        /* \"#utility.yul\":12294:12298   */\n      dup3\n        /* \"#utility.yul\":12288:12299   */\n      sload\n        /* \"#utility.yul\":12262:12300   */\n      tag_143\n      jump\t// in\n    tag_353:\n        /* \"#utility.yul\":12347:12414   */\n      tag_354\n        /* \"#utility.yul\":12407:12413   */\n      dup3\n        /* \"#utility.yul\":12399:12405   */\n      dup3\n        /* \"#utility.yul\":12393:12397   */\n      dup6\n        /* \"#utility.yul\":12347:12414   */\n      tag_192\n      jump\t// in\n    tag_354:\n        /* \"#utility.yul\":12441:12442   */\n      0x00\n        /* \"#utility.yul\":12470:12472   */\n      0x1f\n        /* \"#utility.yul\":12462:12468   */\n      dup4\n        /* \"#utility.yul\":12459:12473   */\n      gt\n        /* \"#utility.yul\":12487:12488   */\n      0x01\n        /* \"#utility.yul\":12482:13114   */\n      dup2\n      eq\n      tag_356\n      jumpi\n        /* \"#utility.yul\":13158:13159   */\n      0x00\n        /* \"#utility.yul\":13175:13181   */\n      dup5\n        /* \"#utility.yul\":13172:13256   */\n      iszero\n      tag_357\n      jumpi\n        /* \"#utility.yul\":13231:13240   */\n      dup3\n        /* \"#utility.yul\":13226:13229   */\n      dup8\n        /* \"#utility.yul\":13222:13241   */\n      add\n        /* \"#utility.yul\":13209:13242   */\n      calldataload\n        /* \"#utility.yul\":13200:13242   */\n      swap1\n      pop\n        /* \"#utility.yul\":13172:13256   */\n    tag_357:\n        /* \"#utility.yul\":13282:13349   */\n      tag_358\n        /* \"#utility.yul\":13342:13348   */\n      dup6\n        /* \"#utility.yul\":13335:13340   */\n      dup3\n        /* \"#utility.yul\":13282:13349   */\n      tag_195\n      jump\t// in\n    tag_358:\n        /* \"#utility.yul\":13276:13280   */\n      dup7\n        /* \"#utility.yul\":13269:13350   */\n      sstore\n        /* \"#utility.yul\":13131:13360   */\n      pop\n        /* \"#utility.yul\":12452:13360   */\n      jump(tag_355)\n        /* \"#utility.yul\":12482:13114   */\n    tag_356:\n        /* \"#utility.yul\":12534:12538   */\n      0x1f\n        /* \"#utility.yul\":12530:12539   */\n      not\n        /* \"#utility.yul\":12522:12528   */\n      dup5\n        /* \"#utility.yul\":12518:12540   */\n      and\n        /* \"#utility.yul\":12568:12605   */\n      tag_359\n        /* \"#utility.yul\":12600:12604   */\n      dup7\n        /* \"#utility.yul\":12568:12605   */\n      tag_181\n      jump\t// in\n    tag_359:\n        /* \"#utility.yul\":12627:12628   */\n      0x00\n        /* \"#utility.yul\":12641:12856   */\n    tag_360:\n        /* \"#utility.yul\":12655:12662   */\n      dup3\n        /* \"#utility.yul\":12652:12653   */\n      dup2\n        /* \"#utility.yul\":12649:12663   */\n      lt\n        /* \"#utility.yul\":12641:12856   */\n      iszero\n      tag_362\n      jumpi\n        /* \"#utility.yul\":12741:12750   */\n      dup5\n        /* \"#utility.yul\":12736:12739   */\n      dup10\n        /* \"#utility.yul\":12732:12751   */\n      add\n        /* \"#utility.yul\":12719:12752   */\n      calldataload\n        /* \"#utility.yul\":12711:12717   */\n      dup3\n        /* \"#utility.yul\":12704:12753   */\n      sstore\n        /* \"#utility.yul\":12792:12793   */\n      0x01\n        /* \"#utility.yul\":12784:12790   */\n      dup3\n        /* \"#utility.yul\":12780:12794   */\n      add\n        /* \"#utility.yul\":12770:12794   */\n      swap2\n      pop\n        /* \"#utility.yul\":12839:12841   */\n      0x20\n        /* \"#utility.yul\":12828:12837   */\n      dup6\n        /* \"#utility.yul\":12824:12842   */\n      add\n        /* \"#utility.yul\":12811:12842   */\n      swap5\n      pop\n        /* \"#utility.yul\":12678:12682   */\n      0x20\n        /* \"#utility.yul\":12675:12676   */\n      dup2\n        /* \"#utility.yul\":12671:12683   */\n      add\n        /* \"#utility.yul\":12666:12683   */\n      swap1\n      pop\n        /* \"#utility.yul\":12641:12856   */\n      jump(tag_360)\n    tag_362:\n        /* \"#utility.yul\":12884:12890   */\n      dup7\n        /* \"#utility.yul\":12875:12882   */\n      dup4\n        /* \"#utility.yul\":12872:12891   */\n      lt\n        /* \"#utility.yul\":12869:13055   */\n      iszero\n      tag_363\n      jumpi\n        /* \"#utility.yul\":12949:12958   */\n      dup5\n        /* \"#utility.yul\":12944:12947   */\n      dup10\n        /* \"#utility.yul\":12940:12959   */\n      add\n        /* \"#utility.yul\":12927:12960   */\n      calldataload\n        /* \"#utility.yul\":12992:13040   */\n      tag_364\n        /* \"#utility.yul\":13034:13038   */\n      0x1f\n        /* \"#utility.yul\":13026:13032   */\n      dup10\n        /* \"#utility.yul\":13022:13039   */\n      and\n        /* \"#utility.yul\":13011:13020   */\n      dup3\n        /* \"#utility.yul\":12992:13040   */\n      tag_194\n      jump\t// in\n    tag_364:\n        /* \"#utility.yul\":12984:12990   */\n      dup4\n        /* \"#utility.yul\":12977:13041   */\n      sstore\n        /* \"#utility.yul\":12892:13055   */\n      pop\n        /* \"#utility.yul\":12869:13055   */\n    tag_363:\n        /* \"#utility.yul\":13101:13102   */\n      0x01\n        /* \"#utility.yul\":13097:13098   */\n      0x02\n        /* \"#utility.yul\":13089:13095   */\n      dup9\n        /* \"#utility.yul\":13085:13099   */\n      mul\n        /* \"#utility.yul\":13081:13103   */\n      add\n        /* \"#utility.yul\":13075:13079   */\n      dup9\n        /* \"#utility.yul\":13068:13104   */\n      sstore\n        /* \"#utility.yul\":12489:13114   */\n      pop\n      pop\n      pop\n        /* \"#utility.yul\":12452:13360   */\n    tag_355:\n      pop\n        /* \"#utility.yul\":12062:13366   */\n      pop\n      pop\n      pop\n        /* \"#utility.yul\":11963:13366   */\n      pop\n      pop\n      pop\n      jump\t// out\n        /* \"#utility.yul\":13372:13547   */\n    tag_196:\n        /* \"#utility.yul\":13512:13539   */\n      0x596f7520617265206e6f74206120636f6e747269627574657200000000000000\n        /* \"#utility.yul\":13508:13509   */\n      0x00\n        /* \"#utility.yul\":13500:13506   */\n      dup3\n        /* \"#utility.yul\":13496:13510   */\n      add\n        /* \"#utility.yul\":13489:13540   */\n      mstore\n        /* \"#utility.yul\":13372:13547   */\n      pop\n      jump\t// out\n        /* \"#utility.yul\":13553:13919   */\n    tag_197:\n        /* \"#utility.yul\":13695:13698   */\n      0x00\n        /* \"#utility.yul\":13716:13783   */\n      tag_367\n        /* \"#utility.yul\":13780:13782   */\n      0x19\n        /* \"#utility.yul\":13775:13778   */\n      dup4\n        /* \"#utility.yul\":13716:13783   */\n      tag_168\n      jump\t// in\n    tag_367:\n        /* \"#utility.yul\":13709:13783   */\n      swap2\n      pop\n        /* \"#utility.yul\":13792:13885   */\n      tag_368\n        /* \"#utility.yul\":13881:13884   */\n      dup3\n        /* \"#utility.yul\":13792:13885   */\n      tag_196\n      jump\t// in\n    tag_368:\n        /* \"#utility.yul\":13910:13912   */\n      0x20\n        /* \"#utility.yul\":13905:13908   */\n      dup3\n        /* \"#utility.yul\":13901:13913   */\n      add\n        /* \"#utility.yul\":13894:13913   */\n      swap1\n      pop\n        /* \"#utility.yul\":13553:13919   */\n      swap2\n      swap1\n      pop\n      jump\t// out\n        /* \"#utility.yul\":13925:14344   */\n    tag_97:\n        /* \"#utility.yul\":14091:14095   */\n      0x00\n        /* \"#utility.yul\":14129:14131   */\n      0x20\n        /* \"#utility.yul\":14118:14127   */\n      dup3\n        /* \"#utility.yul\":14114:14132   */\n      add\n        /* \"#utility.yul\":14106:14132   */\n      swap1\n      pop\n        /* \"#utility.yul\":14178:14187   */\n      dup2\n        /* \"#utility.yul\":14172:14176   */\n      dup2\n        /* \"#utility.yul\":14168:14188   */\n      sub\n        /* \"#utility.yul\":14164:14165   */\n      0x00\n        /* \"#utility.yul\":14153:14162   */\n      dup4\n        /* \"#utility.yul\":14149:14166   */\n      add\n        /* \"#utility.yul\":14142:14189   */\n      mstore\n        /* \"#utility.yul\":14206:14337   */\n      tag_370\n        /* \"#utility.yul\":14332:14336   */\n      dup2\n        /* \"#utility.yul\":14206:14337   */\n      tag_197\n      jump\t// in\n    tag_370:\n        /* \"#utility.yul\":14198:14337   */\n      swap1\n      pop\n        /* \"#utility.yul\":13925:14344   */\n      swap2\n      swap1\n      pop\n      jump\t// out\n        /* \"#utility.yul\":14350:14522   */\n    tag_198:\n        /* \"#utility.yul\":14490:14514   */\n      0x596f75206861766520616c726561647920766f74656400000000000000000000\n        /* \"#utility.yul\":14486:14487   */\n      0x00\n        /* \"#utility.yul\":14478:14484   */\n      dup3\n        /* \"#utility.yul\":14474:14488   */\n      add\n        /* \"#utility.yul\":14467:14515   */\n      mstore\n        /* \"#utility.yul\":14350:14522   */\n      pop\n      jump\t// out\n        /* \"#utility.yul\":14528:14894   */\n    tag_199:\n        /* \"#utility.yul\":14670:14673   */\n      0x00\n        /* \"#utility.yul\":14691:14758   */\n      tag_373\n        /* \"#utility.yul\":14755:14757   */\n      0x16\n        /* \"#utility.yul\":14750:14753   */\n      dup4\n        /* \"#utility.yul\":14691:14758   */\n      tag_168\n      jump\t// in\n    tag_373:\n        /* \"#utility.yul\":14684:14758   */\n      swap2\n      pop\n        /* \"#utility.yul\":14767:14860   */\n      tag_374\n        /* \"#utility.yul\":14856:14859   */\n      dup3\n        /* \"#utility.yul\":14767:14860   */\n      tag_198\n      jump\t// in\n    tag_374:\n        /* \"#utility.yul\":14885:14887   */\n      0x20\n        /* \"#utility.yul\":14880:14883   */\n      dup3\n        /* \"#utility.yul\":14876:14888   */\n      add\n        /* \"#utility.yul\":14869:14888   */\n      swap1\n      pop\n        /* \"#utility.yul\":14528:14894   */\n      swap2\n      swap1\n      pop\n      jump\t// out\n        /* \"#utility.yul\":14900:15319   */\n    tag_100:\n        /* \"#utility.yul\":15066:15070   */\n      0x00\n        /* \"#utility.yul\":15104:15106   */\n      0x20\n        /* \"#utility.yul\":15093:15102   */\n      dup3\n        /* \"#utility.yul\":15089:15107   */\n      add\n        /* \"#utility.yul\":15081:15107   */\n      swap1\n      pop\n        /* \"#utility.yul\":15153:15162   */\n      dup2\n        /* \"#utility.yul\":15147:15151   */\n      dup2\n        /* \"#utility.yul\":15143:15163   */\n      sub\n        /* \"#utility.yul\":15139:15140   */\n      0x00\n        /* \"#utility.yul\":15128:15137   */\n      dup4\n        /* \"#utility.yul\":15124:15141   */\n      add\n        /* \"#utility.yul\":15117:15164   */\n      mstore\n        /* \"#utility.yul\":15181:15312   */\n      tag_376\n        /* \"#utility.yul\":15307:15311   */\n      dup2\n        /* \"#utility.yul\":15181:15312   */\n      tag_199\n      jump\t// in\n    tag_376:\n        /* \"#utility.yul\":15173:15312   */\n      swap1\n      pop\n        /* \"#utility.yul\":14900:15319   */\n      swap2\n      swap1\n      pop\n      jump\t// out\n        /* \"#utility.yul\":15325:15494   */\n    tag_200:\n        /* \"#utility.yul\":15465:15486   */\n      0x446561646c696e65206861732070617373656400000000000000000000000000\n        /* \"#utility.yul\":15461:15462   */\n      0x00\n        /* \"#utility.yul\":15453:15459   */\n      dup3\n        /* \"#utility.yul\":15449:15463   */\n      add\n        /* \"#utility.yul\":15442:15487   */\n      mstore\n        /* \"#utility.yul\":15325:15494   */\n      pop\n      jump\t// out\n        /* \"#utility.yul\":15500:15866   */\n    tag_201:\n        /* \"#utility.yul\":15642:15645   */\n      0x00\n        /* \"#utility.yul\":15663:15730   */\n      tag_379\n        /* \"#utility.yul\":15727:15729   */\n      0x13\n        /* \"#utility.yul\":15722:15725   */\n      dup4\n        /* \"#utility.yul\":15663:15730   */\n      tag_168\n      jump\t// in\n    tag_379:\n        /* \"#utility.yul\":15656:15730   */\n      swap2\n      pop\n        /* \"#utility.yul\":15739:15832   */\n      tag_380\n        /* \"#utility.yul\":15828:15831   */\n      dup3\n        /* \"#utility.yul\":15739:15832   */\n      tag_200\n      jump\t// in\n    tag_380:\n        /* \"#utility.yul\":15857:15859   */\n      0x20\n        /* \"#utility.yul\":15852:15855   */\n      dup3\n        /* \"#utility.yul\":15848:15860   */\n      add\n        /* \"#utility.yul\":15841:15860   */\n      swap1\n      pop\n        /* \"#utility.yul\":15500:15866   */\n      swap2\n      swap1\n      pop\n      jump\t// out\n        /* \"#utility.yul\":15872:16291   */\n    tag_105:\n        /* \"#utility.yul\":16038:16042   */\n      0x00\n        /* \"#utility.yul\":16076:16078   */\n      0x20\n        /* \"#utility.yul\":16065:16074   */\n      dup3\n        /* \"#utility.yul\":16061:16079   */\n      add\n        /* \"#utility.yul\":16053:16079   */\n      swap1\n      pop\n        /* \"#utility.yul\":16125:16134   */\n      dup2\n        /* \"#utility.yul\":16119:16123   */\n      dup2\n        /* \"#utility.yul\":16115:16135   */\n      sub\n        /* \"#utility.yul\":16111:16112   */\n      0x00\n        /* \"#utility.yul\":16100:16109   */\n      dup4\n        /* \"#utility.yul\":16096:16113   */\n      add\n        /* \"#utility.yul\":16089:16136   */\n      mstore\n        /* \"#utility.yul\":16153:16284   */\n      tag_382\n        /* \"#utility.yul\":16279:16283   */\n      dup2\n        /* \"#utility.yul\":16153:16284   */\n      tag_201\n      jump\t// in\n    tag_382:\n        /* \"#utility.yul\":16145:16284   */\n      swap1\n      pop\n        /* \"#utility.yul\":15872:16291   */\n      swap2\n      swap1\n      pop\n      jump\t// out\n        /* \"#utility.yul\":16297:16532   */\n    tag_202:\n        /* \"#utility.yul\":16437:16471   */\n      0x7061796d656e742073686f756c64206265206d6f7265207468616e206d696e69\n        /* \"#utility.yul\":16433:16434   */\n      0x00\n        /* \"#utility.yul\":16425:16431   */\n      dup3\n        /* \"#utility.yul\":16421:16435   */\n      add\n        /* \"#utility.yul\":16414:16472   */\n      mstore\n        /* \"#utility.yul\":16506:16524   */\n      0x6d756d20636f6e747269627574696f6e00000000000000000000000000000000\n        /* \"#utility.yul\":16501:16503   */\n      0x20\n        /* \"#utility.yul\":16493:16499   */\n      dup3\n        /* \"#utility.yul\":16489:16504   */\n      add\n        /* \"#utility.yul\":16482:16525   */\n      mstore\n        /* \"#utility.yul\":16297:16532   */\n      pop\n      jump\t// out\n        /* \"#utility.yul\":16538:16904   */\n    tag_203:\n        /* \"#utility.yul\":16680:16683   */\n      0x00\n        /* \"#utility.yul\":16701:16768   */\n      tag_385\n        /* \"#utility.yul\":16765:16767   */\n      0x30\n        /* \"#utility.yul\":16760:16763   */\n      dup4\n        /* \"#utility.yul\":16701:16768   */\n      tag_168\n      jump\t// in\n    tag_385:\n        /* \"#utility.yul\":16694:16768   */\n      swap2\n      pop\n        /* \"#utility.yul\":16777:16870   */\n      tag_386\n        /* \"#utility.yul\":16866:16869   */\n      dup3\n        /* \"#utility.yul\":16777:16870   */\n      tag_202\n      jump\t// in\n    tag_386:\n        /* \"#utility.yul\":16895:16897   */\n      0x40\n        /* \"#utility.yul\":16890:16893   */\n      dup3\n        /* \"#utility.yul\":16886:16898   */\n      add\n        /* \"#utility.yul\":16879:16898   */\n      swap1\n      pop\n        /* \"#utility.yul\":16538:16904   */\n      swap2\n      swap1\n      pop\n      jump\t// out\n        /* \"#utility.yul\":16910:17329   */\n    tag_108:\n        /* \"#utility.yul\":17076:17080   */\n      0x00\n        /* \"#utility.yul\":17114:17116   */\n      0x20\n        /* \"#utility.yul\":17103:17112   */\n      dup3\n        /* \"#utility.yul\":17099:17117   */\n      add\n        /* \"#utility.yul\":17091:17117   */\n      swap1\n      pop\n        /* \"#utility.yul\":17163:17172   */\n      dup2\n        /* \"#utility.yul\":17157:17161   */\n      dup2\n        /* \"#utility.yul\":17153:17173   */\n      sub\n        /* \"#utility.yul\":17149:17150   */\n      0x00\n        /* \"#utility.yul\":17138:17147   */\n      dup4\n        /* \"#utility.yul\":17134:17151   */\n      add\n        /* \"#utility.yul\":17127:17174   */\n      mstore\n        /* \"#utility.yul\":17191:17322   */\n      tag_388\n        /* \"#utility.yul\":17317:17321   */\n      dup2\n        /* \"#utility.yul\":17191:17322   */\n      tag_203\n      jump\t// in\n    tag_388:\n        /* \"#utility.yul\":17183:17322   */\n      swap1\n      pop\n        /* \"#utility.yul\":16910:17329   */\n      swap2\n      swap1\n      pop\n      jump\t// out\n        /* \"#utility.yul\":17335:17526   */\n    tag_112:\n        /* \"#utility.yul\":17375:17378   */\n      0x00\n        /* \"#utility.yul\":17394:17414   */\n      tag_390\n        /* \"#utility.yul\":17412:17413   */\n      dup3\n        /* \"#utility.yul\":17394:17414   */\n      tag_148\n      jump\t// in\n    tag_390:\n        /* \"#utility.yul\":17389:17414   */\n      swap2\n      pop\n        /* \"#utility.yul\":17428:17448   */\n      tag_391\n        /* \"#utility.yul\":17446:17447   */\n      dup4\n        /* \"#utility.yul\":17428:17448   */\n      tag_148\n      jump\t// in\n    tag_391:\n        /* \"#utility.yul\":17423:17448   */\n      swap3\n      pop\n        /* \"#utility.yul\":17471:17472   */\n      dup3\n        /* \"#utility.yul\":17468:17469   */\n      dup3\n        /* \"#utility.yul\":17464:17473   */\n      add\n        /* \"#utility.yul\":17457:17473   */\n      swap1\n      pop\n        /* \"#utility.yul\":17492:17495   */\n      dup1\n        /* \"#utility.yul\":17489:17490   */\n      dup3\n        /* \"#utility.yul\":17486:17496   */\n      gt\n        /* \"#utility.yul\":17483:17519   */\n      iszero\n      tag_392\n      jumpi\n        /* \"#utility.yul\":17499:17517   */\n      tag_393\n      tag_177\n      jump\t// in\n    tag_393:\n        /* \"#utility.yul\":17483:17519   */\n    tag_392:\n        /* \"#utility.yul\":17335:17526   */\n      swap3\n      swap2\n      pop\n      pop\n      jump\t// out\n        /* \"#utility.yul\":17532:17703   */\n    tag_204:\n        /* \"#utility.yul\":17672:17695   */\n      0x746172676574206973206e6f7420726561636865640000000000000000000000\n        /* \"#utility.yul\":17668:17669   */\n      0x00\n        /* \"#utility.yul\":17660:17666   */\n      dup3\n        /* \"#utility.yul\":17656:17670   */\n      add\n        /* \"#utility.yul\":17649:17696   */\n      mstore\n        /* \"#utility.yul\":17532:17703   */\n      pop\n      jump\t// out\n        /* \"#utility.yul\":17709:18075   */\n    tag_205:\n        /* \"#utility.yul\":17851:17854   */\n      0x00\n        /* \"#utility.yul\":17872:17939   */\n      tag_396\n        /* \"#utility.yul\":17936:17938   */\n      0x15\n        /* \"#utility.yul\":17931:17934   */\n      dup4\n        /* \"#utility.yul\":17872:17939   */\n      tag_168\n      jump\t// in\n    tag_396:\n        /* \"#utility.yul\":17865:17939   */\n      swap2\n      pop\n        /* \"#utility.yul\":17948:18041   */\n      tag_397\n        /* \"#utility.yul\":18037:18040   */\n      dup3\n        /* \"#utility.yul\":17948:18041   */\n      tag_204\n      jump\t// in\n    tag_397:\n        /* \"#utility.yul\":18066:18068   */\n      0x20\n        /* \"#utility.yul\":18061:18064   */\n      dup3\n        /* \"#utility.yul\":18057:18069   */\n      add\n        /* \"#utility.yul\":18050:18069   */\n      swap1\n      pop\n        /* \"#utility.yul\":17709:18075   */\n      swap2\n      swap1\n      pop\n      jump\t// out\n        /* \"#utility.yul\":18081:18500   */\n    tag_120:\n        /* \"#utility.yul\":18247:18251   */\n      0x00\n        /* \"#utility.yul\":18285:18287   */\n      0x20\n        /* \"#utility.yul\":18274:18283   */\n      dup3\n        /* \"#utility.yul\":18270:18288   */\n      add\n        /* \"#utility.yul\":18262:18288   */\n      swap1\n      pop\n        /* \"#utility.yul\":18334:18343   */\n      dup2\n        /* \"#utility.yul\":18328:18332   */\n      dup2\n        /* \"#utility.yul\":18324:18344   */\n      sub\n        /* \"#utility.yul\":18320:18321   */\n      0x00\n        /* \"#utility.yul\":18309:18318   */\n      dup4\n        /* \"#utility.yul\":18305:18322   */\n      add\n        /* \"#utility.yul\":18298:18345   */\n      mstore\n        /* \"#utility.yul\":18362:18493   */\n      tag_399\n        /* \"#utility.yul\":18488:18492   */\n      dup2\n        /* \"#utility.yul\":18362:18493   */\n      tag_205\n      jump\t// in\n    tag_399:\n        /* \"#utility.yul\":18354:18493   */\n      swap1\n      pop\n        /* \"#utility.yul\":18081:18500   */\n      swap2\n      swap1\n      pop\n      jump\t// out\n        /* \"#utility.yul\":18506:18686   */\n    tag_206:\n        /* \"#utility.yul\":18646:18678   */\n      0x746865207265717565737420686173206265656e20636f6d706c657465640000\n        /* \"#utility.yul\":18642:18643   */\n      0x00\n        /* \"#utility.yul\":18634:18640   */\n      dup3\n        /* \"#utility.yul\":18630:18644   */\n      add\n        /* \"#utility.yul\":18623:18679   */\n      mstore\n        /* \"#utility.yul\":18506:18686   */\n      pop\n      jump\t// out\n        /* \"#utility.yul\":18692:19058   */\n    tag_207:\n        /* \"#utility.yul\":18834:18837   */\n      0x00\n        /* \"#utility.yul\":18855:18922   */\n      tag_402\n        /* \"#utility.yul\":18919:18921   */\n      0x1e\n        /* \"#utility.yul\":18914:18917   */\n      dup4\n        /* \"#utility.yul\":18855:18922   */\n      tag_168\n      jump\t// in\n    tag_402:\n        /* \"#utility.yul\":18848:18922   */\n      swap2\n      pop\n        /* \"#utility.yul\":18931:19024   */\n      tag_403\n        /* \"#utility.yul\":19020:19023   */\n      dup3\n        /* \"#utility.yul\":18931:19024   */\n      tag_206\n      jump\t// in\n    tag_403:\n        /* \"#utility.yul\":19049:19051   */\n      0x20\n        /* \"#utility.yul\":19044:19047   */\n      dup3\n        /* \"#utility.yul\":19040:19052   */\n      add\n        /* \"#utility.yul\":19033:19052   */\n      swap1\n      pop\n        /* \"#utility.yul\":18692:19058   */\n      swap2\n      swap1\n      pop\n      jump\t// out\n        /* \"#utility.yul\":19064:19483   */\n    tag_123:\n        /* \"#utility.yul\":19230:19234   */\n      0x00\n        /* \"#utility.yul\":19268:19270   */\n      0x20\n        /* \"#utility.yul\":19257:19266   */\n      dup3\n        /* \"#utility.yul\":19253:19271   */\n      add\n        /* \"#utility.yul\":19245:19271   */\n      swap1\n      pop\n        /* \"#utility.yul\":19317:19326   */\n      dup2\n        /* \"#utility.yul\":19311:19315   */\n      dup2\n        /* \"#utility.yul\":19307:19327   */\n      sub\n        /* \"#utility.yul\":19303:19304   */\n      0x00\n        /* \"#utility.yul\":19292:19301   */\n      dup4\n        /* \"#utility.yul\":19288:19305   */\n      add\n        /* \"#utility.yul\":19281:19328   */\n      mstore\n        /* \"#utility.yul\":19345:19476   */\n      tag_405\n        /* \"#utility.yul\":19471:19475   */\n      dup2\n        /* \"#utility.yul\":19345:19476   */\n      tag_207\n      jump\t// in\n    tag_405:\n        /* \"#utility.yul\":19337:19476   */\n      swap1\n      pop\n        /* \"#utility.yul\":19064:19483   */\n      swap2\n      swap1\n      pop\n      jump\t// out\n        /* \"#utility.yul\":19489:19669   */\n    tag_208:\n        /* \"#utility.yul\":19537:19614   */\n      0x4e487b7100000000000000000000000000000000000000000000000000000000\n        /* \"#utility.yul\":19534:19535   */\n      0x00\n        /* \"#utility.yul\":19527:19615   */\n      mstore\n        /* \"#utility.yul\":19634:19638   */\n      0x12\n        /* \"#utility.yul\":19631:19632   */\n      0x04\n        /* \"#utility.yul\":19624:19639   */\n      mstore\n        /* \"#utility.yul\":19658:19662   */\n      0x24\n        /* \"#utility.yul\":19655:19656   */\n      0x00\n        /* \"#utility.yul\":19648:19663   */\n      revert\n        /* \"#utility.yul\":19675:19860   */\n    tag_125:\n        /* \"#utility.yul\":19715:19716   */\n      0x00\n        /* \"#utility.yul\":19732:19752   */\n      tag_408\n        /* \"#utility.yul\":19750:19751   */\n      dup3\n        /* \"#utility.yul\":19732:19752   */\n      tag_148\n      jump\t// in\n    tag_408:\n        /* \"#utility.yul\":19727:19752   */\n      swap2\n      pop\n        /* \"#utility.yul\":19766:19786   */\n      tag_409\n        /* \"#utility.yul\":19784:19785   */\n      dup4\n        /* \"#utility.yul\":19766:19786   */\n      tag_148\n      jump\t// in\n    tag_409:\n        /* \"#utility.yul\":19761:19786   */\n      swap3\n      pop\n        /* \"#utility.yul\":19805:19806   */\n      dup3\n        /* \"#utility.yul\":19795:19830   */\n      tag_410\n      jumpi\n        /* \"#utility.yul\":19810:19828   */\n      tag_411\n      tag_208\n      jump\t// in\n    tag_411:\n        /* \"#utility.yul\":19795:19830   */\n    tag_410:\n        /* \"#utility.yul\":19852:19853   */\n      dup3\n        /* \"#utility.yul\":19849:19850   */\n      dup3\n        /* \"#utility.yul\":19845:19854   */\n      div\n        /* \"#utility.yul\":19840:19854   */\n      swap1\n      pop\n        /* \"#utility.yul\":19675:19860   */\n      swap3\n      swap2\n      pop\n      pop\n      jump\t// out\n        /* \"#utility.yul\":19866:20090   */\n    tag_209:\n        /* \"#utility.yul\":20006:20040   */\n      0x6d616a6f7269747920646f6573206e6f7420737570706f727420746865207265\n        /* \"#utility.yul\":20002:20003   */\n      0x00\n        /* \"#utility.yul\":19994:20000   */\n      dup3\n        /* \"#utility.yul\":19990:20004   */\n      add\n        /* \"#utility.yul\":19983:20041   */\n      mstore\n        /* \"#utility.yul\":20075:20082   */\n      0x7175657374000000000000000000000000000000000000000000000000000000\n        /* \"#utility.yul\":20070:20072   */\n      0x20\n        /* \"#utility.yul\":20062:20068   */\n      dup3\n        /* \"#utility.yul\":20058:20073   */\n      add\n        /* \"#utility.yul\":20051:20083   */\n      mstore\n        /* \"#utility.yul\":19866:20090   */\n      pop\n      jump\t// out\n        /* \"#utility.yul\":20096:20462   */\n    tag_210:\n        /* \"#utility.yul\":20238:20241   */\n      0x00\n        /* \"#utility.yul\":20259:20326   */\n      tag_414\n        /* \"#utility.yul\":20323:20325   */\n      0x25\n        /* \"#utility.yul\":20318:20321   */\n      dup4\n        /* \"#utility.yul\":20259:20326   */\n      tag_168\n      jump\t// in\n    tag_414:\n        /* \"#utility.yul\":20252:20326   */\n      swap2\n      pop\n        /* \"#utility.yul\":20335:20428   */\n      tag_415\n        /* \"#utility.yul\":20424:20427   */\n      dup3\n        /* \"#utility.yul\":20335:20428   */\n      tag_209\n      jump\t// in\n    tag_415:\n        /* \"#utility.yul\":20453:20455   */\n      0x40\n        /* \"#utility.yul\":20448:20451   */\n      dup3\n        /* \"#utility.yul\":20444:20456   */\n      add\n        /* \"#utility.yul\":20437:20456   */\n      swap1\n      pop\n        /* \"#utility.yul\":20096:20462   */\n      swap2\n      swap1\n      pop\n      jump\t// out\n        /* \"#utility.yul\":20468:20887   */\n    tag_128:\n        /* \"#utility.yul\":20634:20638   */\n      0x00\n        /* \"#utility.yul\":20672:20674   */\n      0x20\n        /* \"#utility.yul\":20661:20670   */\n      dup3\n        /* \"#utility.yul\":20657:20675   */\n      add\n        /* \"#utility.yul\":20649:20675   */\n      swap1\n      pop\n        /* \"#utility.yul\":20721:20730   */\n      dup2\n        /* \"#utility.yul\":20715:20719   */\n      dup2\n        /* \"#utility.yul\":20711:20731   */\n      sub\n        /* \"#utility.yul\":20707:20708   */\n      0x00\n        /* \"#utility.yul\":20696:20705   */\n      dup4\n        /* \"#utility.yul\":20692:20709   */\n      add\n        /* \"#utility.yul\":20685:20732   */\n      mstore\n        /* \"#utility.yul\":20749:20880   */\n      tag_417\n        /* \"#utility.yul\":20875:20879   */\n      dup2\n        /* \"#utility.yul\":20749:20880   */\n      tag_210\n      jump\t// in\n    tag_417:\n        /* \"#utility.yul\":20741:20880   */\n      swap1\n      pop\n        /* \"#utility.yul\":20468:20887   */\n      swap2\n      swap1\n      pop\n      jump\t// out\n        /* \"#utility.yul\":20893:21073   */\n    tag_211:\n        /* \"#utility.yul\":21033:21065   */\n      0x596f7520617265206e6f7420656c6769626c6520666f7220726566756e640000\n        /* \"#utility.yul\":21029:21030   */\n      0x00\n        /* \"#utility.yul\":21021:21027   */\n      dup3\n        /* \"#utility.yul\":21017:21031   */\n      add\n        /* \"#utility.yul\":21010:21066   */\n      mstore\n        /* \"#utility.yul\":20893:21073   */\n      pop\n      jump\t// out\n        /* \"#utility.yul\":21079:21445   */\n    tag_212:\n        /* \"#utility.yul\":21221:21224   */\n      0x00\n        /* \"#utility.yul\":21242:21309   */\n      tag_420\n        /* \"#utility.yul\":21306:21308   */\n      0x1e\n        /* \"#utility.yul\":21301:21304   */\n      dup4\n        /* \"#utility.yul\":21242:21309   */\n      tag_168\n      jump\t// in\n    tag_420:\n        /* \"#utility.yul\":21235:21309   */\n      swap2\n      pop\n        /* \"#utility.yul\":21318:21411   */\n      tag_421\n        /* \"#utility.yul\":21407:21410   */\n      dup3\n        /* \"#utility.yul\":21318:21411   */\n      tag_211\n      jump\t// in\n    tag_421:\n        /* \"#utility.yul\":21436:21438   */\n      0x20\n        /* \"#utility.yul\":21431:21434   */\n      dup3\n        /* \"#utility.yul\":21427:21439   */\n      add\n        /* \"#utility.yul\":21420:21439   */\n      swap1\n      pop\n        /* \"#utility.yul\":21079:21445   */\n      swap2\n      swap1\n      pop\n      jump\t// out\n        /* \"#utility.yul\":21451:21870   */\n    tag_135:\n        /* \"#utility.yul\":21617:21621   */\n      0x00\n        /* \"#utility.yul\":21655:21657   */\n      0x20\n        /* \"#utility.yul\":21644:21653   */\n      dup3\n        /* \"#utility.yul\":21640:21658   */\n      add\n        /* \"#utility.yul\":21632:21658   */\n      swap1\n      pop\n        /* \"#utility.yul\":21704:21713   */\n      dup2\n        /* \"#utility.yul\":21698:21702   */\n      dup2\n        /* \"#utility.yul\":21694:21714   */\n      sub\n        /* \"#utility.yul\":21690:21691   */\n      0x00\n        /* \"#utility.yul\":21679:21688   */\n      dup4\n        /* \"#utility.yul\":21675:21692   */\n      add\n        /* \"#utility.yul\":21668:21715   */\n      mstore\n        /* \"#utility.yul\":21732:21863   */\n      tag_423\n        /* \"#utility.yul\":21858:21862   */\n      dup2\n        /* \"#utility.yul\":21732:21863   */\n      tag_212\n      jump\t// in\n    tag_423:\n        /* \"#utility.yul\":21724:21863   */\n      swap1\n      pop\n        /* \"#utility.yul\":21451:21870   */\n      swap2\n      swap1\n      pop\n      jump\t// out\n        /* \"#utility.yul\":21876:22049   */\n    tag_213:\n        /* \"#utility.yul\":22016:22041   */\n      0x596f7520617265206e6f7420636f6e7472696275746f72000000000000000000\n        /* \"#utility.yul\":22012:22013   */\n      0x00\n        /* \"#utility.yul\":22004:22010   */\n      dup3\n        /* \"#utility.yul\":22000:22014   */\n      add\n        /* \"#utility.yul\":21993:22042   */\n      mstore\n        /* \"#utility.yul\":21876:22049   */\n      pop\n      jump\t// out\n        /* \"#utility.yul\":22055:22421   */\n    tag_214:\n        /* \"#utility.yul\":22197:22200   */\n      0x00\n        /* \"#utility.yul\":22218:22285   */\n      tag_426\n        /* \"#utility.yul\":22282:22284   */\n      0x17\n        /* \"#utility.yul\":22277:22280   */\n      dup4\n        /* \"#utility.yul\":22218:22285   */\n      tag_168\n      jump\t// in\n    tag_426:\n        /* \"#utility.yul\":22211:22285   */\n      swap2\n      pop\n        /* \"#utility.yul\":22294:22387   */\n      tag_427\n        /* \"#utility.yul\":22383:22386   */\n      dup3\n        /* \"#utility.yul\":22294:22387   */\n      tag_213\n      jump\t// in\n    tag_427:\n        /* \"#utility.yul\":22412:22414   */\n      0x20\n        /* \"#utility.yul\":22407:22410   */\n      dup3\n        /* \"#utility.yul\":22403:22415   */\n      add\n        /* \"#utility.yul\":22396:22415   */\n      swap1\n      pop\n        /* \"#utility.yul\":22055:22421   */\n      swap2\n      swap1\n      pop\n      jump\t// out\n        /* \"#utility.yul\":22427:22846   */\n    tag_138:\n        /* \"#utility.yul\":22593:22597   */\n      0x00\n        /* \"#utility.yul\":22631:22633   */\n      0x20\n        /* \"#utility.yul\":22620:22629   */\n      dup3\n        /* \"#utility.yul\":22616:22634   */\n      add\n        /* \"#utility.yul\":22608:22634   */\n      swap1\n      pop\n        /* \"#utility.yul\":22680:22689   */\n      dup2\n        /* \"#utility.yul\":22674:22678   */\n      dup2\n        /* \"#utility.yul\":22670:22690   */\n      sub\n        /* \"#utility.yul\":22666:22667   */\n      0x00\n        /* \"#utility.yul\":22655:22664   */\n      dup4\n        /* \"#utility.yul\":22651:22668   */\n      add\n        /* \"#utility.yul\":22644:22691   */\n      mstore\n        /* \"#utility.yul\":22708:22839   */\n      tag_429\n        /* \"#utility.yul\":22834:22838   */\n      dup2\n        /* \"#utility.yul\":22708:22839   */\n      tag_214\n      jump\t// in\n    tag_429:\n        /* \"#utility.yul\":22700:22839   */\n      swap1\n      pop\n        /* \"#utility.yul\":22427:22846   */\n      swap2\n      swap1\n      pop\n      jump\t// out\n\n    auxdata: 0xa26469706673582212203974da031969ab7f0e793b309a3e9de834ee9568b439b6a895e718425b626d8764736f6c634300081a0033\n}\n",
				"bytecode": {
					"linkReferences": {},
					"object": "608060405234801561000f575f80fd5b506040516119bd3803806119bd833981810160405281019061003191906100d0565b816006819055508042610044919061013b565b600581905550600a6004819055503360035f6101000a81548173ffffffffffffffffffffffffffffffffffffffff021916908373ffffffffffffffffffffffffffffffffffffffff160217905550505061016e565b5f80fd5b5f819050919050565b6100af8161009d565b81146100b9575f80fd5b50565b5f815190506100ca816100a6565b92915050565b5f80604083850312156100e6576100e5610099565b5b5f6100f3858286016100bc565b9250506020610104858286016100bc565b9150509250929050565b7f4e487b71000000000000000000000000000000000000000000000000000000005f52601160045260245ffd5b5f6101458261009d565b91506101508361009d565b92508282019050808211156101685761016761010e565b5b92915050565b6118428061017b5f395ff3fe6080604052600436106100e7575f3560e01c80635114cb5211610089578063937e09b111610058578063937e09b1146102a75780639fb42b1f146102d1578063c59ee1dc146102fb578063d4b8399214610325576100e7565b80635114cb52146101ff578063590e1ae3146102275780636f9fb98a1461023d57806381d12c5814610267576100e7565b80633eb7647b116100c55780633eb7647b1461017b578063481c6a75146101a35780634cb6f4a5146101cd57806350520b1f146101f5576100e7565b806324274ee9146100eb57806329dcb0cf1461011557806334b664601461013f575b5f80fd5b3480156100f6575f80fd5b506100ff61034f565b60405161010c9190610c8d565b60405180910390f35b348015610120575f80fd5b50610129610355565b6040516101369190610c8d565b60405180910390f35b34801561014a575f80fd5b5061016560048036038101906101609190610d08565b61035b565b6040516101729190610c8d565b60405180910390f35b348015610186575f80fd5b506101a1600480360381019061019c9190610df9565b61036f565b005b3480156101ae575f80fd5b506101b76104b4565b6040516101c49190610e79565b60405180910390f35b3480156101d8575f80fd5b506101f360048036038101906101ee9190610e92565b6104d9565b005b6101fd610670565b005b34801561020a575f80fd5b5061022560048036038101906102209190610e92565b6107c0565b005b348015610232575f80fd5b5061023b6109df565b005b348015610248575f80fd5b50610251610b73565b60405161025e9190610c8d565b60405180910390f35b348015610272575f80fd5b5061028d60048036038101906102889190610e92565b610b7a565b60405161029e959493929190610f56565b60405180910390f35b3480156102b2575f80fd5b506102bb610c5d565b6040516102c89190610c8d565b60405180910390f35b3480156102dc575f80fd5b506102e5610c63565b6040516102f29190610c8d565b60405180910390f35b348015610306575f80fd5b5061030f610c69565b60405161031c9190610c8d565b60405180910390f35b348015610330575f80fd5b50610339610c6f565b6040516103469190610c8d565b60405180910390f35b60085481565b60055481565b5f602052805f5260405f205f915090505481565b60035f9054906101000a900473ffffffffffffffffffffffffffffffffffffffff1673ffffffffffffffffffffffffffffffffffffffff163373ffffffffffffffffffffffffffffffffffffffff16146103fe576040517f08c379a00000000000000000000000000000000000000000000000000000000081526004016103f590610ff8565b60405180910390fd5b5f60015f60025481526020019081526020015f20905060025f81548092919061042690611043565b91905055508484825f01918261043d9291906112bb565b5082816001015f6101000a81548173ffffffffffffffffffffffffffffffffffffffff021916908373ffffffffffffffffffffffffffffffffffffffff1602179055508181600201819055505f816003015f6101000a81548160ff0219169083151502179055505f81600401819055505050505050565b60035f9054906101000a900473ffffffffffffffffffffffffffffffffffffffff1681565b5f805f3373ffffffffffffffffffffffffffffffffffffffff1673ffffffffffffffffffffffffffffffffffffffff1681526020019081526020015f205411610557576040517f08c379a000000000000000000000000000000000000000000000000000000000815260040161054e906113d2565b60405180910390fd5b5f60015f8381526020019081526020015f2090505f1515816005015f3373ffffffffffffffffffffffffffffffffffffffff1673ffffffffffffffffffffffffffffffffffffffff1681526020019081526020015f205f9054906101000a900460ff161515146105fc576040517f08c379a00000000000000000000000000000000000000000000000000000000081526004016105f39061143a565b60405180910390fd5b6001816005015f3373ffffffffffffffffffffffffffffffffffffffff1673ffffffffffffffffffffffffffffffffffffffff1681526020019081526020015f205f6101000a81548160ff021916908315150217905550806004015f81548092919061066790611043565b91905055505050565b60055442106106b4576040517f08c379a00000000000000000000000000000000000000000000000000000000081526004016106ab906114a2565b60405180910390fd5b6004543410156106f9576040517f08c379a00000000000000000000000000000000000000000000000000000000081526004016106f090611530565b60405180910390fd5b5f805f3373ffffffffffffffffffffffffffffffffffffffff1673ffffffffffffffffffffffffffffffffffffffff1681526020019081526020015f2054036107545760085f81548092919061074e90611043565b91905055505b345f803373ffffffffffffffffffffffffffffffffffffffff1673ffffffffffffffffffffffffffffffffffffffff1681526020019081526020015f205f82825461079f919061154e565b925050819055503460075f8282546107b7919061154e565b92505081905550565b60035f9054906101000a900473ffffffffffffffffffffffffffffffffffffffff1673ffffffffffffffffffffffffffffffffffffffff163373ffffffffffffffffffffffffffffffffffffffff161461084f576040517f08c379a000000000000000000000000000000000000000000000000000000000815260040161084690610ff8565b60405180910390fd5b6006546007541015610896576040517f08c379a000000000000000000000000000000000000000000000000000000000815260040161088d906115cb565b60405180910390fd5b5f60015f8381526020019081526020015f2090505f1515816003015f9054906101000a900460ff16151514610900576040517f08c379a00000000000000000000000000000000000000000000000000000000081526004016108f790611633565b60405180910390fd5b600260085461090f919061167e565b816004015411610954576040517f08c379a000000000000000000000000000000000000000000000000000000000815260040161094b9061171e565b60405180910390fd5b806001015f9054906101000a900473ffffffffffffffffffffffffffffffffffffffff1673ffffffffffffffffffffffffffffffffffffffff166108fc826002015490811502906040515f60405180830381858888f193505050501580156109be573d5f803e3d5ffd5b506001816003015f6101000a81548160ff0219169083151502179055505050565b600554421180156109f35750600654600754105b610a32576040517f08c379a0000000000000000000000000000000000000000000000000000000008152600401610a2990611786565b60405180910390fd5b5f805f3373ffffffffffffffffffffffffffffffffffffffff1673ffffffffffffffffffffffffffffffffffffffff1681526020019081526020015f205411610ab0576040517f08c379a0000000000000000000000000000000000000000000000000000000008152600401610aa7906117ee565b60405180910390fd5b3373ffffffffffffffffffffffffffffffffffffffff166108fc5f803373ffffffffffffffffffffffffffffffffffffffff1673ffffffffffffffffffffffffffffffffffffffff1681526020019081526020015f205490811502906040515f60405180830381858888f19350505050158015610b2f573d5f803e3d5ffd5b505f805f3373ffffffffffffffffffffffffffffffffffffffff1673ffffffffffffffffffffffffffffffffffffffff1681526020019081526020015f2081905550565b5f47905090565b6001602052805f5260405f205f91509050805f018054610b99906110ee565b80601f0160208091040260200160405190810160405280929190818152602001828054610bc5906110ee565b8015610c105780601f10610be757610100808354040283529160200191610c10565b820191905f5260205f20905b815481529060010190602001808311610bf357829003601f168201915b505050505090806001015f9054906101000a900473ffffffffffffffffffffffffffffffffffffffff1690806002015490806003015f9054906101000a900460ff16908060040154905085565b60045481565b60025481565b60075481565b60065481565b5f819050919050565b610c8781610c75565b82525050565b5f602082019050610ca05f830184610c7e565b92915050565b5f80fd5b5f80fd5b5f73ffffffffffffffffffffffffffffffffffffffff82169050919050565b5f610cd782610cae565b9050919050565b610ce781610ccd565b8114610cf1575f80fd5b50565b5f81359050610d0281610cde565b92915050565b5f60208284031215610d1d57610d1c610ca6565b5b5f610d2a84828501610cf4565b91505092915050565b5f80fd5b5f80fd5b5f80fd5b5f8083601f840112610d5457610d53610d33565b5b8235905067ffffffffffffffff811115610d7157610d70610d37565b5b602083019150836001820283011115610d8d57610d8c610d3b565b5b9250929050565b5f610d9e82610cae565b9050919050565b610dae81610d94565b8114610db8575f80fd5b50565b5f81359050610dc981610da5565b92915050565b610dd881610c75565b8114610de2575f80fd5b50565b5f81359050610df381610dcf565b92915050565b5f805f8060608587031215610e1157610e10610ca6565b5b5f85013567ffffffffffffffff811115610e2e57610e2d610caa565b5b610e3a87828801610d3f565b94509450506020610e4d87828801610dbb565b9250506040610e5e87828801610de5565b91505092959194509250565b610e7381610ccd565b82525050565b5f602082019050610e8c5f830184610e6a565b92915050565b5f60208284031215610ea757610ea6610ca6565b5b5f610eb484828501610de5565b91505092915050565b5f81519050919050565b5f82825260208201905092915050565b8281835e5f83830152505050565b5f601f19601f8301169050919050565b5f610eff82610ebd565b610f098185610ec7565b9350610f19818560208601610ed7565b610f2281610ee5565b840191505092915050565b610f3681610d94565b82525050565b5f8115159050919050565b610f5081610f3c565b82525050565b5f60a0820190508181035f830152610f6e8188610ef5565b9050610f7d6020830187610f2d565b610f8a6040830186610c7e565b610f976060830185610f47565b610fa46080830184610c7e565b9695505050505050565b7f796f7520617265206e6f74206d616e61676572000000000000000000000000005f82015250565b5f610fe2601383610ec7565b9150610fed82610fae565b602082019050919050565b5f6020820190508181035f83015261100f81610fd6565b9050919050565b7f4e487b71000000000000000000000000000000000000000000000000000000005f52601160045260245ffd5b5f61104d82610c75565b91507fffffffffffffffffffffffffffffffffffffffffffffffffffffffffffffffff820361107f5761107e611016565b5b600182019050919050565b5f82905092915050565b7f4e487b71000000000000000000000000000000000000000000000000000000005f52604160045260245ffd5b7f4e487b71000000000000000000000000000000000000000000000000000000005f52602260045260245ffd5b5f600282049050600182168061110557607f821691505b602082108103611118576111176110c1565b5b50919050565b5f819050815f5260205f209050919050565b5f6020601f8301049050919050565b5f82821b905092915050565b5f6008830261117a7fffffffffffffffffffffffffffffffffffffffffffffffffffffffffffffffff8261113f565b611184868361113f565b95508019841693508086168417925050509392505050565b5f819050919050565b5f6111bf6111ba6111b584610c75565b61119c565b610c75565b9050919050565b5f819050919050565b6111d8836111a5565b6111ec6111e4826111c6565b84845461114b565b825550505050565b5f90565b6112006111f4565b61120b8184846111cf565b505050565b5b8181101561122e576112235f826111f8565b600181019050611211565b5050565b601f821115611273576112448161111e565b61124d84611130565b8101602085101561125c578190505b61127061126885611130565b830182611210565b50505b505050565b5f82821c905092915050565b5f6112935f1984600802611278565b1980831691505092915050565b5f6112ab8383611284565b9150826002028217905092915050565b6112c5838361108a565b67ffffffffffffffff8111156112de576112dd611094565b5b6112e882546110ee565b6112f3828285611232565b5f601f831160018114611320575f841561130e578287013590505b61131885826112a0565b86555061137f565b601f19841661132e8661111e565b5f5b8281101561135557848901358255600182019150602085019450602081019050611330565b86831015611372578489013561136e601f891682611284565b8355505b6001600288020188555050505b50505050505050565b7f596f7520617265206e6f74206120636f6e7472696275746572000000000000005f82015250565b5f6113bc601983610ec7565b91506113c782611388565b602082019050919050565b5f6020820190508181035f8301526113e9816113b0565b9050919050565b7f596f75206861766520616c726561647920766f746564000000000000000000005f82015250565b5f611424601683610ec7565b915061142f826113f0565b602082019050919050565b5f6020820190508181035f83015261145181611418565b9050919050565b7f446561646c696e652068617320706173736564000000000000000000000000005f82015250565b5f61148c601383610ec7565b915061149782611458565b602082019050919050565b5f6020820190508181035f8301526114b981611480565b9050919050565b7f7061796d656e742073686f756c64206265206d6f7265207468616e206d696e695f8201527f6d756d20636f6e747269627574696f6e00000000000000000000000000000000602082015250565b5f61151a603083610ec7565b9150611525826114c0565b604082019050919050565b5f6020820190508181035f8301526115478161150e565b9050919050565b5f61155882610c75565b915061156383610c75565b925082820190508082111561157b5761157a611016565b5b92915050565b7f746172676574206973206e6f74207265616368656400000000000000000000005f82015250565b5f6115b5601583610ec7565b91506115c082611581565b602082019050919050565b5f6020820190508181035f8301526115e2816115a9565b9050919050565b7f746865207265717565737420686173206265656e20636f6d706c6574656400005f82015250565b5f61161d601e83610ec7565b9150611628826115e9565b602082019050919050565b5f6020820190508181035f83015261164a81611611565b9050919050565b7f4e487b71000000000000000000000000000000000000000000000000000000005f52601260045260245ffd5b5f61168882610c75565b915061169383610c75565b9250826116a3576116a2611651565b5b828204905092915050565b7f6d616a6f7269747920646f6573206e6f7420737570706f7274207468652072655f8201527f7175657374000000000000000000000000000000000000000000000000000000602082015250565b5f611708602583610ec7565b9150611713826116ae565b604082019050919050565b5f6020820190508181035f830152611735816116fc565b9050919050565b7f596f7520617265206e6f7420656c6769626c6520666f7220726566756e6400005f82015250565b5f611770601e83610ec7565b915061177b8261173c565b602082019050919050565b5f6020820190508181035f83015261179d81611764565b9050919050565b7f596f7520617265206e6f7420636f6e7472696275746f720000000000000000005f82015250565b5f6117d8601783610ec7565b91506117e3826117a4565b602082019050919050565b5f6020820190508181035f830152611805816117cc565b905091905056fea26469706673582212203974da031969ab7f0e793b309a3e9de834ee9568b439b6a895e718425b626d8764736f6c634300081a0033",
					"opcodes": "PUSH1 0x80 PUSH1 0x40 MSTORE CALLVALUE DUP1 ISZERO PUSH2 0xF JUMPI PUSH0 DUP1 REVERT JUMPDEST POP PUSH1 0x40 MLOAD PUSH2 0x19BD CODESIZE SUB DUP1 PUSH2 0x19BD DUP4 CODECOPY DUP2 DUP2 ADD PUSH1 0x40 MSTORE DUP2 ADD SWAP1 PUSH2 0x31 SWAP2 SWAP1 PUSH2 0xD0 JUMP JUMPDEST DUP2 PUSH1 0x6 DUP2 SWAP1 SSTORE POP DUP1 TIMESTAMP PUSH2 0x44 SWAP2 SWAP1 PUSH2 0x13B JUMP JUMPDEST PUSH1 0x5 DUP2 SWAP1 SSTORE POP PUSH1 0xA PUSH1 0x4 DUP2 SWAP1 SSTORE POP CALLER PUSH1 0x3 PUSH0 PUSH2 0x100 EXP DUP2 SLOAD DUP2 PUSH20 0xFFFFFFFFFFFFFFFFFFFFFFFFFFFFFFFFFFFFFFFF MUL NOT AND SWAP1 DUP4 PUSH20 0xFFFFFFFFFFFFFFFFFFFFFFFFFFFFFFFFFFFFFFFF AND MUL OR SWAP1 SSTORE POP POP POP PUSH2 0x16E JUMP JUMPDEST PUSH0 DUP1 REVERT JUMPDEST PUSH0 DUP2 SWAP1 POP SWAP2 SWAP1 POP JUMP JUMPDEST PUSH2 0xAF DUP2 PUSH2 0x9D JUMP JUMPDEST DUP2 EQ PUSH2 0xB9 JUMPI PUSH0 DUP1 REVERT JUMPDEST POP JUMP JUMPDEST PUSH0 DUP2 MLOAD SWAP1 POP PUSH2 0xCA DUP2 PUSH2 0xA6 JUMP JUMPDEST SWAP3 SWAP2 POP POP JUMP JUMPDEST PUSH0 DUP1 PUSH1 0x40 DUP4 DUP6 SUB SLT ISZERO PUSH2 0xE6 JUMPI PUSH2 0xE5 PUSH2 0x99 JUMP JUMPDEST JUMPDEST PUSH0 PUSH2 0xF3 DUP6 DUP3 DUP7 ADD PUSH2 0xBC JUMP JUMPDEST SWAP3 POP POP PUSH1 0x20 PUSH2 0x104 DUP6 DUP3 DUP7 ADD PUSH2 0xBC JUMP JUMPDEST SWAP2 POP POP SWAP3 POP SWAP3 SWAP1 POP JUMP JUMPDEST PUSH32 0x4E487B7100000000000000000000000000000000000000000000000000000000 PUSH0 MSTORE PUSH1 0x11 PUSH1 0x4 MSTORE PUSH1 0x24 PUSH0 REVERT JUMPDEST PUSH0 PUSH2 0x145 DUP3 PUSH2 0x9D JUMP JUMPDEST SWAP2 POP PUSH2 0x150 DUP4 PUSH2 0x9D JUMP JUMPDEST SWAP3 POP DUP3 DUP3 ADD SWAP1 POP DUP1 DUP3 GT ISZERO PUSH2 0x168 JUMPI PUSH2 0x167 PUSH2 0x10E JUMP JUMPDEST JUMPDEST SWAP3 SWAP2 POP POP JUMP JUMPDEST PUSH2 0x1842 DUP1 PUSH2 0x17B PUSH0 CODECOPY PUSH0 RETURN INVALID PUSH1 0x80 PUSH1 0x40 MSTORE PUSH1 0x4 CALLDATASIZE LT PUSH2 0xE7 JUMPI PUSH0 CALLDATALOAD PUSH1 0xE0 SHR DUP1 PUSH4 0x5114CB52 GT PUSH2 0x89 JUMPI DUP1 PUSH4 0x937E09B1 GT PUSH2 0x58 JUMPI DUP1 PUSH4 0x937E09B1 EQ PUSH2 0x2A7 JUMPI DUP1 PUSH4 0x9FB42B1F EQ PUSH2 0x2D1 JUMPI DUP1 PUSH4 0xC59EE1DC EQ PUSH2 0x2FB JUMPI DUP1 PUSH4 0xD4B83992 EQ PUSH2 0x325 JUMPI PUSH2 0xE7 JUMP JUMPDEST DUP1 PUSH4 0x5114CB52 EQ PUSH2 0x1FF JUMPI DUP1 PUSH4 0x590E1AE3 EQ PUSH2 0x227 JUMPI DUP1 PUSH4 0x6F9FB98A EQ PUSH2 0x23D JUMPI DUP1 PUSH4 0x81D12C58 EQ PUSH2 0x267 JUMPI PUSH2 0xE7 JUMP JUMPDEST DUP1 PUSH4 0x3EB7647B GT PUSH2 0xC5 JUMPI DUP1 PUSH4 0x3EB7647B EQ PUSH2 0x17B JUMPI DUP1 PUSH4 0x481C6A75 EQ PUSH2 0x1A3 JUMPI DUP1 PUSH4 0x4CB6F4A5 EQ PUSH2 0x1CD JUMPI DUP1 PUSH4 0x50520B1F EQ PUSH2 0x1F5 JUMPI PUSH2 0xE7 JUMP JUMPDEST DUP1 PUSH4 0x24274EE9 EQ PUSH2 0xEB JUMPI DUP1 PUSH4 0x29DCB0CF EQ PUSH2 0x115 JUMPI DUP1 PUSH4 0x34B66460 EQ PUSH2 0x13F JUMPI JUMPDEST PUSH0 DUP1 REVERT JUMPDEST CALLVALUE DUP1 ISZERO PUSH2 0xF6 JUMPI PUSH0 DUP1 REVERT JUMPDEST POP PUSH2 0xFF PUSH2 0x34F JUMP JUMPDEST PUSH1 0x40 MLOAD PUSH2 0x10C SWAP2 SWAP1 PUSH2 0xC8D JUMP JUMPDEST PUSH1 0x40 MLOAD DUP1 SWAP2 SUB SWAP1 RETURN JUMPDEST CALLVALUE DUP1 ISZERO PUSH2 0x120 JUMPI PUSH0 DUP1 REVERT JUMPDEST POP PUSH2 0x129 PUSH2 0x355 JUMP JUMPDEST PUSH1 0x40 MLOAD PUSH2 0x136 SWAP2 SWAP1 PUSH2 0xC8D JUMP JUMPDEST PUSH1 0x40 MLOAD DUP1 SWAP2 SUB SWAP1 RETURN JUMPDEST CALLVALUE DUP1 ISZERO PUSH2 0x14A JUMPI PUSH0 DUP1 REVERT JUMPDEST POP PUSH2 0x165 PUSH1 0x4 DUP1 CALLDATASIZE SUB DUP2 ADD SWAP1 PUSH2 0x160 SWAP2 SWAP1 PUSH2 0xD08 JUMP JUMPDEST PUSH2 0x35B JUMP JUMPDEST PUSH1 0x40 MLOAD PUSH2 0x172 SWAP2 SWAP1 PUSH2 0xC8D JUMP JUMPDEST PUSH1 0x40 MLOAD DUP1 SWAP2 SUB SWAP1 RETURN JUMPDEST CALLVALUE DUP1 ISZERO PUSH2 0x186 JUMPI PUSH0 DUP1 REVERT JUMPDEST POP PUSH2 0x1A1 PUSH1 0x4 DUP1 CALLDATASIZE SUB DUP2 ADD SWAP1 PUSH2 0x19C SWAP2 SWAP1 PUSH2 0xDF9 JUMP JUMPDEST PUSH2 0x36F JUMP JUMPDEST STOP JUMPDEST CALLVALUE DUP1 ISZERO PUSH2 0x1AE JUMPI PUSH0 DUP1 REVERT JUMPDEST POP PUSH2 0x1B7 PUSH2 0x4B4 JUMP JUMPDEST PUSH1 0x40 MLOAD PUSH2 0x1C4 SWAP2 SWAP1 PUSH2 0xE79 JUMP JUMPDEST PUSH1 0x40 MLOAD DUP1 SWAP2 SUB SWAP1 RETURN JUMPDEST CALLVALUE DUP1 ISZERO PUSH2 0x1D8 JUMPI PUSH0 DUP1 REVERT JUMPDEST POP PUSH2 0x1F3 PUSH1 0x4 DUP1 CALLDATASIZE SUB DUP2 ADD SWAP1 PUSH2 0x1EE SWAP2 SWAP1 PUSH2 0xE92 JUMP JUMPDEST PUSH2 0x4D9 JUMP JUMPDEST STOP JUMPDEST PUSH2 0x1FD PUSH2 0x670 JUMP JUMPDEST STOP JUMPDEST CALLVALUE DUP1 ISZERO PUSH2 0x20A JUMPI PUSH0 DUP1 REVERT JUMPDEST POP PUSH2 0x225 PUSH1 0x4 DUP1 CALLDATASIZE SUB DUP2 ADD SWAP1 PUSH2 0x220 SWAP2 SWAP1 PUSH2 0xE92 JUMP JUMPDEST PUSH2 0x7C0 JUMP JUMPDEST STOP JUMPDEST CALLVALUE DUP1 ISZERO PUSH2 0x232 JUMPI PUSH0 DUP1 REVERT JUMPDEST POP PUSH2 0x23B PUSH2 0x9DF JUMP JUMPDEST STOP JUMPDEST CALLVALUE DUP1 ISZERO PUSH2 0x248 JUMPI PUSH0 DUP1 REVERT JUMPDEST POP PUSH2 0x251 PUSH2 0xB73 JUMP JUMPDEST PUSH1 0x40 MLOAD PUSH2 0x25E SWAP2 SWAP1 PUSH2 0xC8D JUMP JUMPDEST PUSH1 0x40 MLOAD DUP1 SWAP2 SUB SWAP1 RETURN JUMPDEST CALLVALUE DUP1 ISZERO PUSH2 0x272 JUMPI PUSH0 DUP1 REVERT JUMPDEST POP PUSH2 0x28D PUSH1 0x4 DUP1 CALLDATASIZE SUB DUP2 ADD SWAP1 PUSH2 0x288 SWAP2 SWAP1 PUSH2 0xE92 JUMP JUMPDEST PUSH2 0xB7A JUMP JUMPDEST PUSH1 0x40 MLOAD PUSH2 0x29E SWAP6 SWAP5 SWAP4 SWAP3 SWAP2 SWAP1 PUSH2 0xF56 JUMP JUMPDEST PUSH1 0x40 MLOAD DUP1 SWAP2 SUB SWAP1 RETURN JUMPDEST CALLVALUE DUP1 ISZERO PUSH2 0x2B2 JUMPI PUSH0 DUP1 REVERT JUMPDEST POP PUSH2 0x2BB PUSH2 0xC5D JUMP JUMPDEST PUSH1 0x40 MLOAD PUSH2 0x2C8 SWAP2 SWAP1 PUSH2 0xC8D JUMP JUMPDEST PUSH1 0x40 MLOAD DUP1 SWAP2 SUB SWAP1 RETURN JUMPDEST CALLVALUE DUP1 ISZERO PUSH2 0x2DC JUMPI PUSH0 DUP1 REVERT JUMPDEST POP PUSH2 0x2E5 PUSH2 0xC63 JUMP JUMPDEST PUSH1 0x40 MLOAD PUSH2 0x2F2 SWAP2 SWAP1 PUSH2 0xC8D JUMP JUMPDEST PUSH1 0x40 MLOAD DUP1 SWAP2 SUB SWAP1 RETURN JUMPDEST CALLVALUE DUP1 ISZERO PUSH2 0x306 JUMPI PUSH0 DUP1 REVERT JUMPDEST POP PUSH2 0x30F PUSH2 0xC69 JUMP JUMPDEST PUSH1 0x40 MLOAD PUSH2 0x31C SWAP2 SWAP1 PUSH2 0xC8D JUMP JUMPDEST PUSH1 0x40 MLOAD DUP1 SWAP2 SUB SWAP1 RETURN JUMPDEST CALLVALUE DUP1 ISZERO PUSH2 0x330 JUMPI PUSH0 DUP1 REVERT JUMPDEST POP PUSH2 0x339 PUSH2 0xC6F JUMP JUMPDEST PUSH1 0x40 MLOAD PUSH2 0x346 SWAP2 SWAP1 PUSH2 0xC8D JUMP JUMPDEST PUSH1 0x40 MLOAD DUP1 SWAP2 SUB SWAP1 RETURN JUMPDEST PUSH1 0x8 SLOAD DUP2 JUMP JUMPDEST PUSH1 0x5 SLOAD DUP2 JUMP JUMPDEST PUSH0 PUSH1 0x20 MSTORE DUP1 PUSH0 MSTORE PUSH1 0x40 PUSH0 KECCAK256 PUSH0 SWAP2 POP SWAP1 POP SLOAD DUP2 JUMP JUMPDEST PUSH1 0x3 PUSH0 SWAP1 SLOAD SWAP1 PUSH2 0x100 EXP SWAP1 DIV PUSH20 0xFFFFFFFFFFFFFFFFFFFFFFFFFFFFFFFFFFFFFFFF AND PUSH20 0xFFFFFFFFFFFFFFFFFFFFFFFFFFFFFFFFFFFFFFFF AND CALLER PUSH20 0xFFFFFFFFFFFFFFFFFFFFFFFFFFFFFFFFFFFFFFFF AND EQ PUSH2 0x3FE JUMPI PUSH1 0x40 MLOAD PUSH32 0x8C379A000000000000000000000000000000000000000000000000000000000 DUP2 MSTORE PUSH1 0x4 ADD PUSH2 0x3F5 SWAP1 PUSH2 0xFF8 JUMP JUMPDEST PUSH1 0x40 MLOAD DUP1 SWAP2 SUB SWAP1 REVERT JUMPDEST PUSH0 PUSH1 0x1 PUSH0 PUSH1 0x2 SLOAD DUP2 MSTORE PUSH1 0x20 ADD SWAP1 DUP2 MSTORE PUSH1 0x20 ADD PUSH0 KECCAK256 SWAP1 POP PUSH1 0x2 PUSH0 DUP2 SLOAD DUP1 SWAP3 SWAP2 SWAP1 PUSH2 0x426 SWAP1 PUSH2 0x1043 JUMP JUMPDEST SWAP2 SWAP1 POP SSTORE POP DUP5 DUP5 DUP3 PUSH0 ADD SWAP2 DUP3 PUSH2 0x43D SWAP3 SWAP2 SWAP1 PUSH2 0x12BB JUMP JUMPDEST POP DUP3 DUP2 PUSH1 0x1 ADD PUSH0 PUSH2 0x100 EXP DUP2 SLOAD DUP2 PUSH20 0xFFFFFFFFFFFFFFFFFFFFFFFFFFFFFFFFFFFFFFFF MUL NOT AND SWAP1 DUP4 PUSH20 0xFFFFFFFFFFFFFFFFFFFFFFFFFFFFFFFFFFFFFFFF AND MUL OR SWAP1 SSTORE POP DUP2 DUP2 PUSH1 0x2 ADD DUP2 SWAP1 SSTORE POP PUSH0 DUP2 PUSH1 0x3 ADD PUSH0 PUSH2 0x100 EXP DUP2 SLOAD DUP2 PUSH1 0xFF MUL NOT AND SWAP1 DUP4 ISZERO ISZERO MUL OR SWAP1 SSTORE POP PUSH0 DUP2 PUSH1 0x4 ADD DUP2 SWAP1 SSTORE POP POP POP POP POP POP JUMP JUMPDEST PUSH1 0x3 PUSH0 SWAP1 SLOAD SWAP1 PUSH2 0x100 EXP SWAP1 DIV PUSH20 0xFFFFFFFFFFFFFFFFFFFFFFFFFFFFFFFFFFFFFFFF AND DUP2 JUMP JUMPDEST PUSH0 DUP1 PUSH0 CALLER PUSH20 0xFFFFFFFFFFFFFFFFFFFFFFFFFFFFFFFFFFFFFFFF AND PUSH20 0xFFFFFFFFFFFFFFFFFFFFFFFFFFFFFFFFFFFFFFFF AND DUP2 MSTORE PUSH1 0x20 ADD SWAP1 DUP2 MSTORE PUSH1 0x20 ADD PUSH0 KECCAK256 SLOAD GT PUSH2 0x557 JUMPI PUSH1 0x40 MLOAD PUSH32 0x8C379A000000000000000000000000000000000000000000000000000000000 DUP2 MSTORE PUSH1 0x4 ADD PUSH2 0x54E SWAP1 PUSH2 0x13D2 JUMP JUMPDEST PUSH1 0x40 MLOAD DUP1 SWAP2 SUB SWAP1 REVERT JUMPDEST PUSH0 PUSH1 0x1 PUSH0 DUP4 DUP2 MSTORE PUSH1 0x20 ADD SWAP1 DUP2 MSTORE PUSH1 0x20 ADD PUSH0 KECCAK256 SWAP1 POP PUSH0 ISZERO ISZERO DUP2 PUSH1 0x5 ADD PUSH0 CALLER PUSH20 0xFFFFFFFFFFFFFFFFFFFFFFFFFFFFFFFFFFFFFFFF AND PUSH20 0xFFFFFFFFFFFFFFFFFFFFFFFFFFFFFFFFFFFFFFFF AND DUP2 MSTORE PUSH1 0x20 ADD SWAP1 DUP2 MSTORE PUSH1 0x20 ADD PUSH0 KECCAK256 PUSH0 SWAP1 SLOAD SWAP1 PUSH2 0x100 EXP SWAP1 DIV PUSH1 0xFF AND ISZERO ISZERO EQ PUSH2 0x5FC JUMPI PUSH1 0x40 MLOAD PUSH32 0x8C379A000000000000000000000000000000000000000000000000000000000 DUP2 MSTORE PUSH1 0x4 ADD PUSH2 0x5F3 SWAP1 PUSH2 0x143A JUMP JUMPDEST PUSH1 0x40 MLOAD DUP1 SWAP2 SUB SWAP1 REVERT JUMPDEST PUSH1 0x1 DUP2 PUSH1 0x5 ADD PUSH0 CALLER PUSH20 0xFFFFFFFFFFFFFFFFFFFFFFFFFFFFFFFFFFFFFFFF AND PUSH20 0xFFFFFFFFFFFFFFFFFFFFFFFFFFFFFFFFFFFFFFFF AND DUP2 MSTORE PUSH1 0x20 ADD SWAP1 DUP2 MSTORE PUSH1 0x20 ADD PUSH0 KECCAK256 PUSH0 PUSH2 0x100 EXP DUP2 SLOAD DUP2 PUSH1 0xFF MUL NOT AND SWAP1 DUP4 ISZERO ISZERO MUL OR SWAP1 SSTORE POP DUP1 PUSH1 0x4 ADD PUSH0 DUP2 SLOAD DUP1 SWAP3 SWAP2 SWAP1 PUSH2 0x667 SWAP1 PUSH2 0x1043 JUMP JUMPDEST SWAP2 SWAP1 POP SSTORE POP POP POP JUMP JUMPDEST PUSH1 0x5 SLOAD TIMESTAMP LT PUSH2 0x6B4 JUMPI PUSH1 0x40 MLOAD PUSH32 0x8C379A000000000000000000000000000000000000000000000000000000000 DUP2 MSTORE PUSH1 0x4 ADD PUSH2 0x6AB SWAP1 PUSH2 0x14A2 JUMP JUMPDEST PUSH1 0x40 MLOAD DUP1 SWAP2 SUB SWAP1 REVERT JUMPDEST PUSH1 0x4 SLOAD CALLVALUE LT ISZERO PUSH2 0x6F9 JUMPI PUSH1 0x40 MLOAD PUSH32 0x8C379A000000000000000000000000000000000000000000000000000000000 DUP2 MSTORE PUSH1 0x4 ADD PUSH2 0x6F0 SWAP1 PUSH2 0x1530 JUMP JUMPDEST PUSH1 0x40 MLOAD DUP1 SWAP2 SUB SWAP1 REVERT JUMPDEST PUSH0 DUP1 PUSH0 CALLER PUSH20 0xFFFFFFFFFFFFFFFFFFFFFFFFFFFFFFFFFFFFFFFF AND PUSH20 0xFFFFFFFFFFFFFFFFFFFFFFFFFFFFFFFFFFFFFFFF AND DUP2 MSTORE PUSH1 0x20 ADD SWAP1 DUP2 MSTORE PUSH1 0x20 ADD PUSH0 KECCAK256 SLOAD SUB PUSH2 0x754 JUMPI PUSH1 0x8 PUSH0 DUP2 SLOAD DUP1 SWAP3 SWAP2 SWAP1 PUSH2 0x74E SWAP1 PUSH2 0x1043 JUMP JUMPDEST SWAP2 SWAP1 POP SSTORE POP JUMPDEST CALLVALUE PUSH0 DUP1 CALLER PUSH20 0xFFFFFFFFFFFFFFFFFFFFFFFFFFFFFFFFFFFFFFFF AND PUSH20 0xFFFFFFFFFFFFFFFFFFFFFFFFFFFFFFFFFFFFFFFF AND DUP2 MSTORE PUSH1 0x20 ADD SWAP1 DUP2 MSTORE PUSH1 0x20 ADD PUSH0 KECCAK256 PUSH0 DUP3 DUP3 SLOAD PUSH2 0x79F SWAP2 SWAP1 PUSH2 0x154E JUMP JUMPDEST SWAP3 POP POP DUP2 SWAP1 SSTORE POP CALLVALUE PUSH1 0x7 PUSH0 DUP3 DUP3 SLOAD PUSH2 0x7B7 SWAP2 SWAP1 PUSH2 0x154E JUMP JUMPDEST SWAP3 POP POP DUP2 SWAP1 SSTORE POP JUMP JUMPDEST PUSH1 0x3 PUSH0 SWAP1 SLOAD SWAP1 PUSH2 0x100 EXP SWAP1 DIV PUSH20 0xFFFFFFFFFFFFFFFFFFFFFFFFFFFFFFFFFFFFFFFF AND PUSH20 0xFFFFFFFFFFFFFFFFFFFFFFFFFFFFFFFFFFFFFFFF AND CALLER PUSH20 0xFFFFFFFFFFFFFFFFFFFFFFFFFFFFFFFFFFFFFFFF AND EQ PUSH2 0x84F JUMPI PUSH1 0x40 MLOAD PUSH32 0x8C379A000000000000000000000000000000000000000000000000000000000 DUP2 MSTORE PUSH1 0x4 ADD PUSH2 0x846 SWAP1 PUSH2 0xFF8 JUMP JUMPDEST PUSH1 0x40 MLOAD DUP1 SWAP2 SUB SWAP1 REVERT JUMPDEST PUSH1 0x6 SLOAD PUSH1 0x7 SLOAD LT ISZERO PUSH2 0x896 JUMPI PUSH1 0x40 MLOAD PUSH32 0x8C379A000000000000000000000000000000000000000000000000000000000 DUP2 MSTORE PUSH1 0x4 ADD PUSH2 0x88D SWAP1 PUSH2 0x15CB JUMP JUMPDEST PUSH1 0x40 MLOAD DUP1 SWAP2 SUB SWAP1 REVERT JUMPDEST PUSH0 PUSH1 0x1 PUSH0 DUP4 DUP2 MSTORE PUSH1 0x20 ADD SWAP1 DUP2 MSTORE PUSH1 0x20 ADD PUSH0 KECCAK256 SWAP1 POP PUSH0 ISZERO ISZERO DUP2 PUSH1 0x3 ADD PUSH0 SWAP1 SLOAD SWAP1 PUSH2 0x100 EXP SWAP1 DIV PUSH1 0xFF AND ISZERO ISZERO EQ PUSH2 0x900 JUMPI PUSH1 0x40 MLOAD PUSH32 0x8C379A000000000000000000000000000000000000000000000000000000000 DUP2 MSTORE PUSH1 0x4 ADD PUSH2 0x8F7 SWAP1 PUSH2 0x1633 JUMP JUMPDEST PUSH1 0x40 MLOAD DUP1 SWAP2 SUB SWAP1 REVERT JUMPDEST PUSH1 0x2 PUSH1 0x8 SLOAD PUSH2 0x90F SWAP2 SWAP1 PUSH2 0x167E JUMP JUMPDEST DUP2 PUSH1 0x4 ADD SLOAD GT PUSH2 0x954 JUMPI PUSH1 0x40 MLOAD PUSH32 0x8C379A000000000000000000000000000000000000000000000000000000000 DUP2 MSTORE PUSH1 0x4 ADD PUSH2 0x94B SWAP1 PUSH2 0x171E JUMP JUMPDEST PUSH1 0x40 MLOAD DUP1 SWAP2 SUB SWAP1 REVERT JUMPDEST DUP1 PUSH1 0x1 ADD PUSH0 SWAP1 SLOAD SWAP1 PUSH2 0x100 EXP SWAP1 DIV PUSH20 0xFFFFFFFFFFFFFFFFFFFFFFFFFFFFFFFFFFFFFFFF AND PUSH20 0xFFFFFFFFFFFFFFFFFFFFFFFFFFFFFFFFFFFFFFFF AND PUSH2 0x8FC DUP3 PUSH1 0x2 ADD SLOAD SWAP1 DUP2 ISZERO MUL SWAP1 PUSH1 0x40 MLOAD PUSH0 PUSH1 0x40 MLOAD DUP1 DUP4 SUB DUP2 DUP6 DUP9 DUP9 CALL SWAP4 POP POP POP POP ISZERO DUP1 ISZERO PUSH2 0x9BE JUMPI RETURNDATASIZE PUSH0 DUP1 RETURNDATACOPY RETURNDATASIZE PUSH0 REVERT JUMPDEST POP PUSH1 0x1 DUP2 PUSH1 0x3 ADD PUSH0 PUSH2 0x100 EXP DUP2 SLOAD DUP2 PUSH1 0xFF MUL NOT AND SWAP1 DUP4 ISZERO ISZERO MUL OR SWAP1 SSTORE POP POP POP JUMP JUMPDEST PUSH1 0x5 SLOAD TIMESTAMP GT DUP1 ISZERO PUSH2 0x9F3 JUMPI POP PUSH1 0x6 SLOAD PUSH1 0x7 SLOAD LT JUMPDEST PUSH2 0xA32 JUMPI PUSH1 0x40 MLOAD PUSH32 0x8C379A000000000000000000000000000000000000000000000000000000000 DUP2 MSTORE PUSH1 0x4 ADD PUSH2 0xA29 SWAP1 PUSH2 0x1786 JUMP JUMPDEST PUSH1 0x40 MLOAD DUP1 SWAP2 SUB SWAP1 REVERT JUMPDEST PUSH0 DUP1 PUSH0 CALLER PUSH20 0xFFFFFFFFFFFFFFFFFFFFFFFFFFFFFFFFFFFFFFFF AND PUSH20 0xFFFFFFFFFFFFFFFFFFFFFFFFFFFFFFFFFFFFFFFF AND DUP2 MSTORE PUSH1 0x20 ADD SWAP1 DUP2 MSTORE PUSH1 0x20 ADD PUSH0 KECCAK256 SLOAD GT PUSH2 0xAB0 JUMPI PUSH1 0x40 MLOAD PUSH32 0x8C379A000000000000000000000000000000000000000000000000000000000 DUP2 MSTORE PUSH1 0x4 ADD PUSH2 0xAA7 SWAP1 PUSH2 0x17EE JUMP JUMPDEST PUSH1 0x40 MLOAD DUP1 SWAP2 SUB SWAP1 REVERT JUMPDEST CALLER PUSH20 0xFFFFFFFFFFFFFFFFFFFFFFFFFFFFFFFFFFFFFFFF AND PUSH2 0x8FC PUSH0 DUP1 CALLER PUSH20 0xFFFFFFFFFFFFFFFFFFFFFFFFFFFFFFFFFFFFFFFF AND PUSH20 0xFFFFFFFFFFFFFFFFFFFFFFFFFFFFFFFFFFFFFFFF AND DUP2 MSTORE PUSH1 0x20 ADD SWAP1 DUP2 MSTORE PUSH1 0x20 ADD PUSH0 KECCAK256 SLOAD SWAP1 DUP2 ISZERO MUL SWAP1 PUSH1 0x40 MLOAD PUSH0 PUSH1 0x40 MLOAD DUP1 DUP4 SUB DUP2 DUP6 DUP9 DUP9 CALL SWAP4 POP POP POP POP ISZERO DUP1 ISZERO PUSH2 0xB2F JUMPI RETURNDATASIZE PUSH0 DUP1 RETURNDATACOPY RETURNDATASIZE PUSH0 REVERT JUMPDEST POP PUSH0 DUP1 PUSH0 CALLER PUSH20 0xFFFFFFFFFFFFFFFFFFFFFFFFFFFFFFFFFFFFFFFF AND PUSH20 0xFFFFFFFFFFFFFFFFFFFFFFFFFFFFFFFFFFFFFFFF AND DUP2 MSTORE PUSH1 0x20 ADD SWAP1 DUP2 MSTORE PUSH1 0x20 ADD PUSH0 KECCAK256 DUP2 SWAP1 SSTORE POP JUMP JUMPDEST PUSH0 SELFBALANCE SWAP1 POP SWAP1 JUMP JUMPDEST PUSH1 0x1 PUSH1 0x20 MSTORE DUP1 PUSH0 MSTORE PUSH1 0x40 PUSH0 KECCAK256 PUSH0 SWAP2 POP SWAP1 POP DUP1 PUSH0 ADD DUP1 SLOAD PUSH2 0xB99 SWAP1 PUSH2 0x10EE JUMP JUMPDEST DUP1 PUSH1 0x1F ADD PUSH1 0x20 DUP1 SWAP2 DIV MUL PUSH1 0x20 ADD PUSH1 0x40 MLOAD SWAP1 DUP2 ADD PUSH1 0x40 MSTORE DUP1 SWAP3 SWAP2 SWAP1 DUP2 DUP2 MSTORE PUSH1 0x20 ADD DUP3 DUP1 SLOAD PUSH2 0xBC5 SWAP1 PUSH2 0x10EE JUMP JUMPDEST DUP1 ISZERO PUSH2 0xC10 JUMPI DUP1 PUSH1 0x1F LT PUSH2 0xBE7 JUMPI PUSH2 0x100 DUP1 DUP4 SLOAD DIV MUL DUP4 MSTORE SWAP2 PUSH1 0x20 ADD SWAP2 PUSH2 0xC10 JUMP JUMPDEST DUP3 ADD SWAP2 SWAP1 PUSH0 MSTORE PUSH1 0x20 PUSH0 KECCAK256 SWAP1 JUMPDEST DUP2 SLOAD DUP2 MSTORE SWAP1 PUSH1 0x1 ADD SWAP1 PUSH1 0x20 ADD DUP1 DUP4 GT PUSH2 0xBF3 JUMPI DUP3 SWAP1 SUB PUSH1 0x1F AND DUP3 ADD SWAP2 JUMPDEST POP POP POP POP POP SWAP1 DUP1 PUSH1 0x1 ADD PUSH0 SWAP1 SLOAD SWAP1 PUSH2 0x100 EXP SWAP1 DIV PUSH20 0xFFFFFFFFFFFFFFFFFFFFFFFFFFFFFFFFFFFFFFFF AND SWAP1 DUP1 PUSH1 0x2 ADD SLOAD SWAP1 DUP1 PUSH1 0x3 ADD PUSH0 SWAP1 SLOAD SWAP1 PUSH2 0x100 EXP SWAP1 DIV PUSH1 0xFF AND SWAP1 DUP1 PUSH1 0x4 ADD SLOAD SWAP1 POP DUP6 JUMP JUMPDEST PUSH1 0x4 SLOAD DUP2 JUMP JUMPDEST PUSH1 0x2 SLOAD DUP2 JUMP JUMPDEST PUSH1 0x7 SLOAD DUP2 JUMP JUMPDEST PUSH1 0x6 SLOAD DUP2 JUMP JUMPDEST PUSH0 DUP2 SWAP1 POP SWAP2 SWAP1 POP JUMP JUMPDEST PUSH2 0xC87 DUP2 PUSH2 0xC75 JUMP JUMPDEST DUP3 MSTORE POP POP JUMP JUMPDEST PUSH0 PUSH1 0x20 DUP3 ADD SWAP1 POP PUSH2 0xCA0 PUSH0 DUP4 ADD DUP5 PUSH2 0xC7E JUMP JUMPDEST SWAP3 SWAP2 POP POP JUMP JUMPDEST PUSH0 DUP1 REVERT JUMPDEST PUSH0 DUP1 REVERT JUMPDEST PUSH0 PUSH20 0xFFFFFFFFFFFFFFFFFFFFFFFFFFFFFFFFFFFFFFFF DUP3 AND SWAP1 POP SWAP2 SWAP1 POP JUMP JUMPDEST PUSH0 PUSH2 0xCD7 DUP3 PUSH2 0xCAE JUMP JUMPDEST SWAP1 POP SWAP2 SWAP1 POP JUMP JUMPDEST PUSH2 0xCE7 DUP2 PUSH2 0xCCD JUMP JUMPDEST DUP2 EQ PUSH2 0xCF1 JUMPI PUSH0 DUP1 REVERT JUMPDEST POP JUMP JUMPDEST PUSH0 DUP2 CALLDATALOAD SWAP1 POP PUSH2 0xD02 DUP2 PUSH2 0xCDE JUMP JUMPDEST SWAP3 SWAP2 POP POP JUMP JUMPDEST PUSH0 PUSH1 0x20 DUP3 DUP5 SUB SLT ISZERO PUSH2 0xD1D JUMPI PUSH2 0xD1C PUSH2 0xCA6 JUMP JUMPDEST JUMPDEST PUSH0 PUSH2 0xD2A DUP5 DUP3 DUP6 ADD PUSH2 0xCF4 JUMP JUMPDEST SWAP2 POP POP SWAP3 SWAP2 POP POP JUMP JUMPDEST PUSH0 DUP1 REVERT JUMPDEST PUSH0 DUP1 REVERT JUMPDEST PUSH0 DUP1 REVERT JUMPDEST PUSH0 DUP1 DUP4 PUSH1 0x1F DUP5 ADD SLT PUSH2 0xD54 JUMPI PUSH2 0xD53 PUSH2 0xD33 JUMP JUMPDEST JUMPDEST DUP3 CALLDATALOAD SWAP1 POP PUSH8 0xFFFFFFFFFFFFFFFF DUP2 GT ISZERO PUSH2 0xD71 JUMPI PUSH2 0xD70 PUSH2 0xD37 JUMP JUMPDEST JUMPDEST PUSH1 0x20 DUP4 ADD SWAP2 POP DUP4 PUSH1 0x1 DUP3 MUL DUP4 ADD GT ISZERO PUSH2 0xD8D JUMPI PUSH2 0xD8C PUSH2 0xD3B JUMP JUMPDEST JUMPDEST SWAP3 POP SWAP3 SWAP1 POP JUMP JUMPDEST PUSH0 PUSH2 0xD9E DUP3 PUSH2 0xCAE JUMP JUMPDEST SWAP1 POP SWAP2 SWAP1 POP JUMP JUMPDEST PUSH2 0xDAE DUP2 PUSH2 0xD94 JUMP JUMPDEST DUP2 EQ PUSH2 0xDB8 JUMPI PUSH0 DUP1 REVERT JUMPDEST POP JUMP JUMPDEST PUSH0 DUP2 CALLDATALOAD SWAP1 POP PUSH2 0xDC9 DUP2 PUSH2 0xDA5 JUMP JUMPDEST SWAP3 SWAP2 POP POP JUMP JUMPDEST PUSH2 0xDD8 DUP2 PUSH2 0xC75 JUMP JUMPDEST DUP2 EQ PUSH2 0xDE2 JUMPI PUSH0 DUP1 REVERT JUMPDEST POP JUMP JUMPDEST PUSH0 DUP2 CALLDATALOAD SWAP1 POP PUSH2 0xDF3 DUP2 PUSH2 0xDCF JUMP JUMPDEST SWAP3 SWAP2 POP POP JUMP JUMPDEST PUSH0 DUP1 PUSH0 DUP1 PUSH1 0x60 DUP6 DUP8 SUB SLT ISZERO PUSH2 0xE11 JUMPI PUSH2 0xE10 PUSH2 0xCA6 JUMP JUMPDEST JUMPDEST PUSH0 DUP6 ADD CALLDATALOAD PUSH8 0xFFFFFFFFFFFFFFFF DUP2 GT ISZERO PUSH2 0xE2E JUMPI PUSH2 0xE2D PUSH2 0xCAA JUMP JUMPDEST JUMPDEST PUSH2 0xE3A DUP8 DUP3 DUP9 ADD PUSH2 0xD3F JUMP JUMPDEST SWAP5 POP SWAP5 POP POP PUSH1 0x20 PUSH2 0xE4D DUP8 DUP3 DUP9 ADD PUSH2 0xDBB JUMP JUMPDEST SWAP3 POP POP PUSH1 0x40 PUSH2 0xE5E DUP8 DUP3 DUP9 ADD PUSH2 0xDE5 JUMP JUMPDEST SWAP2 POP POP SWAP3 SWAP6 SWAP2 SWAP5 POP SWAP3 POP JUMP JUMPDEST PUSH2 0xE73 DUP2 PUSH2 0xCCD JUMP JUMPDEST DUP3 MSTORE POP POP JUMP JUMPDEST PUSH0 PUSH1 0x20 DUP3 ADD SWAP1 POP PUSH2 0xE8C PUSH0 DUP4 ADD DUP5 PUSH2 0xE6A JUMP JUMPDEST SWAP3 SWAP2 POP POP JUMP JUMPDEST PUSH0 PUSH1 0x20 DUP3 DUP5 SUB SLT ISZERO PUSH2 0xEA7 JUMPI PUSH2 0xEA6 PUSH2 0xCA6 JUMP JUMPDEST JUMPDEST PUSH0 PUSH2 0xEB4 DUP5 DUP3 DUP6 ADD PUSH2 0xDE5 JUMP JUMPDEST SWAP2 POP POP SWAP3 SWAP2 POP POP JUMP JUMPDEST PUSH0 DUP2 MLOAD SWAP1 POP SWAP2 SWAP1 POP JUMP JUMPDEST PUSH0 DUP3 DUP3 MSTORE PUSH1 0x20 DUP3 ADD SWAP1 POP SWAP3 SWAP2 POP POP JUMP JUMPDEST DUP3 DUP2 DUP4 MCOPY PUSH0 DUP4 DUP4 ADD MSTORE POP POP POP JUMP JUMPDEST PUSH0 PUSH1 0x1F NOT PUSH1 0x1F DUP4 ADD AND SWAP1 POP SWAP2 SWAP1 POP JUMP JUMPDEST PUSH0 PUSH2 0xEFF DUP3 PUSH2 0xEBD JUMP JUMPDEST PUSH2 0xF09 DUP2 DUP6 PUSH2 0xEC7 JUMP JUMPDEST SWAP4 POP PUSH2 0xF19 DUP2 DUP6 PUSH1 0x20 DUP7 ADD PUSH2 0xED7 JUMP JUMPDEST PUSH2 0xF22 DUP2 PUSH2 0xEE5 JUMP JUMPDEST DUP5 ADD SWAP2 POP POP SWAP3 SWAP2 POP POP JUMP JUMPDEST PUSH2 0xF36 DUP2 PUSH2 0xD94 JUMP JUMPDEST DUP3 MSTORE POP POP JUMP JUMPDEST PUSH0 DUP2 ISZERO ISZERO SWAP1 POP SWAP2 SWAP1 POP JUMP JUMPDEST PUSH2 0xF50 DUP2 PUSH2 0xF3C JUMP JUMPDEST DUP3 MSTORE POP POP JUMP JUMPDEST PUSH0 PUSH1 0xA0 DUP3 ADD SWAP1 POP DUP2 DUP2 SUB PUSH0 DUP4 ADD MSTORE PUSH2 0xF6E DUP2 DUP9 PUSH2 0xEF5 JUMP JUMPDEST SWAP1 POP PUSH2 0xF7D PUSH1 0x20 DUP4 ADD DUP8 PUSH2 0xF2D JUMP JUMPDEST PUSH2 0xF8A PUSH1 0x40 DUP4 ADD DUP7 PUSH2 0xC7E JUMP JUMPDEST PUSH2 0xF97 PUSH1 0x60 DUP4 ADD DUP6 PUSH2 0xF47 JUMP JUMPDEST PUSH2 0xFA4 PUSH1 0x80 DUP4 ADD DUP5 PUSH2 0xC7E JUMP JUMPDEST SWAP7 SWAP6 POP POP POP POP POP POP JUMP JUMPDEST PUSH32 0x796F7520617265206E6F74206D616E6167657200000000000000000000000000 PUSH0 DUP3 ADD MSTORE POP JUMP JUMPDEST PUSH0 PUSH2 0xFE2 PUSH1 0x13 DUP4 PUSH2 0xEC7 JUMP JUMPDEST SWAP2 POP PUSH2 0xFED DUP3 PUSH2 0xFAE JUMP JUMPDEST PUSH1 0x20 DUP3 ADD SWAP1 POP SWAP2 SWAP1 POP JUMP JUMPDEST PUSH0 PUSH1 0x20 DUP3 ADD SWAP1 POP DUP2 DUP2 SUB PUSH0 DUP4 ADD MSTORE PUSH2 0x100F DUP2 PUSH2 0xFD6 JUMP JUMPDEST SWAP1 POP SWAP2 SWAP1 POP JUMP JUMPDEST PUSH32 0x4E487B7100000000000000000000000000000000000000000000000000000000 PUSH0 MSTORE PUSH1 0x11 PUSH1 0x4 MSTORE PUSH1 0x24 PUSH0 REVERT JUMPDEST PUSH0 PUSH2 0x104D DUP3 PUSH2 0xC75 JUMP JUMPDEST SWAP2 POP PUSH32 0xFFFFFFFFFFFFFFFFFFFFFFFFFFFFFFFFFFFFFFFFFFFFFFFFFFFFFFFFFFFFFFFF DUP3 SUB PUSH2 0x107F JUMPI PUSH2 0x107E PUSH2 0x1016 JUMP JUMPDEST JUMPDEST PUSH1 0x1 DUP3 ADD SWAP1 POP SWAP2 SWAP1 POP JUMP JUMPDEST PUSH0 DUP3 SWAP1 POP SWAP3 SWAP2 POP POP JUMP JUMPDEST PUSH32 0x4E487B7100000000000000000000000000000000000000000000000000000000 PUSH0 MSTORE PUSH1 0x41 PUSH1 0x4 MSTORE PUSH1 0x24 PUSH0 REVERT JUMPDEST PUSH32 0x4E487B7100000000000000000000000000000000000000000000000000000000 PUSH0 MSTORE PUSH1 0x22 PUSH1 0x4 MSTORE PUSH1 0x24 PUSH0 REVERT JUMPDEST PUSH0 PUSH1 0x2 DUP3 DIV SWAP1 POP PUSH1 0x1 DUP3 AND DUP1 PUSH2 0x1105 JUMPI PUSH1 0x7F DUP3 AND SWAP2 POP JUMPDEST PUSH1 0x20 DUP3 LT DUP2 SUB PUSH2 0x1118 JUMPI PUSH2 0x1117 PUSH2 0x10C1 JUMP JUMPDEST JUMPDEST POP SWAP2 SWAP1 POP JUMP JUMPDEST PUSH0 DUP2 SWAP1 POP DUP2 PUSH0 MSTORE PUSH1 0x20 PUSH0 KECCAK256 SWAP1 POP SWAP2 SWAP1 POP JUMP JUMPDEST PUSH0 PUSH1 0x20 PUSH1 0x1F DUP4 ADD DIV SWAP1 POP SWAP2 SWAP1 POP JUMP JUMPDEST PUSH0 DUP3 DUP3 SHL SWAP1 POP SWAP3 SWAP2 POP POP JUMP JUMPDEST PUSH0 PUSH1 0x8 DUP4 MUL PUSH2 0x117A PUSH32 0xFFFFFFFFFFFFFFFFFFFFFFFFFFFFFFFFFFFFFFFFFFFFFFFFFFFFFFFFFFFFFFFF DUP3 PUSH2 0x113F JUMP JUMPDEST PUSH2 0x1184 DUP7 DUP4 PUSH2 0x113F JUMP JUMPDEST SWAP6 POP DUP1 NOT DUP5 AND SWAP4 POP DUP1 DUP7 AND DUP5 OR SWAP3 POP POP POP SWAP4 SWAP3 POP POP POP JUMP JUMPDEST PUSH0 DUP2 SWAP1 POP SWAP2 SWAP1 POP JUMP JUMPDEST PUSH0 PUSH2 0x11BF PUSH2 0x11BA PUSH2 0x11B5 DUP5 PUSH2 0xC75 JUMP JUMPDEST PUSH2 0x119C JUMP JUMPDEST PUSH2 0xC75 JUMP JUMPDEST SWAP1 POP SWAP2 SWAP1 POP JUMP JUMPDEST PUSH0 DUP2 SWAP1 POP SWAP2 SWAP1 POP JUMP JUMPDEST PUSH2 0x11D8 DUP4 PUSH2 0x11A5 JUMP JUMPDEST PUSH2 0x11EC PUSH2 0x11E4 DUP3 PUSH2 0x11C6 JUMP JUMPDEST DUP5 DUP5 SLOAD PUSH2 0x114B JUMP JUMPDEST DUP3 SSTORE POP POP POP POP JUMP JUMPDEST PUSH0 SWAP1 JUMP JUMPDEST PUSH2 0x1200 PUSH2 0x11F4 JUMP JUMPDEST PUSH2 0x120B DUP2 DUP5 DUP5 PUSH2 0x11CF JUMP JUMPDEST POP POP POP JUMP JUMPDEST JUMPDEST DUP2 DUP2 LT ISZERO PUSH2 0x122E JUMPI PUSH2 0x1223 PUSH0 DUP3 PUSH2 0x11F8 JUMP JUMPDEST PUSH1 0x1 DUP2 ADD SWAP1 POP PUSH2 0x1211 JUMP JUMPDEST POP POP JUMP JUMPDEST PUSH1 0x1F DUP3 GT ISZERO PUSH2 0x1273 JUMPI PUSH2 0x1244 DUP2 PUSH2 0x111E JUMP JUMPDEST PUSH2 0x124D DUP5 PUSH2 0x1130 JUMP JUMPDEST DUP2 ADD PUSH1 0x20 DUP6 LT ISZERO PUSH2 0x125C JUMPI DUP2 SWAP1 POP JUMPDEST PUSH2 0x1270 PUSH2 0x1268 DUP6 PUSH2 0x1130 JUMP JUMPDEST DUP4 ADD DUP3 PUSH2 0x1210 JUMP JUMPDEST POP POP JUMPDEST POP POP POP JUMP JUMPDEST PUSH0 DUP3 DUP3 SHR SWAP1 POP SWAP3 SWAP2 POP POP JUMP JUMPDEST PUSH0 PUSH2 0x1293 PUSH0 NOT DUP5 PUSH1 0x8 MUL PUSH2 0x1278 JUMP JUMPDEST NOT DUP1 DUP4 AND SWAP2 POP POP SWAP3 SWAP2 POP POP JUMP JUMPDEST PUSH0 PUSH2 0x12AB DUP4 DUP4 PUSH2 0x1284 JUMP JUMPDEST SWAP2 POP DUP3 PUSH1 0x2 MUL DUP3 OR SWAP1 POP SWAP3 SWAP2 POP POP JUMP JUMPDEST PUSH2 0x12C5 DUP4 DUP4 PUSH2 0x108A JUMP JUMPDEST PUSH8 0xFFFFFFFFFFFFFFFF DUP2 GT ISZERO PUSH2 0x12DE JUMPI PUSH2 0x12DD PUSH2 0x1094 JUMP JUMPDEST JUMPDEST PUSH2 0x12E8 DUP3 SLOAD PUSH2 0x10EE JUMP JUMPDEST PUSH2 0x12F3 DUP3 DUP3 DUP6 PUSH2 0x1232 JUMP JUMPDEST PUSH0 PUSH1 0x1F DUP4 GT PUSH1 0x1 DUP2 EQ PUSH2 0x1320 JUMPI PUSH0 DUP5 ISZERO PUSH2 0x130E JUMPI DUP3 DUP8 ADD CALLDATALOAD SWAP1 POP JUMPDEST PUSH2 0x1318 DUP6 DUP3 PUSH2 0x12A0 JUMP JUMPDEST DUP7 SSTORE POP PUSH2 0x137F JUMP JUMPDEST PUSH1 0x1F NOT DUP5 AND PUSH2 0x132E DUP7 PUSH2 0x111E JUMP JUMPDEST PUSH0 JUMPDEST DUP3 DUP2 LT ISZERO PUSH2 0x1355 JUMPI DUP5 DUP10 ADD CALLDATALOAD DUP3 SSTORE PUSH1 0x1 DUP3 ADD SWAP2 POP PUSH1 0x20 DUP6 ADD SWAP5 POP PUSH1 0x20 DUP2 ADD SWAP1 POP PUSH2 0x1330 JUMP JUMPDEST DUP7 DUP4 LT ISZERO PUSH2 0x1372 JUMPI DUP5 DUP10 ADD CALLDATALOAD PUSH2 0x136E PUSH1 0x1F DUP10 AND DUP3 PUSH2 0x1284 JUMP JUMPDEST DUP4 SSTORE POP JUMPDEST PUSH1 0x1 PUSH1 0x2 DUP9 MUL ADD DUP9 SSTORE POP POP POP JUMPDEST POP POP POP POP POP POP POP JUMP JUMPDEST PUSH32 0x596F7520617265206E6F74206120636F6E747269627574657200000000000000 PUSH0 DUP3 ADD MSTORE POP JUMP JUMPDEST PUSH0 PUSH2 0x13BC PUSH1 0x19 DUP4 PUSH2 0xEC7 JUMP JUMPDEST SWAP2 POP PUSH2 0x13C7 DUP3 PUSH2 0x1388 JUMP JUMPDEST PUSH1 0x20 DUP3 ADD SWAP1 POP SWAP2 SWAP1 POP JUMP JUMPDEST PUSH0 PUSH1 0x20 DUP3 ADD SWAP1 POP DUP2 DUP2 SUB PUSH0 DUP4 ADD MSTORE PUSH2 0x13E9 DUP2 PUSH2 0x13B0 JUMP JUMPDEST SWAP1 POP SWAP2 SWAP1 POP JUMP JUMPDEST PUSH32 0x596F75206861766520616C726561647920766F74656400000000000000000000 PUSH0 DUP3 ADD MSTORE POP JUMP JUMPDEST PUSH0 PUSH2 0x1424 PUSH1 0x16 DUP4 PUSH2 0xEC7 JUMP JUMPDEST SWAP2 POP PUSH2 0x142F DUP3 PUSH2 0x13F0 JUMP JUMPDEST PUSH1 0x20 DUP3 ADD SWAP1 POP SWAP2 SWAP1 POP JUMP JUMPDEST PUSH0 PUSH1 0x20 DUP3 ADD SWAP1 POP DUP2 DUP2 SUB PUSH0 DUP4 ADD MSTORE PUSH2 0x1451 DUP2 PUSH2 0x1418 JUMP JUMPDEST SWAP1 POP SWAP2 SWAP1 POP JUMP JUMPDEST PUSH32 0x446561646C696E65206861732070617373656400000000000000000000000000 PUSH0 DUP3 ADD MSTORE POP JUMP JUMPDEST PUSH0 PUSH2 0x148C PUSH1 0x13 DUP4 PUSH2 0xEC7 JUMP JUMPDEST SWAP2 POP PUSH2 0x1497 DUP3 PUSH2 0x1458 JUMP JUMPDEST PUSH1 0x20 DUP3 ADD SWAP1 POP SWAP2 SWAP1 POP JUMP JUMPDEST PUSH0 PUSH1 0x20 DUP3 ADD SWAP1 POP DUP2 DUP2 SUB PUSH0 DUP4 ADD MSTORE PUSH2 0x14B9 DUP2 PUSH2 0x1480 JUMP JUMPDEST SWAP1 POP SWAP2 SWAP1 POP JUMP JUMPDEST PUSH32 0x7061796D656E742073686F756C64206265206D6F7265207468616E206D696E69 PUSH0 DUP3 ADD MSTORE PUSH32 0x6D756D20636F6E747269627574696F6E00000000000000000000000000000000 PUSH1 0x20 DUP3 ADD MSTORE POP JUMP JUMPDEST PUSH0 PUSH2 0x151A PUSH1 0x30 DUP4 PUSH2 0xEC7 JUMP JUMPDEST SWAP2 POP PUSH2 0x1525 DUP3 PUSH2 0x14C0 JUMP JUMPDEST PUSH1 0x40 DUP3 ADD SWAP1 POP SWAP2 SWAP1 POP JUMP JUMPDEST PUSH0 PUSH1 0x20 DUP3 ADD SWAP1 POP DUP2 DUP2 SUB PUSH0 DUP4 ADD MSTORE PUSH2 0x1547 DUP2 PUSH2 0x150E JUMP JUMPDEST SWAP1 POP SWAP2 SWAP1 POP JUMP JUMPDEST PUSH0 PUSH2 0x1558 DUP3 PUSH2 0xC75 JUMP JUMPDEST SWAP2 POP PUSH2 0x1563 DUP4 PUSH2 0xC75 JUMP JUMPDEST SWAP3 POP DUP3 DUP3 ADD SWAP1 POP DUP1 DUP3 GT ISZERO PUSH2 0x157B JUMPI PUSH2 0x157A PUSH2 0x1016 JUMP JUMPDEST JUMPDEST SWAP3 SWAP2 POP POP JUMP JUMPDEST PUSH32 0x746172676574206973206E6F7420726561636865640000000000000000000000 PUSH0 DUP3 ADD MSTORE POP JUMP JUMPDEST PUSH0 PUSH2 0x15B5 PUSH1 0x15 DUP4 PUSH2 0xEC7 JUMP JUMPDEST SWAP2 POP PUSH2 0x15C0 DUP3 PUSH2 0x1581 JUMP JUMPDEST PUSH1 0x20 DUP3 ADD SWAP1 POP SWAP2 SWAP1 POP JUMP JUMPDEST PUSH0 PUSH1 0x20 DUP3 ADD SWAP1 POP DUP2 DUP2 SUB PUSH0 DUP4 ADD MSTORE PUSH2 0x15E2 DUP2 PUSH2 0x15A9 JUMP JUMPDEST SWAP1 POP SWAP2 SWAP1 POP JUMP JUMPDEST PUSH32 0x746865207265717565737420686173206265656E20636F6D706C657465640000 PUSH0 DUP3 ADD MSTORE POP JUMP JUMPDEST PUSH0 PUSH2 0x161D PUSH1 0x1E DUP4 PUSH2 0xEC7 JUMP JUMPDEST SWAP2 POP PUSH2 0x1628 DUP3 PUSH2 0x15E9 JUMP JUMPDEST PUSH1 0x20 DUP3 ADD SWAP1 POP SWAP2 SWAP1 POP JUMP JUMPDEST PUSH0 PUSH1 0x20 DUP3 ADD SWAP1 POP DUP2 DUP2 SUB PUSH0 DUP4 ADD MSTORE PUSH2 0x164A DUP2 PUSH2 0x1611 JUMP JUMPDEST SWAP1 POP SWAP2 SWAP1 POP JUMP JUMPDEST PUSH32 0x4E487B7100000000000000000000000000000000000000000000000000000000 PUSH0 MSTORE PUSH1 0x12 PUSH1 0x4 MSTORE PUSH1 0x24 PUSH0 REVERT JUMPDEST PUSH0 PUSH2 0x1688 DUP3 PUSH2 0xC75 JUMP JUMPDEST SWAP2 POP PUSH2 0x1693 DUP4 PUSH2 0xC75 JUMP JUMPDEST SWAP3 POP DUP3 PUSH2 0x16A3 JUMPI PUSH2 0x16A2 PUSH2 0x1651 JUMP JUMPDEST JUMPDEST DUP3 DUP3 DIV SWAP1 POP SWAP3 SWAP2 POP POP JUMP JUMPDEST PUSH32 0x6D616A6F7269747920646F6573206E6F7420737570706F727420746865207265 PUSH0 DUP3 ADD MSTORE PUSH32 0x7175657374000000000000000000000000000000000000000000000000000000 PUSH1 0x20 DUP3 ADD MSTORE POP JUMP JUMPDEST PUSH0 PUSH2 0x1708 PUSH1 0x25 DUP4 PUSH2 0xEC7 JUMP JUMPDEST SWAP2 POP PUSH2 0x1713 DUP3 PUSH2 0x16AE JUMP JUMPDEST PUSH1 0x40 DUP3 ADD SWAP1 POP SWAP2 SWAP1 POP JUMP JUMPDEST PUSH0 PUSH1 0x20 DUP3 ADD SWAP1 POP DUP2 DUP2 SUB PUSH0 DUP4 ADD MSTORE PUSH2 0x1735 DUP2 PUSH2 0x16FC JUMP JUMPDEST SWAP1 POP SWAP2 SWAP1 POP JUMP JUMPDEST PUSH32 0x596F7520617265206E6F7420656C6769626C6520666F7220726566756E640000 PUSH0 DUP3 ADD MSTORE POP JUMP JUMPDEST PUSH0 PUSH2 0x1770 PUSH1 0x1E DUP4 PUSH2 0xEC7 JUMP JUMPDEST SWAP2 POP PUSH2 0x177B DUP3 PUSH2 0x173C JUMP JUMPDEST PUSH1 0x20 DUP3 ADD SWAP1 POP SWAP2 SWAP1 POP JUMP JUMPDEST PUSH0 PUSH1 0x20 DUP3 ADD SWAP1 POP DUP2 DUP2 SUB PUSH0 DUP4 ADD MSTORE PUSH2 0x179D DUP2 PUSH2 0x1764 JUMP JUMPDEST SWAP1 POP SWAP2 SWAP1 POP JUMP JUMPDEST PUSH32 0x596F7520617265206E6F7420636F6E7472696275746F72000000000000000000 PUSH0 DUP3 ADD MSTORE POP JUMP JUMPDEST PUSH0 PUSH2 0x17D8 PUSH1 0x17 DUP4 PUSH2 0xEC7 JUMP JUMPDEST SWAP2 POP PUSH2 0x17E3 DUP3 PUSH2 0x17A4 JUMP JUMPDEST PUSH1 0x20 DUP3 ADD SWAP1 POP SWAP2 SWAP1 POP JUMP JUMPDEST PUSH0 PUSH1 0x20 DUP3 ADD SWAP1 POP DUP2 DUP2 SUB PUSH0 DUP4 ADD MSTORE PUSH2 0x1805 DUP2 PUSH2 0x17CC JUMP JUMPDEST SWAP1 POP SWAP2 SWAP1 POP JUMP INVALID LOG2 PUSH5 0x6970667358 0x22 SLT KECCAK256 CODECOPY PUSH21 0xDA031969AB7F0E793B309A3E9DE834EE9568B439B6 0xA8 SWAP6 0xE7 XOR TIMESTAMP JUMPDEST PUSH3 0x6D8764 PUSH20 0x6F6C634300081A00330000000000000000000000 "
				},
				"gasEstimates": {
					"creation": {
						"codeDepositCost": "1242000",
						"executionCost": "infinite",
						"totalCost": "infinite"
					},
					"external": {
						"contributers(address)": "2869",
						"contribution()": "infinite",
						"createRequests(string,address,uint256)": "infinite",
						"deadline()": "2471",
						"getContractBalance()": "401",
						"makePayment(uint256)": "infinite",
						"manager()": "2553",
						"minimumContribution()": "2447",
						"noOfContributers()": "2449",
						"numRequests()": "2469",
						"raisedAmount()": "2491",
						"refund()": "infinite",
						"requests(uint256)": "infinite",
						"target()": "2513",
						"voteRequest(uint256)": "infinite"
					}
				},
				"methodIdentifiers": {
					"contributers(address)": "34b66460",
					"contribution()": "50520b1f",
					"createRequests(string,address,uint256)": "3eb7647b",
					"deadline()": "29dcb0cf",
					"getContractBalance()": "6f9fb98a",
					"makePayment(uint256)": "5114cb52",
					"manager()": "481c6a75",
					"minimumContribution()": "937e09b1",
					"noOfContributers()": "24274ee9",
					"numRequests()": "9fb42b1f",
					"raisedAmount()": "c59ee1dc",
					"refund()": "590e1ae3",
					"requests(uint256)": "81d12c58",
					"target()": "d4b83992",
					"voteRequest(uint256)": "4cb6f4a5"
				}
			},
			"storageLayout": {
				"storage": [
					{
						"astId": 20,
						"contract": "contracts/crowdfunding.sol:CrowdFunding",
						"label": "contributers",
						"offset": 0,
						"slot": "0",
						"type": "t_mapping(t_address,t_uint256)"
					},
					{
						"astId": 25,
						"contract": "contracts/crowdfunding.sol:CrowdFunding",
						"label": "requests",
						"offset": 0,
						"slot": "1",
						"type": "t_mapping(t_uint256,t_struct(Request)16_storage)"
					},
					{
						"astId": 27,
						"contract": "contracts/crowdfunding.sol:CrowdFunding",
						"label": "numRequests",
						"offset": 0,
						"slot": "2",
						"type": "t_uint256"
					},
					{
						"astId": 29,
						"contract": "contracts/crowdfunding.sol:CrowdFunding",
						"label": "manager",
						"offset": 0,
						"slot": "3",
						"type": "t_address"
					},
					{
						"astId": 31,
						"contract": "contracts/crowdfunding.sol:CrowdFunding",
						"label": "minimumContribution",
						"offset": 0,
						"slot": "4",
						"type": "t_uint256"
					},
					{
						"astId": 33,
						"contract": "contracts/crowdfunding.sol:CrowdFunding",
						"label": "deadline",
						"offset": 0,
						"slot": "5",
						"type": "t_uint256"
					},
					{
						"astId": 35,
						"contract": "contracts/crowdfunding.sol:CrowdFunding",
						"label": "target",
						"offset": 0,
						"slot": "6",
						"type": "t_uint256"
					},
					{
						"astId": 37,
						"contract": "contracts/crowdfunding.sol:CrowdFunding",
						"label": "raisedAmount",
						"offset": 0,
						"slot": "7",
						"type": "t_uint256"
					},
					{
						"astId": 39,
						"contract": "contracts/crowdfunding.sol:CrowdFunding",
						"label": "noOfContributers",
						"offset": 0,
						"slot": "8",
						"type": "t_uint256"
					}
				],
				"types": {
					"t_address": {
						"encoding": "inplace",
						"label": "address",
						"numberOfBytes": "20"
					},
					"t_address_payable": {
						"encoding": "inplace",
						"label": "address payable",
						"numberOfBytes": "20"
					},
					"t_bool": {
						"encoding": "inplace",
						"label": "bool",
						"numberOfBytes": "1"
					},
					"t_mapping(t_address,t_bool)": {
						"encoding": "mapping",
						"key": "t_address",
						"label": "mapping(address => bool)",
						"numberOfBytes": "32",
						"value": "t_bool"
					},
					"t_mapping(t_address,t_uint256)": {
						"encoding": "mapping",
						"key": "t_address",
						"label": "mapping(address => uint256)",
						"numberOfBytes": "32",
						"value": "t_uint256"
					},
					"t_mapping(t_uint256,t_struct(Request)16_storage)": {
						"encoding": "mapping",
						"key": "t_uint256",
						"label": "mapping(uint256 => struct CrowdFunding.Request)",
						"numberOfBytes": "32",
						"value": "t_struct(Request)16_storage"
					},
					"t_string_storage": {
						"encoding": "bytes",
						"label": "string",
						"numberOfBytes": "32"
					},
					"t_struct(Request)16_storage": {
						"encoding": "inplace",
						"label": "struct CrowdFunding.Request",
						"members": [
							{
								"astId": 3,
								"contract": "contracts/crowdfunding.sol:CrowdFunding",
								"label": "description",
								"offset": 0,
								"slot": "0",
								"type": "t_string_storage"
							},
							{
								"astId": 5,
								"contract": "contracts/crowdfunding.sol:CrowdFunding",
								"label": "recipient",
								"offset": 0,
								"slot": "1",
								"type": "t_address_payable"
							},
							{
								"astId": 7,
								"contract": "contracts/crowdfunding.sol:CrowdFunding",
								"label": "value",
								"offset": 0,
								"slot": "2",
								"type": "t_uint256"
							},
							{
								"astId": 9,
								"contract": "contracts/crowdfunding.sol:CrowdFunding",
								"label": "completed",
								"offset": 0,
								"slot": "3",
								"type": "t_bool"
							},
							{
								"astId": 11,
								"contract": "contracts/crowdfunding.sol:CrowdFunding",
								"label": "noOfVoters",
								"offset": 0,
								"slot": "4",
								"type": "t_uint256"
							},
							{
								"astId": 15,
								"contract": "contracts/crowdfunding.sol:CrowdFunding",
								"label": "voters",
								"offset": 0,
								"slot": "5",
								"type": "t_mapping(t_address,t_bool)"
							}
						],
						"numberOfBytes": "192"
					},
					"t_uint256": {
						"encoding": "inplace",
						"label": "uint256",
						"numberOfBytes": "32"
					}
				}
			},
			"userdoc": {
				"kind": "user",
				"methods": {},
				"version": 1
			}
		}
	}
}